:020000040800F2
:1000000000000120B12D0008F52C0008F72C000895
:10001000F92C0008FB2C0008FD2C00080000000053
:10002000000000000000000000000000FF2C00089D
:10003000012D000800000000032D0008052D000818
:10004000012E0008012E0008012E0008012E0008D4
:10005000012E0008012E0008012E0008012E0008C4
:10006000012E0008012E0008012E0008012E0008B4
:10007000012E0008012E0008012E0008012E0008A4
:10008000012E0008012E0008012E000800000000CB
:10009000000000000000000000000000012E000829
:1000A000092D0008252D0008412D0008012E00080B
:1000B000012E0008012E0008012E0008012E000864
:1000C000012E0008012E0008012E0008012E000854
:1000D000012E0008012E0008012E0008000000007B
:1000E000012E0008012E0008012E0008000000006B
:1000F000000000000000000000000000012E0008C9
:1001000000000000012E0008012E0008012E00084A
:1001100000000000000000000000000000000000DF
:10012000012E0008012E0008012E0008012E0008F3
:10013000012E000800000000000000000000000088
:10014000000000000000000000000000012E000878
:10015000012E0008012E0008012E0008012E0008C3
:10016000012E0008012E0008000000000000000021
:10017000000000000000000000000000000000007F
:1001800000000000012E0008000000000000000038
:04019000012E000834
:1001A00010B5054C237833B9044B13B10448AFF3B1
:1001B00000800123237010BD840000200000000097
:1001C000A456000808B5034B1BB103490348AFF31D
:1001D000008008BD0000000088000020A456000830
:1001E000034613F8012B002AFBD1181A0138704777
:1001F00001F0FF01102A2BDB10F0070F08D010F8D8
:10020000013B013A8B422DD010F0070F42B3F6D1DB
:10021000F0B441EA012141EA014122F007047FF0F4
:1002200000070023F0E80256083C85EA010586EA4B
:10023000010685FA47F5A3FA87F586FA47F6A5FA87
:1002400087F68EB9EED1F0BC01F0FF0102F0070293
:1002500032B110F8013B013A83EA010313B1F8D13E
:100260000020704701387047002D06BF354603381F
:10027000073815F0010F07D1013015F4807F02BF58
:10028000013015F4C03F0130F0BC0138704700BFA9
:1002900070B54FF0FF0C4CF4E06C1CEA11541DBF1C
:1002A0001CEA135594EA0C0F95EA0C0F00F0DEF8E7
:1002B0002C4481EA030621EA4C5123EA4C5350EACC
:1002C000013518BF52EA033541F4801143F480131D
:1002D00038D0A0FB02CE4FF00005E1FB02E506F0AE
:1002E0000042E0FB03E54FF00006E1FB03569CF003
:1002F000000F18BF4EF0010EA4F1FF04B6F5007F09
:1003000064F5407404D25FEA4E0E6D4146EB06067A
:1003100042EAC62141EA55514FEAC52040EA5E5003
:100320004FEACE2EB4F1FD0C88BFBCF5E06F1ED8AD
:10033000BEF1004F08BF5FEA500E50F1000041EBE4
:10034000045170BD06F0004646EA010140EA020091
:1003500081EA0301B4EB5C04C2BFD4EB0C0541EAB3
:10036000045170BD41F480114FF0000E013C00F3C8
:10037000AB8014F1360FDEBF002001F0004170BDEC
:10038000C4F10004203C35DA0C341BDC04F1140405
:10039000C4F1200500FA05F320FA04F001FA05F291
:1003A00040EA020001F0004221F0004110EBD3705E
:1003B00021FA04F642EB06015EEA430E08BF20EA8A
:1003C000D37070BDC4F10C04C4F1200500FA04F32D
:1003D00020FA05F001FA04F240EA020001F00041BF
:1003E00010EBD37041F100015EEA430E08BF20EA32
:1003F000D37070BDC4F1200500FA05F24EEA020E7A
:1004000020FA04F301FA05F243EA020321FA04F0A8
:1004100001F0004121FA04F220EA020000EBD3705F
:100420005EEA430E08BF20EAD37070BD94F0000F5F
:100430000FD101F00046400041EB010111F4801F93
:1004400008BF013CF7D041EA060195F0000F18BF44
:10045000704703F00046520043EB030313F4801F80
:1004600008BF013DF7D043EA0603704794EA0C0F3A
:100470000CEA135518BF95EA0C0F0CD050EA410650
:1004800018BF52EA4306D1D181EA030101F00041CD
:100490004FF0000070BD50EA410606BF10461946F5
:1004A00052EA430619D094EA0C0F02D150EA013601
:1004B00013D195EA0C0F05D152EA03361CBF104642
:1004C00019460AD181EA030101F0004141F0FE41E1
:1004D00041F470014FF0000070BD41F0FE4141F465
:1004E000780170BD81F0004102E000BF83F000435D
:1004F00030B54FEA41044FEA430594EA050F08BFBF
:1005000090EA020F1FBF54EA000C55EA020C7FEA82
:10051000645C7FEA655C00F0E2804FEA5454D4EBFF
:100520005555B8BF6D420CDD2C4480EA020281EAC9
:10053000030382EA000083EA010180EA020281EA01
:100540000303362D88BF30BD11F0004F4FEA013153
:100550004FF4801C4CEA113102D0404261EB410162
:1005600013F0004F4FEA03334CEA133302D05242E8
:1005700063EB430394EA050F00F0A780A4F10104A4
:10058000D5F1200E0DDB02FA0EFC22FA05F28018DE
:1005900041F1000103FA0EF2801843FA05F35941C4
:1005A0000EE0A5F120050EF1200E012A03FA0EFC43
:1005B00028BF4CF0020C43FA05F3C01851EBE3716D
:1005C00001F0004507D54FF0000EDCF1000C7EEB8A
:1005D00000006EEB0101B1F5801F1BD3B1F5001FC8
:1005E0000CD349085FEA30004FEA3C0C04F10104E7
:1005F0004FEA445212F5800F80F09A80BCF1004F10
:1006000008BF5FEA500C50F1000041EB045141EA91
:10061000050130BD5FEA4C0C404141EB0101013C5A
:1006200028BFB1F5801FE9D291F0000F04BF014649
:100630000020B1FA81F308BF2033A3F10B03B3F11B
:1006400020020CDA0C3208DD02F1140CC2F10C02AB
:1006500001FA0CF021FA02F10CE002F11402D8BF09
:10066000C2F1200C01FA02F120FA0CFCDCBF41EAD5
:100670000C019040E41AA2BF01EB0451294330BDA4
:100680006FEA04041F3C1CDA0C340EDC04F1140481
:10069000C4F1200220FA04F001FA02F340EA030058
:1006A00021FA04F345EA030130BDC4F10C04C4F19E
:1006B000200220FA02F001FA04F340EA030029467E
:1006C00030BD21FA04F0294630BD94F0000F83F4C8
:1006D000801306BF81F480110134013D4EE77FEAAB
:1006E000645C18BF7FEA655C29D094EA050F08BFF7
:1006F00090EA020F05D054EA000C04BF19461046D8
:1007000030BD91EA030F1EBF0021002030BD5FEA1B
:10071000545C05D14000494128BF41F0004130BD43
:1007200014F580043CBF01F5801130BD01F0004597
:1007300045F0FE4141F470014FF0000030BD7FEA0A
:10074000645C1ABF194610467FEA655C1CBF0B4605
:10075000024650EA013406BF52EA033591EA030F1C
:1007600041F4002130BD00BF90F0000F04BF002114
:10077000704730B54FF4806404F132044FF0000547
:100780004FF0000150E700BF90F0000F04BF0021C0
:10079000704730B54FF4806404F1320410F0004526
:1007A00048BF40424FF000013EE700BF42004FEA21
:1007B000E2014FEA31014FEA02701FBF12F07F439E
:1007C00093F07F4F81F06051704732F07F4208BF55
:1007D000704793F07F4F04BF41F40021704730B55C
:1007E0004FF4607401F0004521F000411CE700BFA8
:1007F00050EA010208BF704730B54FF000050AE02B
:1008000050EA010208BF704730B511F0004502D52B
:10081000404261EB41014FF4806404F132045FEA2D
:10082000915C3FF4D8AE4FF003025FEADC0C18BFD6
:1008300003325FEADC0C18BF033202EBDC02C2F1C8
:10084000200300FA03FC20FA02F001FA03FE40EA5A
:100850000E0021FA02F11444BDE600BF4FF0FF3C48
:1008600006E000BF4FF0010C02E000BF4FF0010CAA
:100870004DF804CD4FEA410C7FEA6C5C4FEA430C23
:1008800018BF7FEA6C5C1BD001B050EA410C0CBF72
:1008900052EA430C91EA030F02BF90EA020F0020D4
:1008A000704710F1000F91EA030F58BF994208BF3B
:1008B00090422CBFD8176FEAE37040F001007047F8
:1008C0004FEA410C7FEA6C5C02D150EA013C07D14F
:1008D0004FEA430C7FEA6C5CD6D152EA033CD3D09A
:1008E0005DF8040B704700BF8446104662468C4694
:1008F0001946634600E000BF01B5FFF7B7FF0028C7
:1009000048BF10F1000F01BD4DF808EDFFF7F4FFEF
:100910000CBF012000205DF808FB00BF4DF808ED7A
:10092000FFF7EAFF34BF012000205DF808FB00BF9D
:100930004DF808EDFFF7E0FF94BF012000205DF8BF
:1009400008FB00BF4DF808EDFFF7CEFF94BF012074
:1009500000205DF808FB00BF4DF808EDFFF7C4FF6D
:1009600034BF012000205DF808FB00BF4FEA4102C0
:10097000B2F1E04324BFB3F5001CDCF1FE5C0DD9FD
:1009800001F0004C4FEAC0024CEA5070B2F1004F47
:1009900040EB830008BF20F00100704711F0804F4A
:1009A00021D113F13872BCBF01F00040704741F40F
:1009B00080114FEA5252C2F11802C2F1200C10FA13
:1009C0000CF320FA02F018BF40F001004FEAC123F7
:1009D0004FEAD32303FA0CFC40EA0C0023FA02F39B
:1009E0004FEA4303CCE77FEA625307D150EA013371
:1009F0001EBF4FF0FE4040F44000704701F0004041
:100A000040F0FE4040F40000704700BF53B94AB9BF
:100A1000002908BF00281CBF4FF0FF314FF0FF3006
:100A200000F074B9ADF1080C6DE904CE00F006F8E1
:100A3000DDF804E0DDE9022304B070472DE9F0475A
:100A4000089D04468E46002B4DD18A42944669D9B2
:100A5000B2FA82F252B101FA02F3C2F1200120FA95
:100A600001F10CFA02FC41EA030E94404FEA1C48E3
:100A7000210CBEFBF8F61FFA8CF708FB16E341EADF
:100A8000034306FB07F199420AD91CEB030306F165
:100A9000FF3080F01F81994240F21C81023E634486
:100AA0005B1AA4B2B3FBF8F008FB103344EA03442A
:100AB00000FB07F7A7420AD91CEB040400F1FF333F
:100AC00080F00A81A74240F207816444023840EA7C
:100AD0000640E41B00261DB1D4400023C5E90043B5
:100AE0003146BDE8F0878B4209D9002D00F0EF8038
:100AF0000026C5E9000130463146BDE8F087B3FA6B
:100B000083F6002E4AD18B4202D3824200F2F98052
:100B1000841A61EB030301209E46002DE0D0C5E955
:100B2000004EDDE702B9FFDEB2FA82F2002A40F0A1
:100B30009280A1EB0C014FEA1C471FFA8CFE0126A4
:100B4000200CB1FBF7F307FB131140EA01410EFB48
:100B500003F0884208D91CEB010103F1FF3802D2EF
:100B6000884200F2CB804346091AA4B2B1FBF7F0E9
:100B700007FB101144EA01440EFB00FEA64508D90C
:100B80001CEB040400F1FF3102D2A64500F2BB8049
:100B90000846A4EB0E0440EA03409CE7C6F1200798
:100BA000B34022FA07FC4CEA030C20FA07F401FADE
:100BB00006F31C43F9404FEA1C4900FA06F3B1FB67
:100BC000F9F8200C1FFA8CFE09FB181140EA0141CC
:100BD00008FB0EF0884202FA06F20BD91CEB010169
:100BE00008F1FF3A80F08880884240F28580A8F1C1
:100BF00002086144091AA4B2B1FBF9F009FB101113
:100C000044EA014100FB0EFE8E4508D91CEB0101B0
:100C100000F1FF346CD28E456AD90238614440EA53
:100C20000840A0FB0294A1EB0E01A142C846A646D3
:100C300056D353D05DB1B3EB080261EB0E0101FA5C
:100C400007F722FA06F3F1401F43C5E900710026B9
:100C50003146BDE8F087C2F12003D8400CFA02FC0F
:100C600021FA03F3914001434FEA1C471FFA8CFE1F
:100C7000B3FBF7F007FB10360B0C43EA064300FB0F
:100C80000EF69E4204FA02F408D91CEB030300F1AD
:100C9000FF382FD29E422DD9023863449B1B89B264
:100CA000B3FBF7F607FB163341EA034106FB0EF3ED
:100CB0008B4208D91CEB010106F1FF3816D28B429A
:100CC00014D9023E6144C91A46EA004638E72E4666
:100CD000284605E70646E3E61846F8E64B45A9D25E
:100CE000B9EB020864EB0C0E0138A3E74646EAE7CD
:100CF000204694E74046D1E7D0467BE7023B61447B
:100D000032E7304609E76444023842E7704700BFE3
:100D1000064B1870064B1970064B1A70064B0022D2
:100D20001A70064B08221A70704700BFA0000020FE
:100D3000A3000020AB000020A2000020A1000020A2
:100D40001FB5084B08491B781843642300938DF89E
:100D50000C0009780548012303AA02F061FE05B0E2
:100D60005DF804FBA1000020A00000202805002061
:100D700010B5044640F00400FFF7E2FF012002F046
:100D800091F804F0FB00FFF7DBFFBDE81040012005
:100D900002F088B810B50446FFF7D2FF2046BDE840
:100DA0001040FFF7E5BF38B5054620F00F000C46B0
:100DB0000843FFF7EFFF44EA0510C0B2BDE8384032
:100DC000FFF7E8BF70B5044668B1FFF709FA0546BA
:100DD0002618B44201D1284670BD14F8010B012138
:100DE000FFF7E1FFF5E70546F5E70021FFF7DBBF79
:100DF00008B50120FFF7F9FFBDE80840022002F026
:100E000051B808B50220FFF7F0FFBDE80840022006
:100E100002F048B8044B187840F0040240F00C008F
:100E20001A70FFF7E2BF00BFA4000020084B03299F
:100E30001B7828BF03218B429CBF03F1FF31C9B24D
:100E4000044B5B5C184460F07F00C0B2FFF7CDBF7D
:100E5000AB000020A700002010B5284C0023237011
:100E6000274B1978012984BF08232370254B1A7852
:100E7000254B0020187040209A7002445870DA7098
:100E8000224B1B782BB1012902BF237843F00403C6
:100E90002370322002F006F81D4B1878FFF750FF40
:100EA000012001F0FFFF3020FFF774FF052001F063
:100EB000F9FF3020FFF76EFF052001F0F3FF30202F
:100EC000FFF768FF052001F0EDFF2020FFF762FF2C
:100ED000207840F02000FFF788FF0E4B04221A70A4
:100EE000FFF798FFFFF784FF0B4B022206201A70D2
:100EF000FFF77BFFBDE81040FFF783BFA500002090
:100F0000AB000020A3000020A7000020A2000020CA
:100F1000A1000020A4000020A60000202DE9F04739
:100F2000054617460E4605F1006502F0EDF905F598
:100F300000353C4606EB070AA946B846D0452FD1F6
:100F40004FF0000807F10109464539D80027BE4295
:100F500031D96278A37820781B041202D218E37882
:100F60002CBF0121002112184FEA036041F100015A
:100F700043F3C013821843EB010123790B446179D9
:100F800003EB0123A17903EB0143E179032003EB98
:100F90000163791902F0FCF9083460B90837D6E723
:100FA0000023494618F8012B184602F0F1F909F11F
:100FB00001090028C2D002F0B9F90120BDE8F0878C
:100FC00017F8083019F8082008EB050143EA022257
:100FD0000120002302F0DCF90028ECD108F102081E
:100FE000B2E70000F0B587B00126044602F08CF9A4
:100FF0000523CDE9033600270223694601A8CDE980
:101000000176059302F06EFA054678B902F08EF982
:10101000009B01330ED134B907484FF48062FF21A1
:1010200003F0D8FE3446204607B0F0BD02F07EF94A
:101030003C46F8E72C46F6E7AC0000200144B1F549
:10104000003F10B517D80D4C814201D8012010BDCA
:1010500032B100F1006303F500331B7802F8013B65
:10106000B0F5806F3FBF00F1006303F500331B78DC
:1010700023540130E8E70020E9E700BFAC0000207E
:1010800000224FF480611046FFF7D8BF08B50B4629
:101090001146C218B2F5806F07D841B11A46054B08
:1010A000184403F089FE012008BD0020FCE7084633
:1010B000FAE700BFAC00002008B50120FFF792FF5F
:1010C00038B1BDE80840034A4FF480610020FFF7C3
:1010D00025BF08BDAC000020B5EEC00AF1EE10FA45
:1010E00030B54FF06402044630D5DFED257A60EE6E
:1010F000277AFDEEE77A17EE903AF1EE407A93FB0D
:10110000F2F1FDEEE77A02FB11339BB20A25B3FB45
:10111000F5F105FB11333033E3708BB2B3FBF5F11E
:1011200005FB11333033A37017EE902A2E23601C79
:101130006370002A1ADCB5EEC00AF1EE10FA42BF65
:101140002D2300F8013C00F1FF3030BDDFED0D7ABA
:1011500060EE277AFDEEE77A17EE903A93FBF2F114
:1011600002FB1133FDEEC07A9BB2CFE792FBF5F3A1
:1011700005FB1322303200F8012D1A46D9E700BFD3
:101180000000C8C20000C84230B595B0102200214E
:101190000AA803F01FFE1422002103A803F01AFE80
:1011A0001F4B002101911A6C42F080521A641B6C93
:1011B0001C4A03F080530193019B0291136823F4AE
:1011C000404343F400431360136803F44043029325
:1011D000029B01244FF48033CDE9084302254FF4EC
:1011E0008003CDE90E531922A823CDE9102308A8C6
:1011F0000423CDE9123302F0EBFC08B172B6FEE72E
:10120000CDE905000F230790214603A8CDE903355A
:1012100002F0BCFE08B172B6FEE715B030BD00BFEB
:101220000038024000700040104B984203D1104B30
:1012300001221A8070470F4B98420FD10E4B0F4A74
:101240001B8813B1138801339BB213800C4B1A888F
:101250000C4B002AEDD01A880132EAE70A4B98427B
:1012600001BF0A4A13680133136070470C0600205F
:10127000AC070020C4050020BC040020B8040020F6
:10128000BA040020AE0400202C070020D80400205F
:101290000E4B0F49186910F0010010B508D06FF01F
:1012A00001021A6147F6FF725A6200200A6010BDFF
:1012B0005A6A0B6892B2D41A0134022C81BF981A70
:1012C00000EBD07040100A60F1E700BF0000014061
:1012D0000C00002070B586B006460C461546314914
:1012E000024603A803F07EFD002E30DD092E12DC3D
:1012F000E4B2E9B2601CC0B20191FFF797FD2A4841
:10130000FFF760FD20460199FFF790FD03A8FFF766
:1013100059FD06B070BD632E03DCE4B2E9B2A01C37
:10132000E9E7B6F57A7F03DAE4B2E9B2E01CE2E776
:1013300042F20F739E4203DCE4B2E9B2201DDAE709
:101340001A4B9E42E5DCE4B2E9B2601DD3E71AD045
:1013500016F1090FE1DA16F1630F08DBE4B2A01C05
:10136000E9B2C0B20191FFF761FD1148C8E716F577
:101370007A7FCEDDE4B2A01CE9B2C0B20191FFF7E2
:1013800055FD0C48BCE7E4B2E9B220460191FFF7F5
:101390004DFD0748FFF716FD20460199FFF746FD72
:1013A0000548B4E7BC5600087B5700089F8601003B
:1013B0007A57000879570008D656000830B52DED49
:1013C000028BF7EE007A85B0B4EEE70A0023F1EE67
:1013D00010FAB0EE408A8DF80C30C4B2C9B210D504
:1013E0002046FFF723FD0C48FFF7ECFC02A8B0EE07
:1013F000480AFFF771FEFFF7E5FC05B0BDEC028B74
:1014000030BD02A80191FFF767FE0199054620460D
:10141000FFF70CFD2846EEE7D656000880F00100E5
:10142000C2B20821014802F07BB900BF00000240AF
:1014300008B5C2B20821044802F072F9BDE80840BC
:101440000248002103F054BC000002405406002072
:10145000012806D181F00102D2B20448042102F031
:101460005FB908B9CAB2F8E7704700BF0000024090
:101470004FF0804310B5196811F00101044602D104
:101480000F4803F0F7FBACB10E4BDFED0F6A988805
:10149000604307EE900AB8EEE77A4FF08042C6EE5E
:1014A000877AFCEEE77A17EE903A0133D3625B0855
:1014B000536310BD21460248BDE8104003F018BC3C
:1014C000540600207C0700202634164F2DE9F041F9
:1014D0000446B1F800C02388B1F9005024482549DA
:1014E000C689B0F810E0B4F90070ACEB03020A80D2
:1014F000214AB2F80080A8450DD0B6FBFEF6A2F84E
:1015000000C0EA1B002AB8BF524292B20A80B2FB66
:10151000F6F21A4E3280BD421FDD184A0988128841
:10152000914200D9BAB901332380B4F9003007EEF3
:10153000103AD0F80630B8EEC77A07EE903AC7EE08
:10154000277AFCEEE77A17EE903A98B2FFF790FF11
:101550002088BDE8F0811344E6E7E6DA074A098807
:101560001288914200D90AB9013BDDE79B1ADBE7FB
:101570007C070020DC04002092070020AC0400203F
:1015800038B5064D2B688342044605D0FFF7A2FE0E
:101590000348FFF717FC2C6038BD00BF9C070020F4
:1015A000C056000810B54FF40051104802F0B2F8D0
:1015B0004FF4805104460D4802F0ACF844EA0003B1
:1015C000DBB26BB104EA0003DBB263B9002C14BFD9
:1015D000002300F00103002B14BF0120002010BDE8
:1015E0004FF0FF30FBE70220F9E700BF00040240A4
:1015F0000F4B1B8810B504465BB9FFF749FE2388E3
:1016000018442080B4F90020002A0BDC0123238039
:101610000DE0012BF6D1FFF73BFE23880A2202FBE7
:101620000030EEE7034B5B8999B28A42EFDC10BDD4
:10163000A20700207C07002010B518484FF4004195
:1016400002F068F8D0B91649164B08881A88164B6C
:1016500020B901240C801A8000B210BD1B88591CCF
:10166000914201DB0020F7E709339A420F4B02DC7D
:1016700001221A80F6E703201880EDE70B4A108854
:1016800003284FF0000306D0054901280B8002D142
:1016900000231380E0E71846FAE700BF0004024089
:1016A000BC040020B8040020AA07002096070020F0
:1016B00010B517484FF4804102F02CF8C8B9154C0A
:1016C000154A23881188154A23B9012020801180EA
:1016D00018B210BD1288541C8C42F9DA09329142BA
:1016E0000F4AD5BF0123032313801380D8BF0346BD
:1016F000EEE70B490B88032B4FF0000206D005489C
:10170000012B028002D100220A80E1E71346FAE7AA
:1017100000040240BA040020AE040020B2040020FD
:101720009407002070B586B06A46034600F11006A3
:10173000154618685968144603C40833B342224654
:10174000F7D1186820609B88A38000242A192046BE
:1017500001210134FFF79AFC162CF7D1FFF7ACFCFE
:1017600080B206B070BD2DE9F04188B00DF10808D7
:10177000044600260127454630460DF107020121A7
:10178000FFF75CFC013600289DF8073008F8013BA4
:1017900008BF0027162EEFD12A46234606AD144671
:1017A00003CCAC4218605960224603F10803F6D11D
:1017B00020681860A2889A80384608B0BDE8F08199
:1017C0002DE9F04FBA4DBB4E0023C5F8063040233B
:1017D0002DED028B3371062373716FF00B03002420
:1017E0000127B37233734FF080486FF017032C70EA
:1017F0006C70AC70EC702C716C71AC72EC722C7300
:101800006C73AC73EC732C746C74AC74EC742C75DA
:101810006C7534707470B470F470C6F80680F7722A
:101820007773B373032397B0F37332233374B374B2
:101830007474F4743475747501F008FBFFF7A4FC3C
:10184000214614220DA803F0C5FA9B4B03941A6B92
:101850009A4842F004021A631A6B02F004020392DF
:10186000039A04941A6B42F080021A631A6B02F016
:1018700080020492049A05941A6B3A431A631A6B15
:101880003A400592059A06941A6B42F002021A63D6
:101890001B6B03F00203224606934FF40051069B94
:1018A00001F03EFF224686480C2101F039FF4FF43B
:1018B000005382480DA9CDE90D37CDE90F4401F061
:1018C00061FE0C237E480DA9CDE90D37CDE90F440B
:1018D00001F058FE70237A480F940DA9CDE90D341C
:1018E00001F050FE4FF4704376480F940DA9CDE9F6
:1018F0000D3401F047FE7448DFF8F0C1734B046209
:10190000C0E900C34FF48043C0E90244C0E9043495
:10191000C0E9064401F0DCFF044608B172B6FEE7F8
:10192000DFF8CC91DFF8CCB101461C220EA803F001
:1019300051FA4FF0020A4FF6FF730DA94846CDE960
:101940000944C9E900B4C9E90334C9E90544C9F83F
:1019500008400D970F97CDF844A01397CDF854A0E9
:1019600002F050FE08B172B6FEE7CDE9090009A900
:10197000484603F0BFF9814608B172B6FEE747F664
:10198000FF73CBF824306FF00103514CCBF81030CB
:101990000146102209A803F01DFA1C2249460DA891
:1019A000CDE9079903F016FAC4E9008920464FF003
:1019B0008008C4E9029AC4F81090C4F8188002F0B4
:1019C0009DFD08B172B6FEE74FF4805309A9204689
:1019D000099302F0C4FF08B172B6FEE7204602F098
:1019E000B9FD08B172B6FEE7CDE9070007A92046A8
:1019F00003F080F9024608B172B6FEE76023CDE934
:101A00000D370F9004230DA92046119302F07CFEA0
:101A1000074608B172B6FEE7204601F043F92D48AB
:101A20002D4B876040F28224C0E9003440F6C14368
:101A3000C0E90337C0F8188002F060FD034608B122
:101A400072B6FEE72548264A8360C0E9002441F6C5
:101A50008312C0E90323C0F8188002F04FFD08B1DB
:101A600072B6FEE7102200210DA803F0B3F91D4C59
:101A70001D4940F28223C4E9001341F6831200237A
:101A8000C4E90232236120468023A36102F036FDBF
:101A900008B172B6FEE74FF480580DA92046CDF884
:101AA000348002F05CFF074630B372B6FEE700BF39
:101AB0007C070020BE0400200038024000080240DD
:101AC000000002400004024028050020A08601001A
:101AD000540600200C06002000480140C4050020E8
:101AE000004401402C070020004001400054004009
:101AF0007C05002000000140014610220DA803F0E3
:101B000069F9B24CB24BA7604FF00109C4E9003744
:101B10002046B04B2761277684F82070E762A362E5
:101B2000E760C4F81C9084F83070C4F8149001F099
:101B3000CDF908B172B6FEE709230F900DA9204632
:101B4000CDE90D3901F068FA074608B172B6FEE733
:101B50000146102209A803F03DF9102239460DA8CC
:101B60009D4CCDE9077703F035F99C4BA760C4E99C
:101B7000003720464FF6FF73C4E90337A76102F030
:101B8000BDFC08B172B6FEE709A92046CDF8248055
:101B900002F0E5FE08B172B6FEE7204602F006FD4F
:101BA00008B172B6FEE7CDE9070007A9204603F0A9
:101BB000A1F808B172B6FEE7CDE90D09CDE90F0035
:101BC000042220460DA902F02DFE044608B172B68B
:101BD000FEE7014614220DA803F0FCF88048814B73
:101BE0008460C0E900344FF0FF33CDE90944C0E917
:101BF0000334846102F082FC08B172B6FEE7602310
:101C00000722CDE90D23764800230DA90F931193E8
:101C100002F0A1FF08B172B6FEE7CDE9090009A9FB
:101C20006F4803F067F8074608B172B6FEE7FFF7A2
:101C300027FA042214214E20FFF76AF8FFF70CF967
:101C400001210220FFF7F2F8674C6848DFF8E481D1
:101C5000DFF8E491DFF8E4A1DFF8B0B1FFF7B2F804
:101C60003C216348278002F0E5FA624802F0AEFAB0
:101C7000614802F0ABFA614802F0A8FAC8F80060C7
:101C80005F4EC9F800503368CAF80030DAF8003007
:101C900032681E3393425CD2FFF7AAF8D9F80000ED
:101CA000FFF761FD08BB01210846FFF7BFF8554863
:101CB000FFF788F802210120FFF7B8F85248FFF734
:101CC00081F8D8F80030D9F8002003F1140153F856
:101CD000040B42F8040B8B42F9D11B8813804FF49C
:101CE000FA6001F0DFF8FFF783F8AB8A93B1D8F818
:101CF0000030D9F8002003F1140153F8040B42F826
:101D0000040B8B42F9D11B881380404B04221A80AC
:101D1000012323802B8ADFED3E6A3E4A3B4F07EECC
:101D2000103AB8EE477AC7EE267A9FED3B7A67EE17
:101D3000877AFCEEE77A17EE903A9BB2D3623B8843
:101D4000042BFDD8DFE813F01200C3005B017C0018
:101D5000F501FFF771FC03284FF0040103BF0123D5
:101D6000ABF800102380ABF800708FE7FFF71AFC88
:101D700002280ED001210820FFF758F82748FFF766
:101D800021F802210320FFF751F82548FFF71AF840
:101D9000D5E7FFF72DF800210846FFF747F821485F
:101DA000FFF710F801210020FFF740F81E48FFF769
:101DB00009F81E4B688A18801D4B002218800B21E1
:101DC00000B2FFF7DDFB03233B80B8E7E00400200F
:101DD000002001400100000F9C0600200008004088
:101DE000E4060020000C004074070020C8560008DC
:101DF0007C0500200C060020C40500202C070020D4
:101E0000D8040020D8560008EB560008A007002090
:101E100000007A440048014000267F47FB56000836
:101E200002570008115700081C5700081000002036
:101E300004000020D4040020A4070020780700201C
:101E40009E4E3046FFF7D4FB9D4BB6F9000018803C
:101E500000220B21FFF794FBFFF7EEFB20B1994B1B
:101E60001A8802BB01221A80238843B10121002075
:101E7000FEF7DCFF9448FEF7A5FF00232380934E76
:101E8000DFF864823388032B1CBF03233380FFF702
:101E900089FB01280BD1B8F9003043B90323338003
:101EA000388020804BE7012ADED10022DBE7FFF7F4
:101EB00079FBB8F80030184300B200287FF43FAF38
:101EC0000323338002233B800123238037E7FFF77E
:101ED000B3FB7F4EDFF818823080FFF7E9FB3188D3
:101EE00080B20129A8F8000004D1764B1A88002A94
:101EF00059D1198003285BD1764A137B527B43EA80
:101F000002236E4A1380FFF74DFB734B80B201280A
:101F1000188054D1694EB6F9003013B9684B1B884C
:101F20003380B8F80030032B0ED06448FFF760FB15
:101F3000634BB6F90000B3F90020824204D00022BE
:101F40000B211880FFF71CFB238843B101210020DF
:101F5000FEF76CFF6148FEF735FF002323805B4EE0
:101F60003388012B10D0DFF86C815D48B8F802206F
:101F700082F00102D2B2042101F0D2FBB8F80000D5
:101F8000FFF74CFA01233380564E3388002B3FF481
:101F9000D6AEDFF8548149494046FFF797FA00234F
:101FA000A8F800001DE0012A04BF00221A80A1E762
:101FB0000028A8D1424B1A88404B1A80A3E790B959
:101FC000494B3E4EB3F900303080002BBCD1022388
:101FD0003B80012323803F4B1888FFF729FA384BB9
:101FE0001B883380ABE60228AED1344E0023338009
:101FF0003D4BB3F90030002BA6D10323E8E7FFF7F0
:102000001BFB334EDFF8E8803080FFF751FB31884F
:1020100080B20129A8F8000004D12A4B1A88002AAE
:1020200047D11980032865D12A4A137B527B43EAA2
:102030000223224A1380FFF7B5FA274B80B218809B
:1020400000285ED11D4EB6F9003013B91C4B1B8819
:102050003380B8F80030032B0ED01848FFF7C8FAC9
:10206000174BB6F90000B3F90020824204D00022D9
:102070000B211880FFF784FA238843B10121002047
:10208000FEF7D4FE1948FEF79DFE002323800F4E75
:102090003388022B3FF478AFDFF838800020B8F89F
:1020A0000210FFF7D5F9B8F80000FFF7B7F90223DF
:1020B00069E7012A04BF00221A80B3E7100000205C
:1020C00004000020A20700201C57000898070020E9
:1020D000DE0400207C070020A80700202857000805
:1020E00000000240AC070020B6040020345700086E
:1020F000B004002000289ED1A04B1A88A04B1A8063
:1021000099E701280AD19E4E002333809D4BB3F9F5
:102110000030002BB0D1388020805CE70228ABD1A2
:10212000974E00233380974BB3F90030002BA3D197
:1021300063E7954E33880A2B3FF601AEDFE813F0D4
:102140000B006A00C1003C01B1010A026302D60221
:1021500031038703D6032388DFF858820BB3FFF7D8
:1021600097F8D8F800301844C8F80000FEF740FE91
:1021700000210320FEF75AFE8448FEF723FE0121CA
:102180000020FEF753FE8248FEF71CFE814B1888A4
:10219000022170BBFEF74AFE7F48FEF713FE0023C4
:1021A0002380FFF775F87D4B1A6810441860D8F843
:1021B0000030984214D0C8F80000DFF8D881B8F891
:1021C00000A00221BAF1000F18D15046FEF72EFEF2
:1021D0007348FEF7F7FD012388F8003088F801A066
:1021E000FFF72AFA01287FF4AAAD33880133338040
:1021F00057E60020FEF71AFE6948CEE70020FEF7FA
:1022000015FE6848FEF7DEFD002388F8003088F8E8
:102210000130E5E72388DFF89C810BB3FFF738F83E
:10222000D8F800301844C8F80000FEF7E1FD00219E
:102230000320FEF7FBFD5548FEF7C4FD01210020F9
:10224000FEF7F4FD5848FEF7BDFD524B58880221B9
:1022500030BBFEF7EBFD5048FEF7B4FD00232380B2
:10226000FFF716F84D4B1A6810441860D8F8003084
:102270009842B5D0C8F80000DFF81881B8F802A07D
:102280000221BAF1000F10D15046FEF7CFFD4448AD
:10229000FEF798FD012388F8023088F803A09FE735
:1022A0000020FEF7C3FD3E48D6E70020FEF7BEFD46
:1022B0003C48FEF787FD002388F8023088F8033099
:1022C0008EE72388DFF8EC802BB3FEF7E1FFD8F828
:1022D00000301844C8F80000FEF78AFD00210320F2
:1022E000FEF7A4FD2948FEF76DFD01210020FEF751
:1022F0009DFD2E48FEF766FD264B022298880021A0
:10230000FEF7E8FF02210820FEF790FD2848FEF7BF
:1023100059FD00232380FEF7BBFF204B19684218AC
:102320001A60D8F800309A423FF45AAF1948D31ACD
:102330008188C8F8002003EB830303EB830301EBE0
:10234000830399B28380A1F164039BB248F65302E0
:10235000934209D9642303710023437180880222C8
:102360000021FEF7B7FF3BE743F698239942F5D9E2
:102370006FF0670303713A23EFE700BF040000200A
:1023800010000020B6040020B404002040570008CC
:102390004E5700087C07002063570008000000200B
:1023A000705700087D5700088A5700089C5700089E
:1023B000B1570008080000202388DFF82CB343B38E
:1023C000FEF766FFDBF800301844CBF80000FEF79C
:1023D0000FFD00210320FEF729FDB948FEF7F2FCAE
:1023E00001210020FEF722FDB648FEF7EBFCB64BBC
:1023F000D3F80630022100EE103A0020FEF7DEFF8F
:1024000002210A20FEF712FDB048FEF7DBFC002394
:102410002380FEF73DFFAE4B1A6800EB0208DBF8A5
:102420000000C3F8008080453FF4DAAEA8EB00005E
:10243000FEF7AAF9A0A3D3E90023FDF729FFDFF8EF
:1024400088A2FEF793FADAF80630CBF8008007EEA0
:10245000900A08EE103A37EE888A18EE103A18EE15
:10246000100ACAF80630FEF7A1F993A3D3E90023B6
:10247000FEF754FA58B1974BCAF80630DAF806302E
:10248000022100EE103A0020FEF798FFA8E6F2EED7
:10249000047AB4EEE78AF1EE10FAEFDD17EE903A27
:1024A000EAE72388DFF840822BB3FEF7F1FED8F885
:1024B00000301844C8F80000FEF79AFC0021032001
:1024C000FEF7B4FC7E48FEF77DFC01210020FEF7FC
:1024D000ADFC8148FEF776FC7B4B02225889002137
:1024E000FEF7F8FE02210A20FEF7A0FC7B48FEF76B
:1024F00069FC00232380FEF7CBFE754B1968421858
:102500001A60D8F800309A423FF46AAE6E48D31A87
:102510004189C8F8002003EB830303EB830301EB3D
:10252000430399B24381A1F164039BB245F2770260
:10253000934207D9642383720023C3724089022225
:1025400000210EE7B1F52F7FF8D96FF043038372B6
:102550000223F2E72388DFF890812BB3FEF798FE81
:10256000D8F800301844C8F80000FEF741FC0021FC
:102570000320FEF75BFC5248FEF724FC01210020FB
:10258000FEF754FC5648FEF71DFC4F4B022298897B
:102590000021FEF79FFE02210A20FEF747FC4F486C
:1025A000FEF710FC00232380FEF772FE484B1968EB
:1025B00042181A60D8F800309A423FF411AE4248EF
:1025C000D31A8189C8F8002003EB830303EB83034C
:1025D00001EB430399B28381A1F132039BB245F22F
:1025E000A902934207D932230373002343738089DE
:1025F00002220021B5E6B1F52F7FF8D96FF0430331
:1026000003730223F2E72388DFF8DC802BB3FEF7A5
:102610003FFED8F800301844C8F80000FEF7E8FB89
:1026200000210320FEF702FC2548FEF7CBFB012129
:102630000020FEF7FBFB2B48FEF7C4FB224B0222D7
:10264000588A0021FEF746FE02210A20FEF7EEFB23
:102650002248FEF7B7FB00232380FEF719FE1C4B30
:102660001A6810441860D8F8003098423FF4B8ADAA
:10267000C31A03EB8302144B598AC8F8000001EB1C
:10268000420291B209295A8208D95A8944F61F6038
:1026900010FA82F088421FFA82FC07DA0A229A7442
:1026A0000022DA74588A022200215AE6614588BF66
:1026B0005A82F7E7AFF300807B14AE47E17A843F9C
:1026C00040570008BD5700087C070020CE5700087F
:1026D000000000200AD7233CD7570008E95700081C
:1026E000F257000805580008080000202388DFF88A
:1026F000AC822BB3FEF7CCFDD8F800301844C8F8F4
:102700000000FEF775FB00210320FEF78FFB9548C4
:10271000FEF758FB01210020FEF788FB9248FEF7E8
:1027200051FB924B0222D8890021FEF7D3FD0221F2
:102730000A20FEF77BFB8E48FEF744FB0023238034
:10274000FEF7A6FD8B4B196842181A60D8F80030C6
:102750009A423FF445AD8548D31AC189C8F8002094
:1027600003EB830303EB830301EB830399B2C38180
:10277000A1F57A739BB245F6BF52934208D96FF028
:10278000170383730323C373C08902220021E8E582
:1027900041F288339942F7D96FF07703837313239B
:1027A000F1E72388DFF8F4812BB3FEF771FDD8F849
:1027B00000301844C8F80000FEF71AFB002103207F
:1027C000FEF734FB6748FEF7FDFA01210020FEF713
:1027D0002DFB6948FEF7F6FA644B0222188A0021A5
:1027E000FEF778FD02210A20FEF720FB6048FEF785
:1027F000E9FA00232380FEF74BFD5E4B1A68104474
:102800001860D8F8003098423FF4EAACC31A03EBE2
:102810008302564B198AC8F8000001EB420291B2BC
:102820001A82A1F1140292B244F63770824207D99B
:1028300014221A7400225A74188A0222002190E588
:10284000B1F5967FF8D92C221A740122F3E7238878
:10285000DFF848810BB3FEF71BFDD8F800301844B1
:10286000C8F80000FEF7C4FA00210320FEF7DEFAE4
:102870003C48FEF7A7FA01210020FEF7D7FA3F48AF
:10288000FEF7A0FA3E4B1888022118BBFEF7CEFADD
:102890003C48FEF797FA00232380FEF7F9FC354BFE
:1028A0001A6810441860D8F8003098423FF498AC89
:1028B000C8F80000DFF8C880B8F80000022170B145
:1028C0000020FEF7B3FA2F48FEF77CFA0023A8F8A1
:1028D000003085E40020FEF7A9FA2B48D9E7FEF77F
:1028E000A5FA2948FEF76EFA0123F0E7244B198870
:1028F00001292BD11D4BD9F80000019100221A7536
:102900005A75FEF70FFF0199064678B1FEF770FA87
:1029100005200199FEF78AFA1C48FEF753FA40F2A7
:10292000DC5000F0BFFA0023FFF74EBA0191FEF72A
:102930005FFA01993046FEF779FA1548FEF742FA38
:1029400007200221FEF772FA1248E6E7FEF750FA76
:1029500001210320FEF76AFA0F48FEF733FA4FF41D
:10296000FA60DEE740570008175800087C0700208F
:102970002158000800000020265800083858000898
:102980009A0700204B5800085D5800086F5800084F
:102990007A5800088F580008965800080800002050
:1029A00082B00C4B002100915A6C42F480425A6470
:1029B0005A6C02F480420092009A01911A6C42F023
:1029C00080521A641B6C03F080530193019B02B088
:1029D000704700BF0038024010B5044688B014228A
:1029E000002103A802F0F6F92268124B9A421ED188
:1029F00003F58C33002101915A6C0F4842F4807228
:102A00005A645A6C02F480720192019A02911A6B14
:102A100042F002021A631B6B03F002030293029B53
:102A20000222032303A9CDE9032300F0ABFD08B084
:102A300010BD00BF002001400004024030B5044634
:102A400089B01422002103A802F0C4F92268144BB3
:102A50009A4222D1134C144800250195236B43F070
:102A600002032363236B03F002030193019B4FF4E2
:102A700040721223CDE9032303210423CDE9061379
:102A800003A900F07FFD0295236C43F40013236437
:102A9000236C03F400130293029B09B030BD00BF06
:102AA00000540040003802400004024010B50446C3
:102AB00088B01422002103A802F08CF922681F4B71
:102AC0009A4239D103F59C3300220192596C1C487B
:102AD00041F001015964596C01F001010191019922
:102AE0000292196B41F0010119631B6B03F00103A2
:102AF00002934FF44072029B0223CDE9032303A902
:102B00000123079300F03EFD00221146182000F03B
:102B100027FB182000F056FB00221146192000F078
:102B20001FFB192000F04EFB00221A20114600F076
:102B300017FB1A2000F046FB08B010BD0000014052
:102B40000000024010B504468EB01422002109A8EE
:102B500002F040F92368B3F1804F0DD100230193B7
:102B6000484B1A6C42F001021A641B6C03F001031B
:102B70000193019B0EB010BD434A93421FD1414BBC
:102B80004248002102911A6C42F004021A641A6C45
:102B900002F004020292029A03911A6B42F00202BE
:102BA0001A631B6B03F002030393039B802202232F
:102BB000CDE909230D9309A900F0E4FCDAE7344AD2
:102BC00093421DD12F4B3348002104911A6C42F0DF
:102BD00008021A641A6C02F008020492049A059121
:102BE0001A6B42F001021A631B6B03F00103059399
:102BF000059B0223CDE90933CDE90C3309A9DBE7B5
:102C0000254A934213D11F4B00220692596C41F47E
:102C1000803159645B6C03F48033069318201146AD
:102C2000069B00F09DFA182000F0CCFAA2E71B4AA0
:102C3000934211D1134B00220792596C41F4003199
:102C400059645B6C03F40033079319201146079B0A
:102C500000F086FA1920E7E7114A93428AD1094B1E
:102C600000220892596C41F4802159645B6C03F492
:102C7000802308931A201146089B00F071FA1A204D
:102C8000D2E700BF003802400008004000040240C4
:102C9000000C0040000002400040014000440140A0
:102CA0000048014010B5044686B01422002101A856
:102CB00002F090F82368B3F1804F15D10023009300
:102CC0000A4B0B481A6B42F001021A631B6B03F0AC
:102CD000010300930222009B01A90123CDE90132E7
:102CE000CDE9042300F04EFC06B010BD00380240D0
:102CF00000000240FEE7FEE7FEE7FEE7FEE7704762
:102D00007047704700F0BCB808B5044801F005FBF7
:102D1000BDE80840024801F000BB00BF7C05002070
:102D20002C07002008B5044801F0F7FABDE8084078
:102D3000024801F0F2BA00BF7C050020C405002063
:102D400008B5044801F0E9FABDE80840024801F07E
:102D5000E4BA00BF7C0500200C0600200B4A116875
:102D600010B5034609B90A491160106809490A4CAF
:102D70000344091B8B4206D901F0F4FF0C230360C6
:102D80004FF0FF3010BD1360FCE700BFB00700201C
:102D9000E80700200000012000040000034AD2F8E8
:102DA000883043F47003C2F88830704700ED00E0CB
:102DB000DFF834D00D480E490E4A002302E0D45803
:102DC000C4500433C4188C42F9D30B4A0B4C002373
:102DD00001E013600432A242FBD3FFF7DFFF01F0F2
:102DE000C7FFFEF7EDFC7047000001200000002047
:102DF000840000200059000884000020E80700201B
:102E0000FEE7000038B50E4A0E4B054618784FF421
:102E10007A73B3FBF0F31068B0FBF3F000F0E0F965
:102E2000044658B90F2D09D8024629464FF0FF3005
:102E300000F096F9044B20461D6038BD0120FCE7E8
:102E400014000020180000201C00002008B50B4BC7
:102E50001A6842F400721A601A6842F480621A60BA
:102E60001A6842F480721A60032000F067F90F209C
:102E7000FFF7C8FFFFF794FD002008BD003C0240AB
:102E8000034A044B11681B780B441360704700BF62
:102E9000B407002018000020014B1868704700BFDD
:102EA000B407002038B50446FFF7F6FF631C1CBFCB
:102EB000054B1B78054618BFE418FFF7EDFF431BD1
:102EC000A342FAD338BD00BF1800002038B504462D
:102ED000002800F09B80056C25B9FFF77DFD656437
:102EE00084F83C50236CDB0600F18E80236C23F4C5
:102EF000885323F0020343F002032364444B5A68CF
:102F000022F440325A605A6861680A435A60236862
:102F100021695A6822F480725A605A6842EA012292
:102F20005A605A68A16822F040725A605A680A438F
:102F30005A609A68E16822F400629A609A680A43CB
:102F40009A603449A26A8A4252D0996821F070612D
:102F5000996099680A439A609A68E16A22F040523F
:102F60009A609A680A439A609A6822F002029A600C
:102F70009A68217E42EA41029A6094F82020002A51
:102F80003ED05A68616A42F400625A605A6822F47C
:102F900060425A605A68013942EA41325A60DA6A3C
:102FA000E16922F47002DA62DA6A013942EA015216
:102FB000DA629A6822F400729A609A6894F8301083
:102FC00042EA41229A609A68616922F480629A60BA
:102FD0009A68002042EA81229A606064236C23F0A0
:102FE000030343F001032364002384F83C3038BD1D
:102FF0009A6822F070629A609A6822F04052B2E7B2
:103000005A6822F40062C9E70120EDE70120EEE7EB
:10301000002301400100000FF7B50023019390F851
:103020003C30012B66D0012380F83C300D680368EA
:103030008E68092DACB231D904EB4402DF681E3A28
:103040004FF0070C0CFA02FC27EA0C07DF60DF6880
:1030500006FA02F23A43DA604968062901EB810276
:103060002CD8596B053A1F26964021EA0601596370
:10307000596B04FA02F20A435A632C4A934207D16D
:10308000122D39D1D2F8043343F48003C2F804334B
:10309000002380F83C30184603B0F0BD1F6905EBF3
:1030A00045024FF0070C0CFA02FC27EA0C071F61DF
:1030B0001F6906FA02F23A431A61CDE70C294FF074
:1030C0001F010BD81E6B233A914026EA01011963B8
:1030D000196B04FA02F20A431A63CEE7DE6A413A38
:1030E000914026EA0101D962D96A04FA02F20A4340
:1030F000DA62C2E70220CFE7A5F11003012BC7D89F
:103100000B4A5368102D43F400035360C0D1094BA0
:10311000094A1B68B3FBF2F30A2253430193019B54
:10312000002BB5D0019B013BF8E700BF0020014018
:10313000002301401400002040420F000749CA68E4
:1031400022F4E0620302120403F4E063120C13435E
:1031500043F0BF6343F40033CB60704700ED00E001
:10316000164B30B5DC68C4F30224C4F10705231DF7
:10317000042D28BF0425062B4FF0FF338CBF033CE2
:10318000002403FA05F521EA0501A34022EA03021F
:10319000A140002841EA0203ACBF00F16040084AA8
:1031A0004FEA0313B8BF00F00F00DBB2AABF00F56F
:1031B0006140135480F8003330BD00BF00ED00E0E3
:1031C00014ED00E0002808DB4209012300F01F0095
:1031D00003FA00F0014B43F82200704700E100E0E1
:1031E0000138B0F1807F0BD24FF0E023054A5861DF
:1031F000F02182F823100020072298611A6170479D
:103200000120704700ED00E0094910B50C6924F475
:1032100040740C610C6944F440740C610C6944F016
:1032200001040C610260BFF36F8F436010BD00BFEB
:10323000003C0240074B1A6922F440721A611A6975
:1032400042F400721A611A6942F001021A610160C7
:10325000704700BF003C0240074B1A6922F44072DD
:103260001A611A6942F480721A611A6942F0010205
:103270001A610180704700BF003C0240204BDA68B1
:10328000D00606D51F49CA6942F01002CA61102251
:10329000DA60DA68910606D51A49CA6942F008026E
:1032A000CA612022DA60164BDA68520606D5154943
:1032B000CA6942F00402CA614022DA60DA68100684
:1032C00006D51049CA6942F00202CA618022DA605A
:1032D0000B4BDA68D10507D50A49CA6942F00102E9
:1032E000CA614FF48072DA60DA68920706D5054940
:1032F000CA6942F02002CA610222DA60704700BF48
:10330000003C0240B8070020064B1A69002ABFBFE4
:10331000054A5A6002F188325A60BABF1869C00F74
:1033200000207047003C024023016745034A1369AF
:1033300043F0004313610020704700BF003C02408F
:10334000114B70B500220446DA61FFF7A5FD0F4D61
:103350000646EB68DA030CD4EB68DB0744BF0123B5
:10336000EB60E86810F4F97007D0FFF787FF0120E1
:1033700003E0611CEDD00CB9032070BDFFF78CFD9C
:10338000801BA042E5D9F7E7B8070020003C0240C7
:10339000F7B5204E01931446327E012A07460D46AA
:1033A00035D001224CF250303276FFF7C9FFB8B960
:1033B000019BCFB9184B1A6922F440721A611A693D
:1033C0001A611A69E4B242F001021A612C704CF2DF
:1033D0005030FFF7B5FF104A136923F00103136162
:1033E0000023337603B0F0BD012F04D1A1B22846EB
:1033F000FFF732FFEBE7022F04D121462846FFF703
:1034000019FFE4E722462846FFF7FEFEDFE7022029
:10341000E8E700BFB8070020003C0240074B1969ED
:1034200021F440711961196941F0040119611A69A7
:1034300042EA002040F4803018617047003C0240AE
:1034400039B101291CD002290CBF4FF400714FF48F
:1034500040710D4B1A6922F440721A611A691143C6
:1034600019611A6922F0F8021A611A6942EAC00069
:1034700040F0020018611A6942F480321A61704704
:103480004FF48071E5E700BF003C0240144B1A681E
:1034900091050FD51A6822F400721A601A6842F476
:1034A00000621A601A6822F400621A601A6842F414
:1034B00000721A600A4B1A6852050FD51A6822F476
:1034C00080621A601A6842F480521A601A6822F404
:1034D00080521A601A6842F480621A60704700BF16
:1034E000003C02402DE9F843DFF8948098F818304A
:1034F000012B05460F463FD001234CF2503088F88F
:103500001830FFF71DFF0446A0B94FF0FF333B60B2
:103510002B68012B14D1287CFFF780FF4CF2503030
:10352000FFF70EFF154A136923F0040304461361E5
:10353000FFF7ACFF002388F818302046BDE8F88379
:10354000AE68DFF83890D5E902231344B342EFD9CF
:10355000297C3046FFF774FF4CF25030FFF7F0FE45
:10356000D9F8103023F0FA03C9F8103010B13E60DA
:103570000446DDE70136E6E70224DEE7003C0240D0
:10358000B80700202DE9F74FDFF884915E4A002349
:103590000D6801249C4004EA050CAC4340F0A58072
:1035A0004D6805F003044FEA43080326671E06FA38
:1035B00008F6012F6FEA060634D8876807EA060E78
:1035C000CF6807FA08F747EA0E078760476827EAD7
:1035D0000C0EC5F300179F4047EA0E074760C76807
:1035E00007EA060E8F6807FA08F747EA0E07022C6B
:1035F000C76019D14FEAD30A00EB8A0A03F0070B20
:10360000DAF820704FEA8B0B4FF00F0E0EFA0BFE1C
:1036100027EA0E0E0F6907FA0BF747EA0E07CAF8FA
:10362000207001E0032CDAD1076804FA08F43E4068
:10363000264315F4403F066057D04FF0000ACDF8FE
:1036400004A0D9F84460314C46F48046C9F844607F
:10365000D9F8446006F480460196019E23F00306E3
:1036600006F1804606F59C3603F0030ED6F8088076
:103670004FEA8E0E0F2707FA0EF7A04228EA070737
:103680003AD004F58064A04238D004F58064A042AA
:1036900036D004F58064A04234D004F58064A042A2
:1036A0000CBF0424072404FA0EF43C43B46094686D
:1036B0006FEA0C06EF0254BF34404CEA04049460F5
:1036C000D468AF0254BF34404CEA0404D460546858
:1036D000AF0354BF34404CEA040454601468ED0353
:1036E00054BF34404CEA040414600133102B7FF4BF
:1036F0004FAF03B0BDE8F08F5446D4E70124D2E7C2
:103700000224D0E70324CEE7003C01400000024041
:10371000003802400369194214BF0120002070479D
:103720000AB1816170470904FBE701684B6913F432
:1037300080634FF0000210D06FF480634B61202350
:10374000026380F83D3080F83E20036C80F83C2016
:1037500043F00403036401207047184670472DE9C5
:10376000F84606460F4691461D464FEA114A336811
:10377000BAF1010F0CBF5C699C6927EA0404A4B28A
:10378000B4FA84F46409A14501D0002017E06A1C52
:10379000EED0FFF781FB089BC01AA84201D8002D8C
:1037A000E5D100232022336386F83D2086F83E30A1
:1037B000326C86F83C3042F0200232640120BDE8D1
:1037C000F8862DE9F04104460F46164698462568CE
:1037D000686927EA000080B2B8B16B695A0516D54E
:1037E0002B6843F400732B606FF480636B612022BD
:1037F0000023236384F83D2084F83E30226C42F09D
:103800000402226484F83C300120BDE8F081731C7E
:10381000DED0FFF741FBA0EB0800B04201D8002E3C
:10382000D5D100232022236384F83D2084F83E3044
:10383000226C42F02002E4E770B504460D461646BD
:1038400023685B695B0701D5002070BD2046FFF748
:103850006CFFA8B96A1CF3D0FFF71EFB801BA842BF
:1038600001D8002DECD100232022236384F83D20D1
:1038700084F83E30226C84F83C3042F0200222640E
:103880000120E2E770B504460D46164623685B69E1
:103890001B0601D5002070BD2046FFF746FFA8B9E2
:1038A0006A1CF3D0FFF7F8FA801BA84201D8002D5C
:1038B000ECD100232022236384F83D2084F83E309D
:1038C000226C84F83C3042F0200222640120E2E7BE
:1038D00070B5044608B9012070BD90F83D3003F082
:1038E000FF021BB980F83C20FFF7A8F8242384F8D6
:1038F0003D3023681A6822F001021A601A6842F407
:1039000000421A601A6822F400421A6000F0DAFBE2
:103910003F4B65689D4294BF3E4B3F4B98428CBFE6
:1039200000230123002BD6D12268394E53683B492E
:10393000B0FBF1F123F03F030B43B542536088BF66
:103940004FF49676136A88BF714323F03F0384BF18
:103950004FF47A76B1FBF6F1013119431162D16966
:10396000431E2B4821F44F41854221F0FF0132D8FC
:103970006D0040F6FC70B3FBF5F30133034242D017
:10398000C3F30B030B43D361D4E90730116803433E
:1039900021F0C0010B4313609168D4E9030321F4C3
:1039A0000341034321F0FF010B439360D4E9053049
:1039B000D168034321F0FF010B43D360136843F048
:1039C0000103136000202023206484F83D3020632D
:1039D00084F83E0080E7A06850B905EB4505B3FBCD
:1039E000F5F30133C3F30B037BB143F40043C9E7A1
:1039F00019204543B3FBF5F30133C3F30B0323B1A4
:103A000043F44043BEE70423BCE70123BAE700BF09
:103A1000A08601007F841E00FF083D0040420F0089
:103A20002DE9F043044685B098460C9F0D4691461B
:103A3000FFF732FA94F83D30202B064604D00225D9
:103A4000284605B0BDE8F08300905D4919230122A6
:103A50002046FFF784FE0028F1D194F83C30012B7A
:103A6000EDD02168012384F83C300B68DA075EBF93
:103A70000B6843F001030B600B6823F400630B60D9
:103A8000212384F83D30102384F83E300023236442
:103A9000A4F82A80638D23854A4BE362E36AC4F865
:103AA0002490082B04D0012B02D013F5803F04D1C1
:103AB0000B6843F480730B6002E0236B122BF7D08A
:103AC000002200963B464FF001112046FFF747FECB
:103AD000226838B11368DB0544BF4FF400732364D8
:103AE0000125ADE72369B3F5804F21D105F0FE052F
:103AF0001561354933463A462046FFF762FE0546D2
:103B00000028EDD1236803905A6903929B690393BF
:103B1000039B238DF3B921680A6842F400720A609E
:103B2000202284F83D2084F83C3084F83E3087E73A
:103B3000EB1103F0060343F0F0031361234933460E
:103B40003A462046FFF73DFE0028C9D12368EDB272
:103B50001D61CEE7324639462046FFF793FE40B15D
:103B6000236C042BBCD12268136843F400731360E8
:103B7000B6E7636A20681A4612F8011B01616262A7
:103B8000628D013A92B26285228DD0F814C0511E26
:103B900089B21CF0040F21850AD049B1597801611E
:103BA00002336362638D013B9BB2023A63852285D7
:103BB000324639462046FFF73FFE0028A9D0CFE71E
:103BC000020010000000FFFF0200010008000100D9
:103BD0002DE9F341044640B30368DD0710D42368A0
:103BE00098075ED423681A0700F1A08023685B075A
:103BF00000F1C080A069002840F0288100202BE05F
:103C00008F4B9A6802F00C02042A07D09A6802F0DF
:103C10000C02082A0BD15A68510208D5884B1B6840
:103C20009A03DCD56368002BD9D1012014E06268C7
:103C3000B2F5803F13D11A6842F480321A60FFF760
:103C40002BF97F4E054633689B03C8D4FFF724F950
:103C5000401B6428F7D9032002B0BDE8F081784DFD
:103C6000B2F5A02F2B6807D143F480232B602B687B
:103C700043F480332B60E2E723F480332B602B681E
:103C800023F480232B60002AD9D1FFF705F90646DB
:103C90002B689F03A3D5FFF7FFF8801B6428F7D993
:103CA000D9E7674B9A6812F00C0F07D09A6802F0B8
:103CB0000C02082A11D15B685E020ED4604A1368B8
:103CC0009D0702D5E368012BAFD11368216923F06A
:103CD000F80343EAC103136084E7E268594BB2B1C9
:103CE00001221A60FFF7D8F8554D06462B68980751
:103CF00007D52B68226923F0F80343EAC2032B603F
:103D000070E7FFF7C9F8801B0228EFD9A3E71A6014
:103D1000FFF7C2F84A4E0546336899077FF562AF50
:103D2000FFF7BAF8401B0228F6D994E76269454BC1
:103D300082B10122C3F8802EFFF7AEF8404E05464F
:103D4000736F9F073FF552AFFFF7A6F8401B02289D
:103D5000F6D980E7C3F8802EFFF79EF8384E054667
:103D6000736F98077FF542AFFFF796F8401B022864
:103D7000F6D970E7324B1A6C12F0805228D10192BA
:103D80001A6C42F080521A641B6C03F0805301934A
:103D9000019B01272C4D2B68D9051BD5A368284D05
:103DA000012B27D12B6F43F001032B67FFF774F82A
:103DB000234E054641F28838336F9B0739D5002FD3
:103DC0003FF418AF1E4A136C23F08053136411E7BD
:103DD0000027DFE72B6843F480732B60FFF75CF864
:103DE00006462B68DA05D9D4FFF756F8801B02285F
:103DF000F7D930E7052B04D12B6F43F004032B6771
:103E0000D0E72A6F22F001022A672A6F22F004020B
:103E10002A67002BCAD1FFF73FF841F288380646DF
:103E20002B6F9807CBD5FFF737F8801B4045F7D9A4
:103E300011E7FFF731F8401B4045BDD90BE700BF44
:103E4000003802400000474200700040364DAB6829
:103E500003F00C03082B3DD0344B002202281A66D5
:103E60002BD1FFF719F806462B6899011FD4D4E926
:103E700007321343626A43EA8213E26A43EA026347
:103E8000A26A5208013A43EA02436B60274B264D6F
:103E900001221A66FFF700F804462B689A013FF5E5
:103EA000ADAEFEF7F9FF001B0228F6D9D3E6FEF708
:103EB000F3FF801B0228D7D9CDE6FEF7EDFF0446BD
:103EC0002B689B017FF59AAEFEF7E6FF001B0228E8
:103ED000F6D9C0E601283FF4BFAE6B68E26903F48F
:103EE000800191427FF4A1AE216A03F03F028A4231
:103EF0007FF49BAE616A47F6C0721A40B2EB811F35
:103F00007FF493AEA26A520803F44031013AB1EB58
:103F1000024F7FF48AAEE26A03F07063B3EB026F84
:103F20003FF46CAE81E600BF00380240000047421B
:103F3000134908B58B6803F00C03042B1CD0082B25
:103F40001CD14A684B68496813F4800314BF0D48BC
:103F50000D48C1F3881118BF002302F03F02A1FBF6
:103F60000001FCF753FD064B5B68C3F301430133CB
:103F70005B00B0FBF3F008BD0248FCE70248FAE73B
:103F80000038024040787D010024F4002DE9F04122
:103F90000D46044610B90120BDE8F081444B1A6873
:103FA00002F007028A4228D3226897072DD4D0074F
:103FB00041D43F4B1A6802F00702AA4266D8226831
:103FC00051076CD4130707D53A4A2169936823F443
:103FD000604343EAC1039360FFF7AAFF354B364ABB
:103FE0009B68C3F30313D35CD840344B1860344B45
:103FF0001868FEF707FF0020CEE7CAB21A701B68E8
:1040000003F007038B42C6D1CEE72A4B12F0040F10
:104010001EBF996841F4E0519960160742BF996844
:1040200041F4604199602349A0688B6823F0F00354
:1040300003438B60BBE762681E4B012A1CD11B68DF
:1040400013F4003FA7D01B4EB36823F003031343C0
:10405000B360FEF721FF41F288380746B368626813
:1040600003F00C03B3EB820FA3D0FEF715FFC01BC8
:104070004045F3D903208FE7911E01291B6802D820
:1040800013F0007FDEE713F0020FDBE7EAB21A70ED
:104090001B6803F00703AB427FF47DAF8FE7054950
:1040A000E0688B6823F4E05303438B608AE700BF2A
:1040B000003C024000380240A558000814000020CF
:1040C0001C000020044B054A9B68C3F38223D35C89
:1040D000034A1068D840704700380240B5580008BD
:1040E00014000020036A23F001030362036A70B521
:1040F000446882690D6822F073022A438D6823F0B8
:1041000002032B430A4DA8420BD1CD6823F00803CC
:104110002B43D1E9055624F44074354323F00403BE
:104120002C43446082614A684263036270BD00BFF1
:1041300000000140036A23F480730362036A70B5D0
:104140004468C2690D6822F073022A438D6823F423
:10415000007343EA05230B4DA8420DD1CD6823F42B
:10416000006343EA0523D1E9055624F4405435435E
:1041700023F4806344EA05144460C2614A68C26360
:10418000036270BD00000140036A23F480530362A0
:10419000036A30B54468C2690D6822F4E64242EA17
:1041A00005228D6823F4005343EA0533064DA842E7
:1041B00002BF4D6924F4804444EA85144460C2611E
:1041C0004A680264036230BD0000014090F83D304F
:1041D000012B28D1022380F83D300368DA6842F0D1
:1041E0000102DA60114A934212D0B3F1804F0FD02E
:1041F000A2F57C4293420BD002F58062934207D035
:1042000002F58062934203D002F59A32934204D1C0
:104210009A6802F00702062A03D01A6842F00102E7
:104220001A60002070470120704700BF0000014065
:104230007047704730B590F83E2090F83F3090F8C6
:10424000425090F84340D2B2DBB2EDB2E4B2E9B9E9
:10425000012A5AD1012D5AD1022380F83E3080F82C
:10426000423003681A6A22F001021A621A6A42F0A6
:1042700001021A62DA6842F00202DA600268136828
:1042800043F0010313600023184630BD042915D103
:10429000012B3AD1012CF7D1022380F83F3080F86E
:1042A000433003681A6A22F010021A621A6A42F056
:1042B00010021A62DA6842F00402DEE7012A24D111
:1042C000012B24D1012DDFD1012CDDD1022380F877
:1042D0003E3080F83F3080F8423080F84330036849
:1042E0001A6A22F001021A621A6A42F001021A6284
:1042F0001A6A22F010021A621A6A42F010021A6256
:10430000DA6842F00202DA60D4E70123BCE7134620
:10431000BAE7704770477047704703681A6991079A
:1043200010B504460ED5DA6892070BD56FF002027D
:104330001A61012202779B699B0777D0FFF7EAFF9A
:104340000023237723681A69500710D5DA685107CC
:104350000DD56FF004021A61022222779B6913F4D3
:10436000407F204668D0FFF7D5FF002323772368DE
:104370001A6912070FD5DA6810070CD56FF008021A
:104380001A6104222277DB69990720465AD0FFF789
:10439000C1FF0023237723681A69D20610D5DA6893
:1043A000D0060DD56FF010021A6108222277DB6962
:1043B00013F4407F20464BD0FFF7ACFF0023237758
:1043C00023681A69D10708D5DA68D20705D56FF0D6
:1043D00001021A612046FCF727FF23681A691006BC
:1043E00008D5DA68110605D56FF080021A612046FB
:1043F00000F0B7FC23681A69520608D5DA6850063F
:1044000005D56FF040021A612046FFF785FF23684B
:104410001A69910622D5DA6892061FD56FF020023C
:1044200020461A61BDE8104000F09ABCFFF771FF0A
:104430002046FFF770FF83E7FFF76BFF2046FFF78B
:104440006AFF92E7FFF765FF2046FFF764FFA0E7EA
:10445000FFF75FFF2046FFF75EFFAFE710BD0000EC
:10446000244A036890420ED0B0F1804F0BD0A2F5E1
:104470007C42904207D002F58062904203D002F560
:104480008062904215D14A6823F070031343194AA1
:10449000904219D0B0F1804F16D0A2F57C429042E4
:1044A00012D002F5806290420ED002F580629042F6
:1044B0000AD0114A904207D002F58062904203D0A0
:1044C00002F58062904203D1CA6823F4407313431B
:1044D0004A6923F08003134303608B68C3620B684F
:1044E0008362044B984204BF0B6903630123436159
:1044F000704700BF000001400040014010B5044675
:1045000030B390F83D3003F0FF021BB980F83C2037
:10451000FEF718FB0223206884F83D30211DFFF7C9
:104520009FFF012384F84630002084F83E3084F851
:104530003F3084F8403084F8413084F8423084F8C9
:10454000433084F8443084F8453084F83D3010BD61
:104550000120FCE710B5044630B390F83D3003F07D
:10456000FF021BB980F83C20FFF762FE022320689F
:1045700084F83D30211DFFF773FF012384F8463096
:10458000002084F83E3084F83F3084F8403084F8CE
:10459000413084F8423084F8433084F8443084F861
:1045A000453084F83D3010BD0120FCE710B50446CD
:1045B00030B390F83D3003F0FF021BB980F83C2087
:1045C000FFF737FE0223206884F83D30211DFFF7F6
:1045D00047FF012384F84630002084F83E3084F8F9
:1045E0003F3084F8403084F8413084F8423084F819
:1045F000433084F8443084F8453084F83D3010BDB1
:104600000120FCE7F8B50D46044600284DD090F88F
:104610003D3003F0FF021BB980F83C20FEF746FA5C
:104620002146022384F83D3051F8040B836823F4BB
:10463000804323F007038360FFF712FF20682A6896
:1046400086688369A968076A1643AA6923F44073D8
:1046500041EA022123F003030B4323F47C422B693C
:10466000E9691B0143EA0123E9680B43296A22F047
:10467000FC0243EA01331343696927F0AA026F6819
:10468000866047EA0117836117430123076284F8B4
:104690004630002084F83E3084F83F3084F84230C1
:1046A00084F8433084F83D30F8BD0120FCE7000079
:1046B000036A23F010030362036A70B544688269D9
:1046C0000D6822F4E64242EA05228D6823F02003B9
:1046D00043EA05130B4DA8420DD1CD6823F08003AA
:1046E00043EA0513D1E9055624F44064354323F029
:1046F000400344EA8504446082614A68826303623D
:1047000070BD00BF0000014070B590F83C30012B37
:10471000054653D00120082A85F83C003DD006D834
:10472000C2B1042A28D0002385F83C3070BD0C2A81
:10473000F9D12868FFF728FD2B680969DA6942F486
:104740000062DA61DA6922F48062DA61DA6942EAE7
:10475000012231E02868FFF7C5FC2B6809699A69D6
:1047600042F008029A619A6922F004029A619A69F9
:104770000A439A610020D6E72868FFF799FF2B6863
:1047800009699A6942F400629A619A6922F4806226
:104790009A619A6942EA0122EBE72868FFF7CAFCAE
:1047A0002B680969DA6942F00802DA61DA6922F0F5
:1047B0000402DA61DA690A43DA61DBE70220B5E76D
:1047C00070B5046A164E24F001040462B042846994
:1047D000056A21D0B0F1804F1ED0A6F57C46B042CC
:1047E0001AD006F58066B04216D006F58066B04253
:1047F00012D006F59A36B0420ED044F001021B01E9
:10480000DBB222F0F0021A4301F00A0125F00A039C
:1048100019438261016270BD24F003042243EEE774
:1048200000000140F8B590F83C30012B05460C46DD
:1048300000F08980012085F83C009AB9CB6828688F
:10484000D1E90012FFF7BCFF2B68A1689A6922F03A
:104850000C029A619A690A439A610020002385F844
:104860003C30F8BD042A23D12B681E6A26F01006BE
:10487000D1E90027C9681E6298691E6A20F4407059
:1048800040EA0720090320F4704089B21201014375
:1048900002F0A00226F0A000024399611A629A6910
:1048A000A16822F440629A619A6942EA0122D3E740
:1048B000082A22D12B681E6A26F48076D1E90020CE
:1048C000C9681E62DF691E6A27F0030738430901C1
:1048D00020F0F000C9B21202014302F4206226F473
:1048E00020600243D9611A62DA69A16822F00C02E1
:1048F000DA61DA690A43DA61AFE70C2AAED12B68D4
:104900001E6A26F48056D1E90027C9681E62D8695C
:104910001E6A20F4407040EA0720090320F470402A
:1049200089B21203014302F4204226F420400243DC
:10493000D9611A62DA69A16822F44062DA61DA693F
:1049400042EA0122D7E702208BE710B584681143C1
:1049500024F47F4441EA03232343836010BD70B5F0
:1049600090F83C30012B04464FF0020300F0918098
:10497000012280F83D3080F83C200068836823F4F1
:104980007F4323F0770383600B68602B52D033D8CA
:10499000402B67D016D8202B0DD00AD833F0100149
:1049A00009D0012384F83D30002384F83C301046C0
:1049B00070BD302BF5D1826822F07002134343F0B2
:1049C000070317E0502BECD14A68CE68016A056AEC
:1049D00025F001050562836921F00A0123F0F00347
:1049E00043EA06130A4383610262836823F070037B
:1049F00043F05703836011E0B3F5805F0ED0B3F549
:104A0000005F0DD0702BCCD1CB68D1E90121FFF72D
:104A10009CFF2268936843F0770393600022C0E70D
:104A2000CB68D1E90121FFF790FF2268936843F436
:104A30008043F2E74D68CE68016A21F010010162FF
:104A40008269036A22F4704223F0A00343EA05134B
:104A500042EA063282610362836823F0700343F006
:104A60006703C7E74A68CE68016A056A25F0010551
:104A70000562836921F00A0123F0F00343EA06137B
:104A80000A4383610262836823F0700343F04703A3
:104A9000B0E71A468BE70068826838B54B680C6847
:104AA00022F070021A4322F007022243502B826048
:104AB0002CD010D8402B19D04BD8202B14D005D88F
:104AC00033F0100314BF0120002038BDB3F13000D3
:104AD00018BF0120F9E7602B28D0702B39D10B6962
:104AE000D1E90221FFF731FF0020EEE7052C30D09D
:104AF000026A036A096923F001030362836923F0F0
:104B0000F00343EA011383610262EDE78A680D69ED
:104B1000016A046A24F001040462836921F00A0135
:104B200023F0F00343EA05130A43ECE78C680D69B0
:104B3000016A21F0100101628269036A22F4704265
:104B400023F0A00342EA053243EA041382610362C0
:104B5000CAE70120B9E738B590F83C30012B04468C
:104B60004FF002031CD0012580F83C5080F83D3006
:104B7000FFF791FF30B1002384F83D5084F83C30BA
:104B8000284638BD2368DA6822F04002DA60DA6825
:104B900022F48042DA6084F83D5084F83C00F0E76B
:104BA0001846EEE7036A01F01F0110B501248C409E
:104BB00023EA04030362036A8A401A43026210BDB7
:104BC00010B5044629B990F83E30012B21D00120C0
:104BD00010BD042907D190F83F30012BF7D10223F3
:104BE00084F83F3018E0082907D190F84030012BB5
:104BF000EDD1022384F840300EE090F84130012BD3
:104C0000E5D10429EBD00829F3D0022380F8413004
:104C100002E0022380F83E3001222068FFF7C2FF45
:104C20002368124A93420AD15A6C42F400425A64F1
:104C30009A6802F00702062A13D10020C8E7B3F1F0
:104C4000804FF5D00A4A9342F2D002F58062934237
:104C5000EED002F580629342EAD002F59A32934296
:104C6000E6D01A6842F001021A60E6E7000001404F
:104C700000040040FFF7A4BF38B5044600220068D6
:104C80000D46FFF78FFF2368184A93420DD1196A2A
:104C900041F21112114208D1196A40F24442114204
:104CA00002BF5A6C22F400425A64196A41F211128E
:104CB000114208D1196A40F24442114202BF1A68F7
:104CC00022F001021A6001231DB984F83E30002051
:104CD00038BD042D02D184F83F30F8E7082D0CBF11
:104CE00084F8403084F84130F1E700BF0000014013
:104CF000FFF7C2BF30B590F83C30012B4FF00203F4
:104D00002AD080F83D3003680D685C689A6824F00A
:104D100070042C435C60114CA34212D0B3F1804F5D
:104D20000FD0A4F57C44A3420BD004F58064A342C9
:104D300007D004F58064A34203D004F59A34A3425B
:104D400004D1496822F080020A439A60012380F866
:104D50003D30002380F83C30184630BD0000014053
:104D600070477047014B1868704700BF2000002053
:104D700070B50D4D0D4C641BA4100026A64209D140
:104D80000B4D0C4C00F08EFC641BA4100026A642B8
:104D900005D170BD55F8043B98470136EEE755F84C
:104DA000043B98470136F2E7F8580008F858000825
:104DB000F8580008FC5800080A44914200F1FF33FB
:104DC00000D1704710B511F8014B03F8014F914223
:104DD000F9D110BD02440346934200D1704703F855
:104DE000011BF9E70EB400B59CB01DAB0290069014
:104DF0006FF00041094807910491094953F8042BC9
:104E000005910068019302A900F068F8029B002256
:104E10001A701CB05DF804EB03B07047200000204E
:104E20000802FFFF2DE9F0478E689E4282460C463D
:104E300090461F4638D88A8912F4906F32D0256880
:104E40000969A5EB0109656905EB450505EBD57514
:104E500001334B446D109D4238BF1D46530531D57B
:104E6000294600F055FB064650B90C23CAF800301D
:104E7000A38943F04003A3814FF0FF30BDE8F087E2
:104E800021694A46FFF798FFA38923F4906343F012
:104E90008003A381266165614E44A5EB0905266068
:104EA000A5603E46BE4200D93E4620683246414695
:104EB00000F0A8FAA3689B1BA36023683344236017
:104EC0000020DBE72A4600F097FB06460028E1D1E8
:104ED0002169504600F0B0FAC7E700002DE9F04F15
:104EE00098468B891B069DB007460D4614460ED585
:104EF0000B6963B9402100F00BFB2860286120B9E1
:104F00000C233B604FF0FF30D1E040236B61002366
:104F1000099320238DF82930CDF80C803023DFF859
:104F2000A8818DF82A304FF0010923469A4613F8DC
:104F3000012B0AB1252AF9D1BAEB040B0BD05B4641
:104F4000224629463846FFF76DFF013000F0AA805F
:104F5000099A5A4409929AF80030002B00F0A28076
:104F600000234FF0FF32CDE905230AF1010A049333
:104F700007938DF853301A935446052214F8011BF9
:104F80005148FBF735F9049AD8B9D00644BF20231D
:104F90008DF85330110744BF2B238DF853309AF806
:104FA00000302A2B15D0079A544600204FF00A0CE7
:104FB000214611F8013B303B092B4ED9B0B1079285
:104FC00014E0A0EB080309FA03F313430493A24689
:104FD000D2E7039B191D1B680391002BBBBF5B42EB
:104FE00042F0020207930793B8BF049223782E2B56
:104FF0000CD163782A2B35D1039B1A1D1B680392B1
:10500000002BB8BF4FF0FF3302340593DFF8C8A080
:10501000217803225046FBF7EBF840B14023A0EB88
:105020000A0003FA00F0049B03430134049314F8CC
:10503000011B26488DF828100622FBF7D9F8002816
:1050400038D0234B1BBB039B073323F007030833E4
:105050000393099B3344099367E70CFB02320C4628
:105060000120A5E700230134059319464FF00A0CEF
:10507000204610F8012B303A092A03D9002BC5D05D
:105080000591C3E70CFB012104460123F0E703ABC4
:1050900000932A460F4B04A93846AFF30080421C08
:1050A0000646D6D1AB895B063FF52CAF09981DB0FB
:1050B000BDE8F08F03AB00932A46064B04A938469F
:1050C00000F07AF8EBE700BFBD580008C7580008A9
:1050D00000000000254E0008C35800082DE9F047E5
:1050E000164699468A680B69DDF820809342B8BF5E
:1050F0001346336091F8432007460C460AB101334A
:1051000033602368990642BF3368023333602568F1
:1051100015F0060506D104F1190AE36832689B1AF6
:10512000AB4226DC94F84320131E226818BF0123EB
:1051300092062BD404F1430249463846C047013059
:105140001ED02368E568326803F00603042B08BF0D
:10515000AD1AA36822690CBF25EAE57500259342C4
:10516000C4BF9B1AED1800261A34B5421AD100208C
:1051700008E00123524649463846C047013003D172
:105180004FF0FF30BDE8F0870135C6E7E1185A1C43
:10519000302081F84300224494F8451082F84310EF
:1051A0000233C7E70123224649463846C04701304B
:1051B000E6D00136D9E700002DE9FF470F7E0C9DB0
:1051C000782F914680460C469A4601F1430207D853
:1051D000622F0AD8002F00F0D880582F00F0A3804B
:1051E00004F1420584F842703AE0A7F16303152BFD
:1051F000F6D801A151F823F0515200086552000879
:10520000E1510008E1510008E1510008E1510008B6
:1052100065520008E1510008E1510008E151000821
:10522000E1510008715300089552000853530008DB
:10523000E1510008E151000893530008E1510008D2
:1052400095520008E1510008E15100085B53000845
:105250002B681A1D1B682A6004F1420584F842304D
:105260000123A3E020682968060601F104030AD59A
:105270000E682B60002E03DA2D23764284F843302B
:105280005E480A2319E00E682B6010F0400F18BF2B
:1052900036B2EFE72B682068191D2960010601D599
:1052A0001E6802E04606FBD51E8854486F2F0CBFCF
:1052B00008230A23002184F843106568A560002DA7
:1052C000A2BF216821F0040121600EB9002D4DD04C
:1052D0001546B6FBF3F103FB1167C75D05F8017DC9
:1052E0003746BB420E46F4D9082B0BD12368DE07A4
:1052F00008D5236961689942DEBF302305F8013C77
:1053000005F1FF35521B2261CDF800A04B4603AAE0
:1053100021464046FFF7E2FE01304CD14FF0FF300E
:1053200004B0BDE8F087354881F8457029682368E6
:1053300051F8046B29601D0614D5DF0744BF43F004
:10534000200323601EB9236823F020032360102369
:10535000B0E7236843F0200323607823284884F8CB
:105360004530E3E7590648BFB6B2E6E71546BBE766
:105370002B6826686169181D286035061B6801D5F1
:10538000196002E07006FBD51980002323611546E1
:10539000BAE72B681A1D2A601D686268002128463A
:1053A000FAF726FF08B1401B6060636823610023A1
:1053B00084F84330A8E723692A4649464046D04747
:1053C0000130ABD023689B0713D4E068039B98425D
:1053D000B8BF1846A4E70123324649464046D047A5
:1053E00001309BD00135E36803995B1AAB42F2DCD4
:1053F000EBE7002504F11906F5E700BFCE580008D9
:10540000DF580008884210B501EB020402D984423B
:10541000234607D8431EA14208D011F8012B03F8F8
:10542000012FF8E7024401468A4200D110BD13F86B
:10543000014D02F8014DF7E737B5002944D051F886
:10544000043C0190002BA1F10404B8BFE41800F063
:1054500013F91E4A0198136833B96360146003B0EE
:10546000BDE8304000F00EB9A34208D925686119A3
:105470008B4201BF19685B6849192160EDE71A4644
:105480005B680BB1A342FAD911685518A5420BD13C
:10549000246821445418A3421160E0D11C685B6861
:1054A000536021441160DAE702D90C230360D6E788
:1054B000256861198B4204BF19685B68636004BF8B
:1054C000491921605460CAE703B030BDD8070020F5
:1054D00070B50E4E0C463168054611B900F0BCF8A7
:1054E00030602146284600F0B7F8431C0AD0C41C9F
:1054F00024F00304A04207D0211A284600F0ACF89B
:10550000013001D14FF0FF34204670BDDC07002090
:105510002DE9F041CD1C25F0030508350C2D38BFD1
:105520000C25002D074601DBA94205D90C233B6061
:1055300000263046BDE8F0812E4E00F09DF833681D
:105540001C4634BB29463846FFF7C2FF431C0446BD
:105550004DD134682646002E40D123683146384666
:1055600004EB030800F078F880453AD12168033550
:105570006D1A25F0030508350C2D38BF0C2529467A
:105580003846FFF7A5FF01302BD023682B4423605A
:105590000EE02268521B1ED40B2A16D96119A342B1
:1055A000256018BF5960636808BF316062514B6065
:1055B000384604F10B0600F065F826F00706231DB7
:1055C000F21AB6D09B1BA350B3E76268A3420CBF8C
:1055D00032605A60ECE723466468B2E73446766886
:1055E000B9E70C233B60384600F04CF8A1E7256092
:1055F000DEE700BFD80700202DE9F04180461446C1
:105600000E4621B9BDE8F0411146FFF781BF2AB926
:10561000FFF712FF25462846BDE8F08100F038F874
:105620008442074602D8B4EB500F12D821464046B8
:10563000FFF76EFF05460028EDD0BC4222463146FA
:1056400028BF3A46FFF7B8FB31464046FFF7F4FE65
:10565000E1E73546DFE7000038B5064D0023044694
:1056600008462B60FDF77AFB431C02D12B6803B17F
:10567000236038BDE0070020014800F011B800BFEA
:10568000E4070020014800F00CB800BFE407002048
:1056900051F8043C181F002BBCBF0B58C0187047B2
:1056A00070477047F8B500BFF8BC08BC9E4670470D
:0C56B000F8B500BFF8BC08BC9E4670476F
:1056BC00256C64006D6D2F6D696E2000506F7765E1
:1056CC007220466565642056322E30004552524F8A
:1056DC0052204C4F4144494E472044415441004CC8
:1056EC004F4144494E472044454641554C54004592
:1056FC0052524F52210052656C656173652053778D
:10570C0069746368004665656420526174653A008B
:10571C004D6F64653A2053544F5020004D6F6465B3
:10572C003A205249474854004D6F64653A204C4525
:10573C0046542000434F4E46494755524154494F19
:10574C004E00456E61626C652050696E20496E7624
:10575C0065727465643A004E4F4E5F494E56455221
:10576C0054454400494E564552544544202020206F
:10577C00004E4F545F494E564552544544004469BF
:10578C00722050696E20496E7665727465643A00B9
:10579C004D6F746F72205374657073207065722036
:1057AC005265763A002870756C73652F7265762990
:1057BC00004C65616473637265772050697463682B
:1057CC003A00286D6D2F72657629004D6178696DF0
:1057DC00756D2046656564726174653A00286D6D5F
:1057EC002F6D696E290046617374204D6F762046CB
:1057FC00656564726174653A00496E697469616CBF
:10580C002046656564726174653A00416363205497
:10581C00696D653A00286D732900416363205570EA
:10582C006461746520526174696F3A0053617665E6
:10583C0020436F6E66696775726174696F6E00459F
:10584C0058495420574954484F55542053415645B4
:10585C00005341564520504152414D4554455253F9
:10586C0020200044415441205341564544004552A8
:10587C00524F522044454641554C542056414C55AC
:10588C004553004C4F414445440044415441204E43
:10589C004F542053415645440000000000000000C6
:1058AC0000010203040607080900000000010203BE
:1058BC0004232D302B2000686C4C00656667454630
:1058CC00470030313233343536373839414243446E
:1058DC0045460030313233343536373839616263FE
:0458EC006465660089
:0858F0004CB1FF7F0100000034
:0458F800C5010008DE
:0458FC00A1010008FE
:10590000FF7F0000C8000000FF7F0000FF7F000055
:10591000C80000000024F400010000001000000096
:105920002400002000000000000000000000000033
:105930000000000000000000000000000000000067
:105940000000000000000000000000000000000057
:105950000000000000000000000000000000000047
:105960000000000000000000000000000000000037
:105970000000000000000000000000000000000027
:045980000000000023
:0400000508002DB111
:00000001FF
