:020000040800F2
:1000000000000120DD380008153800081738000806
:10001000193800081B3800081D38000800000000CF
:100020000000000000000000000000001F38000871
:100030002138000800000000233800082538000897
:100040002D3900082D3900082D3900082D390008F8
:100050002D3900082D3900082D3900082D390008E8
:100060002D3900082D3900082D3900082D390008D8
:100070002D3900082D3900082D3900082D390008C8
:100080002D3900082D3900082D3900080000000026
:100090000000000000000000000000002D390008F2
:1000A0002938000845380008613800082D39000853
:1000B0002D3900082D3900087D3800082D39000839
:1000C0002D3900082D3900082D3900082D39000878
:1000D0002D3900082D3900082D39000800000000D6
:1000E0002D3900082D3900082D39000800000000C6
:1000F0000000000000000000000000002D39000892
:10010000000000002D3900082D3900082D390008A5
:1001100000000000000000000000000000000000DF
:100120002D3900082D3900082D3900082D39000817
:100130002D39000800000000000000000000000051
:100140000000000000000000000000002D39000841
:100150002D3900082D3900082D3900082D390008E7
:100160002D3900082D3900080000000000000000B3
:10017000000000000000000000000000000000007F
:10018000000000002D390008000000000000000001
:040190002D390008FD
:1001A00010B5054C237833B9044B13B10448AFF3B1
:1001B00000800123237010BD140100200000000006
:1001C0001864000808B5034B1BB103490348AFF39B
:1001D000008008BD0000000018010020186400081D
:1001E000034613F8012B002AFBD1181A0138704777
:1001F00001F0FF01102A2BDB10F0070F08D010F8D8
:10020000013B013A8B422DD010F0070F42B3F6D1DB
:10021000F0B441EA012141EA014122F007047FF0F4
:1002200000070023F0E80256083C85EA010586EA4B
:10023000010685FA47F5A3FA87F586FA47F6A5FA87
:1002400087F68EB9EED1F0BC01F0FF0102F0070293
:1002500032B110F8013B013A83EA010313B1F8D13E
:100260000020704701387047002D06BF354603381F
:10027000073815F0010F07D1013015F4807F02BF58
:10028000013015F4C03F0130F0BC0138704700BFA9
:1002900081F0004102E000BF83F0004330B54FEA37
:1002A00041044FEA430594EA050F08BF90EA020FA4
:1002B0001FBF54EA000C55EA020C7FEA645C7FEA37
:1002C000655C00F0E2804FEA5454D4EB5555B8BF5A
:1002D0006D420CDD2C4480EA020281EA030382EACB
:1002E000000083EA010180EA020281EA0303362D5D
:1002F00088BF30BD11F0004F4FEA01314FF4801C30
:100300004CEA113102D0404261EB410113F0004F41
:100310004FEA03334CEA133302D0524263EB4303F8
:1003200094EA050F00F0A780A4F10104D5F1200E96
:100330000DDB02FA0EFC22FA05F2801841F10001F1
:1003400003FA0EF2801843FA05F359410EE0A5F1C5
:1003500020050EF1200E012A03FA0EFC28BF4CF0F6
:10036000020C43FA05F3C01851EBE37101F00045AC
:1003700007D54FF0000EDCF1000C7EEB00006EEBB9
:100380000101B1F5801F1BD3B1F5001F0CD3490843
:100390005FEA30004FEA3C0C04F101044FEA44529A
:1003A00012F5800F80F09A80BCF1004F08BF5FEA21
:1003B000500C50F1000041EB045141EA050130BD01
:1003C0005FEA4C0C404141EB0101013C28BFB1F513
:1003D000801FE9D291F0000F04BF01460020B1FA5E
:1003E00081F308BF2033A3F10B03B3F120020CDA31
:1003F0000C3208DD02F1140CC2F10C0201FA0CF00F
:1004000021FA02F10CE002F11402D8BFC2F1200C73
:1004100001FA02F120FA0CFCDCBF41EA0C01904029
:10042000E41AA2BF01EB0451294330BD6FEA040472
:100430001F3C1CDA0C340EDC04F11404C4F120025D
:1004400020FA04F001FA02F340EA030021FA04F36F
:1004500045EA030130BDC4F10C04C4F1200220FAC6
:1004600002F001FA04F340EA0300294630BD21FA04
:1004700004F0294630BD94F0000F83F4801306BFCA
:1004800081F480110134013D4EE77FEA645C18BFBE
:100490007FEA655C29D094EA050F08BF90EA020F55
:1004A00005D054EA000C04BF1946104630BD91EA4D
:1004B000030F1EBF0021002030BD5FEA545C05D150
:1004C0004000494128BF41F0004130BD14F580048F
:1004D0003CBF01F5801130BD01F0004545F0FE4103
:1004E00041F470014FF0000030BD7FEA645C1ABF38
:1004F000194610467FEA655C1CBF0B46024650EA6F
:10050000013406BF52EA033591EA030F41F400219A
:1005100030BD00BF90F0000F04BF0021704730B520
:100520004FF4806404F132044FF000054FF00001F5
:1005300050E700BF90F0000F04BF0021704730B5B6
:100540004FF4806404F1320410F0004548BF40428B
:100550004FF000013EE700BF42004FEAE2014FEAE0
:1005600031014FEA02701FBF12F07F4393F07F4FBB
:1005700081F06051704732F07F4208BF704793F0BE
:100580007F4F04BF41F40021704730B54FF46074D1
:1005900001F0004521F000411CE700BF50EA0102D4
:1005A00008BF704730B54FF000050AE050EA01027D
:1005B00008BF704730B511F0004502D5404261EBED
:1005C00041014FF4806404F132045FEA915C3FF42E
:1005D000D8AE4FF003025FEADC0C18BF03325FEACB
:1005E000DC0C18BF033202EBDC02C2F1200300FA7C
:1005F00003FC20FA02F001FA03FE40EA0E0021FAA1
:1006000002F11444BDE600BF70B54FF0FF0C4CF48E
:10061000E06C1CEA11541DBF1CEA135594EA0C0F40
:1006200095EA0C0F00F0DEF82C4481EA030621EA7B
:100630004C5123EA4C5350EA013518BF52EA0335B6
:1006400041F4801143F4801338D0A0FB02CE4FF068
:100650000005E1FB02E506F00042E0FB03E54FF098
:100660000006E1FB03569CF0000F18BF4EF0010E90
:10067000A4F1FF04B6F5007F64F5407404D25FEA8C
:100680004E0E6D4146EB060642EAC62141EA55513F
:100690004FEAC52040EA5E504FEACE2EB4F1FD0C81
:1006A00088BFBCF5E06F1ED8BEF1004F08BF5FEAFF
:1006B000500E50F1000041EB045170BD06F00046B1
:1006C00046EA010140EA020081EA0301B4EB5C045E
:1006D000C2BFD4EB0C0541EA045170BD41F4801156
:1006E0004FF0000E013C00F3AB8014F1360FDEBF7B
:1006F000002001F0004170BDC4F10004203C35DA57
:100700000C341BDC04F11404C4F1200500FA05F3D9
:1007100020FA04F001FA05F240EA020001F000427A
:1007200021F0004110EBD37021FA04F642EB0601F0
:100730005EEA430E08BF20EAD37070BDC4F10C041A
:10074000C4F1200500FA04F320FA05F001FA04F2DE
:1007500040EA020001F0004110EBD37041F10001CA
:100760005EEA430E08BF20EAD37070BDC4F12005D5
:1007700000FA05F24EEA020E20FA04F301FA05F23D
:1007800043EA020321FA04F001F0004121FA04F2E5
:1007900020EA020000EBD3705EEA430E08BF20EAB5
:1007A000D37070BD94F0000F0FD101F000464000EF
:1007B00041EB010111F4801F08BF013CF7D041EA71
:1007C000060195F0000F18BF704703F00046520075
:1007D00043EB030313F4801F08BF013DF7D043EA46
:1007E0000603704794EA0C0F0CEA135518BF95EAFC
:1007F0000C0F0CD050EA410618BF52EA4306D1D183
:1008000081EA030101F000414FF0000070BD50EAA1
:10081000410606BF1046194652EA430619D094EA2B
:100820000C0F02D150EA013613D195EA0C0F05D115
:1008300052EA03361CBF104619460AD181EA030169
:1008400001F0004141F0FE4141F470014FF0000021
:1008500070BD41F0FE4141F4780170BD70B54FF0BC
:10086000FF0C4CF4E06C1CEA11541DBF1CEA13553C
:1008700094EA0C0F95EA0C0F00F0A7F8A4EB05041E
:1008800081EA030E52EA03354FEA013100F0888015
:100890004FEA03334FF0805545EA131343EA1263DE
:1008A0004FEA022245EA111545EA10654FEA002693
:1008B0000EF000419D4208BF964244F1FD0404F54C
:1008C000407402D25B084FEA3202B61A65EB0305A8
:1008D0005B084FEA32024FF480104FF4002CB6EB65
:1008E000020E75EB030E22BFB61A754640EA0C00E5
:1008F0005B084FEA3202B6EB020E75EB030E22BF25
:10090000B61A754640EA5C005B084FEA3202B6EB65
:10091000020E75EB030E22BFB61A754640EA9C0024
:100920005B084FEA3202B6EB020E75EB030E22BFF4
:10093000B61A754640EADC0055EA060E18D04FEAB2
:10094000051545EA16754FEA06164FEAC30343EA52
:1009500052734FEAC2025FEA1C1CC0D111F4801F1F
:100960000BD141EA00014FF000004FF0004CB6E718
:1009700011F4801F04BF01430020B4F1FD0C88BFB7
:10098000BCF5E06F3FF6AFAEB5EB030C04BFB6EBC2
:10099000020C5FEA500C50F1000041EB045170BDB5
:1009A0000EF0004E4EEA113114EB5C04C2BFD4EBE2
:1009B0000C0541EA045170BD41F480114FF0000E66
:1009C000013C90E645EA060E8DE60CEA135594EAE2
:1009D0000C0F08BF95EA0C0F3FF43BAF94EA0C0FE5
:1009E0000AD150EA01347FF434AF95EA0C0F7FF45A
:1009F00025AF104619462CE795EA0C0F06D152EAAE
:100A000003353FF4FDAE1046194622E750EA410691
:100A100018BF52EA43067FF4C5AE50EA41047FF4A2
:100A20000DAF52EA43057FF4EBAE12E74FF0FF3C07
:100A300006E000BF4FF0010C02E000BF4FF0010CD8
:100A40004DF804CD4FEA410C7FEA6C5C4FEA430C51
:100A500018BF7FEA6C5C1BD001B050EA410C0CBFA0
:100A600052EA430C91EA030F02BF90EA020F002002
:100A7000704710F1000F91EA030F58BF994208BF69
:100A800090422CBFD8176FEAE37040F00100704726
:100A90004FEA410C7FEA6C5C02D150EA013C07D17D
:100AA0004FEA430C7FEA6C5CD6D152EA033CD3D0C8
:100AB0005DF8040B704700BF8446104662468C46C2
:100AC0001946634600E000BF01B5FFF7B7FF0028F5
:100AD00048BF10F1000F01BD4DF808EDFFF7F4FF1E
:100AE0000CBF012000205DF808FB00BF4DF808EDA9
:100AF000FFF7EAFF34BF012000205DF808FB00BFCC
:100B00004DF808EDFFF7E0FF94BF012000205DF8ED
:100B100008FB00BF4DF808EDFFF7CEFF94BF0120A2
:100B200000205DF808FB00BF4DF808EDFFF7C4FF9B
:100B300034BF012000205DF808FB00BF4A0011D23D
:100B400012F5001211D20DD56FF47873B3EB625227
:100B50000ED44FEAC12343F0004343EA505323FA33
:100B600002F070474FF00000704750EA013002D1A8
:100B70004FF0FF3070474FF0000070474FEA4102DE
:100B8000B2F1E04324BFB3F5001CDCF1FE5C0DD9EB
:100B900001F0004C4FEAC0024CEA5070B2F1004F35
:100BA00040EB830008BF20F00100704711F0804F38
:100BB00021D113F13872BCBF01F00040704741F4FD
:100BC00080114FEA5252C2F11802C2F1200C10FA01
:100BD0000CF320FA02F018BF40F001004FEAC123E5
:100BE0004FEAD32303FA0CFC40EA0C0023FA02F389
:100BF0004FEA4303CCE77FEA625307D150EA01335F
:100C00001EBF4FF0FE4040F44000704701F000402E
:100C100040F0FE4040F40000704700BF53B94AB9AD
:100C2000002908BF00281CBF4FF0FF314FF0FF30F4
:100C300000F074B9ADF1080C6DE904CE00F006F8CF
:100C4000DDF804E0DDE9022304B070472DE9F04748
:100C5000089D04468E46002B4DD18A42944669D9A0
:100C6000B2FA82F252B101FA02F3C2F1200120FA83
:100C700001F10CFA02FC41EA030E94404FEA1C48D1
:100C8000210CBEFBF8F61FFA8CF708FB16E341EACD
:100C9000034306FB07F199420AD91CEB030306F153
:100CA000FF3080F01F81994240F21C81023E634474
:100CB0005B1AA4B2B3FBF8F008FB103344EA034418
:100CC00000FB07F7A7420AD91CEB040400F1FF332D
:100CD00080F00A81A74240F207816444023840EA6A
:100CE0000640E41B00261DB1D4400023C5E90043A3
:100CF0003146BDE8F0878B4209D9002D00F0EF8026
:100D00000026C5E9000130463146BDE8F087B3FA58
:100D100083F6002E4AD18B4202D3824200F2F98040
:100D2000841A61EB030301209E46002DE0D0C5E943
:100D3000004EDDE702B9FFDEB2FA82F2002A40F08F
:100D40009280A1EB0C014FEA1C471FFA8CFE012692
:100D5000200CB1FBF7F307FB131140EA01410EFB36
:100D600003F0884208D91CEB010103F1FF3802D2DD
:100D7000884200F2CB804346091AA4B2B1FBF7F0D7
:100D800007FB101144EA01440EFB00FEA64508D9FA
:100D90001CEB040400F1FF3102D2A64500F2BB8037
:100DA0000846A4EB0E0440EA03409CE7C6F1200786
:100DB000B34022FA07FC4CEA030C20FA07F401FACC
:100DC00006F31C43F9404FEA1C4900FA06F3B1FB55
:100DD000F9F8200C1FFA8CFE09FB181140EA0141BA
:100DE00008FB0EF0884202FA06F20BD91CEB010157
:100DF00008F1FF3A80F08880884240F28580A8F1AF
:100E000002086144091AA4B2B1FBF9F009FB101100
:100E100044EA014100FB0EFE8E4508D91CEB01019E
:100E200000F1FF346CD28E456AD90238614440EA41
:100E30000840A0FB0294A1EB0E01A142C846A646C1
:100E400056D353D05DB1B3EB080261EB0E0101FA4A
:100E500007F722FA06F3F1401F43C5E900710026A7
:100E60003146BDE8F087C2F12003D8400CFA02FCFD
:100E700021FA03F3914001434FEA1C471FFA8CFE0D
:100E8000B3FBF7F007FB10360B0C43EA064300FBFD
:100E90000EF69E4204FA02F408D91CEB030300F19B
:100EA000FF382FD29E422DD9023863449B1B89B252
:100EB000B3FBF7F607FB163341EA034106FB0EF3DB
:100EC0008B4208D91CEB010106F1FF3816D28B4288
:100ED00014D9023E6144C91A46EA004638E72E4654
:100EE000284605E70646E3E61846F8E64B45A9D24C
:100EF000B9EB020864EB0C0E0138A3E74646EAE7BB
:100F0000204694E74046D1E7D0467BE7023B614468
:100F100032E7304609E76444023842E7704700BFD1
:100F2000064B1870064B1970064B1A70064B0022C0
:100F30001A70064B08221A70704700BF300100205B
:100F4000330100203B01002032010020310100204C
:100F50001FB5084B08491B781843642300938DF88C
:100F60000C0009780548012303AA03F0EFFA05B045
:100F70005DF804FB3101002030010020DC05002079
:100F800010B5044640F00400FFF7E2FF012002F034
:100F90001FFD04F0FB00FFF7DBFFBDE81040012060
:100FA00002F016BD10B50446FFF7D2FF2046BDE89B
:100FB0001040FFF7E5BF38B5054620F00F000C469E
:100FC0000843FFF7EFFF44EA0510C0B2BDE8384020
:100FD000FFF7E8BF08B50121FFF7EDFF012008BDCD
:100FE00070B5044668B1FFF7FBF805462618B44211
:100FF00001D1284670BD14F8010B0121FFF7DBFF7A
:10100000F5E70546F5E70021FFF7D5BF08B5012054
:10101000FFF7F9FFBDE80840022002F0D9BC08B58F
:101020000220FFF7F0FFBDE80840022002F0D0BC2C
:10103000044B187840F0040240F00C001A70FFF7DF
:10104000E2BF00BF3401002000F00700C00038B547
:1010500040F040000C46FFF7D6FF651E073415F838
:10106000010FFFF7B7FFA542F9D138BD084B03299F
:101070001B7828BF03218B429CBF03F1FF31C9B20B
:10108000044B5B5C184460F07F00C0B2FFF7BBBF4D
:101090003B0100203701002010B5284C00232370AD
:1010A000274B1978012984BF08232370254B1A7810
:1010B000254B0020187040209A7002445870DA7056
:1010C000224B1B782BB1012902BF237843F0040384
:1010D0002370322002F07CFC1D4B1878FFF738FF9C
:1010E000012002F075FC3020FFF75CFF052002F0C4
:1010F0006FFC3020FFF756FF052002F069FC30201E
:10110000FFF750FF052002F063FC2020FFF74AFFA5
:10111000207840F02000FFF776FF0E4B04221A7073
:10112000FFF786FFFFF772FF0B4B022206201A70B3
:10113000FFF769FFBDE81040FFF771BF35010020E0
:101140003B01002033010020370100203201002044
:101150003101002034010020360100202DE9F04744
:10116000054617460E4605F1006502F063FE05F5DB
:1011700000353C4606EB070AA946B846D0452FD1B4
:101180004FF0000807F10109464539D80027BE4253
:1011900031D96278A37820781B041202D218E37840
:1011A0002CBF0121002112184FEA036041F1000118
:1011B00043F3C013821843EB010123790B44617997
:1011C00003EB0123A17903EB0143E179032003EB56
:1011D0000163791902F072FE083460B90837D6E766
:1011E0000023494618F8012B184602F067FE09F162
:1011F00001090028C2D002F02FFE0120BDE8F087CF
:1012000017F8083019F8082008EB050143EA022214
:101210000120002302F052FE0028ECD108F1020860
:10122000B2E70000F0B587B00126044602F002FEE6
:101230000523CDE9033600270223694601A8CDE93D
:101240000176059302F0E4FE054678B902F004FE4B
:10125000009B01330ED134B907484FF48062FF215F
:1012600004F072FC3446204607B0F0BD02F0F4FDF5
:101270003C46F8E72C46F6E73C0100200144B1F576
:10128000003F10B517D80D4C814201D8012010BD88
:1012900032B100F1006303F500331B7802F8013B23
:1012A000B0F5806F3FBF00F1006303F500331B789A
:1012B00023540130E8E70020E9E700BF3C010020AB
:1012C00000224FF480611046FFF7D8BF08B50B46E7
:1012D0001146C218B2F5806F07D841B11A46054BC6
:1012E000184404F023FC012008BD0020FCE7084658
:1012F000FAE700BF3C01002008B50120FFF792FF8C
:1013000038B1BDE80840034A4FF480610020FFF780
:1013100025BF08BD3C010020B5EEC00AF1EE10FA71
:1013200030B54FF06402044630D5DFED257A60EE2B
:10133000277AFDEEE77A17EE903AF1EE407A93FBCA
:10134000F2F1FDEEE77A02FB11339BB20A25B3FB03
:10135000F5F105FB11333033E3708BB2B3FBF5F1DC
:1013600005FB11333033A37017EE902A2E23601C37
:101370006370002A1ADCB5EEC00AF1EE10FA42BF23
:101380002D2300F8013C00F1FF3030BDDFED0D7A78
:1013900060EE277AFDEEE77A17EE903A93FBF2F1D2
:1013A00002FB1133FDEEC07A9BB2CFE792FBF5F35F
:1013B00005FB1322303200F8012D1A46D9E700BF91
:1013C0000000C8C20000C84230B595B0102200210C
:1013D0000AA804F0B9FB1422002103A804F0B4FB0E
:1013E0001F4B002101911A6C42F080521A641B6C51
:1013F0001C4A03F080530193019B0291136823F46C
:10140000404343F400431360136803F440430293E2
:10141000029B01244FF48033CDE9084302254FF4A9
:101420008003CDE90E531922A823CDE9102308A883
:101430000423CDE9123303F061F908B172B6FEE777
:10144000CDE905000F230790214603A8CDE9033518
:1014500003F032FB08B172B6FEE715B030BD00BF35
:10146000003802400070004038B5304B984203D13C
:101470002F4B01221A8038BD2E4B98420FD12E4B94
:101480002E4A1B8813B1138801339BB213802C4B57
:101490001A882C4B002AEDD01A880132EAE72A4B31
:1014A000984236D1294A2A4D13682A4C2A480133DA
:1014B00013602A8823880168013292B201339BB2FB
:1014C0000131072A2A802380016004D100222A806A
:1014D000224A01251580022B04D100232380204BB2
:1014E00001221A800A29C6D11E4C0023036094F9F8
:1014F0000030002BBFD11C4B1C484FF6FF72DA6244
:1015000003F03CFC1948042104F0E2F901232370A4
:10151000B1E7164B9842AED1154A00231360114A29
:101520001370144B01221A70A5E700BFC0060020FB
:101530008008002078060020620500205E0500205B
:101540006005002054050020E007002080050020F1
:1015500052050020700800205C0800205005002083
:101560006E0800206008002000080040500700209E
:101570004805002044050020F8B51D4B984205465B
:1015800006D11C4C1C4B26681EB1002222605A62F8
:10159000F8BD1A4F9B6B3B6003F022FC04212846E8
:1015A00004F012FA38682368C01AFEF7B3FF0EA3DE
:1015B000D3E90023FFF728F802460B460020104924
:1015C000FFF74CF90F4B0022FFF71EF8FFF7B6FAB2
:1015D0000D4B18600A2323600C4B3E601E700C4BB1
:1015E00001221A70D4E700BF2D431CEBE2361A3FEC
:1015F000500700203C050020000800404005002066
:101600000000F03F00004E40480500206008002028
:10161000440500200E4B0F49186910F0010010B569
:1016200008D06FF001021A6147F6FF725A6200207B
:101630000A6010BD5A6A0B6892B2D41A0134022CA7
:1016400081BF981A00EBD07040100A60F1E700BF2C
:10165000000001409C000020F0B585B007460C4614
:1016600015463449024601A81E4604F075FA002FBB
:1016700031DD092F13DCE4B2EDB2601C2946C0B2A3
:10168000FFF7F4FC002E3CD12B48FFF7A9FC2046C5
:101690002946FFF7EBFC01A8FFF7A2FC2FE0632F20
:1016A00003DCE4B2EDB2A01CE8E7B7F57A7F03DA19
:1016B000E4B2EDB2E01CE1E742F20F739F4203DCBB
:1016C000E4B2EDB2201DD9E71C4B9F4217DCE4B217
:1016D000EDB2601DD2E718D017F1090FE1DA17F16A
:1016E000630F09DBE4B2EDB2A01C2946C0B2FFF7DC
:1016F000BDFC36B91248C8E717F57A7FF2DC05B0B1
:10170000F0BD012EC3D10F48BFE7E4B2EDB22946C8
:101710002046FFF7ABFC46B90B48FFF761FC2046BB
:101720002946FFF7A3FC0948B6E7012EF7D1084880
:10173000F3E700BF30640008C86400089F8601001A
:10174000C664000834640008C764000857640008D1
:101750003C64000830B52DED028BF7EE007A85B0C1
:10176000B4EEE70A0023F1EE10FAB0EE408A8DF8ED
:101770000C30C4B2C9B210D52046FFF777FC0C4834
:10178000FFF72EFC02A8B0EE480AFFF7C5FDFFF7F1
:1017900027FC05B0BDEC028B30BD02A80191FFF71C
:1017A000BBFD019905462046FFF760FC2846EEE7A1
:1017B0005764000880F00100C2B20821014802F01D
:1017C00045BD00BF0000024008B5C2B20821044870
:1017D00002F03CFDBDE808400248002104F076B864
:1017E0000000024008070020012806D181F0010214
:1017F000D2B20448042102F029BD08B9CAB2F8E700
:10180000704700BF000002404FF0804310B51968D8
:1018100011F00101044602D10F4804F019F8ACB1EF
:101820000E4BDFED0F6A9888604307EE900AB8EE22
:10183000E77A4FF08042C6EE877AFCEEE77A17EE41
:10184000903A0133D3625B08536310BD21460248CE
:10185000BDE8104004F03AB8080700203008002026
:101860002634164F2DE9F0410446B1F800C0238814
:10187000B1F9005024482549C689B0F810E0B4F900
:101880000070ACEB03020A80214AB2F80080A84540
:101890000DD0B6FBFEF6A2F800C0EA1B002AB8BFC6
:1018A000524292B20A80B2FBF6F21A4E3280BD4228
:1018B0001FDD184A09881288914200D9BAB901334C
:1018C0002380B4F9003007EE103AD0F80630B8EEB5
:1018D000C77A07EE903AC7EE277AFCEEE77A17EE62
:1018E000903A98B2FFF790FF2088BDE8F08113444A
:1018F000E6E7E6DA074A09881288914200D90AB970
:10190000013BDDE79B1ADBE730080020840500205F
:10191000460800204C05002038B5054D2B68834251
:10192000044603D00123FFF797FE2C6038BD00BFAB
:101930006408002010B54FF400510E4802F080FCFE
:101940004FF4805104460B4802F07AFC44EA00034D
:10195000DBB24BB104EA0003DBB243B9002C14BF85
:10196000002000F0010010BD4FF0FF30FBE7022027
:10197000F9E700BF000402400F4B1B8810B5044676
:101980005BB9FFF747FE238818442080B4F9002094
:10199000002A0BDC012323800DE0012BF6D1FFF799
:1019A00039FE23880A2202FB0030EEE7034B5B89F5
:1019B00099B28A42EFDC10BD740800203008002084
:1019C00038B517484FF4004102F03AFC154AD8B92F
:1019D000154913880988154C23B9012010802180EE
:1019E00018B238BD23885D1C8D4201DB0023F7E768
:1019F000133399420E4D02DC01232B80F6E70323BB
:101A00002B8021801080EBE7094803880021012BFF
:101A100011804FF0000218BF0B460280E0E700BFC4
:101A200000040240620500205E0500207E080020C0
:101A30004A08002010B518484FF4804102F000FC1D
:101A4000D0B91649164B08881A88164B20B90124BC
:101A50000C801A8000B210BD1B88591C914201DB1A
:101A60000020F7E713339A420F4B02DC01221A8061
:101A7000F6E703201880EDE70B4A108803284FF0A3
:101A8000000306D0054901280B8002D100231380F2
:101A9000E0E71846FAE700BF0004024060050020B6
:101AA00054050020580500204808002070B586B075
:101AB0006A46034600F11006154618685968144630
:101AC00003C40833B3422246F7D1186820609B88CC
:101AD000A38000242A19204601210134FFF7F6FBD8
:101AE000162CF7D1FFF708FC80B206B070BD2DE9C7
:101AF000F04188B00DF1080804460026012745464C
:101B000030460DF107020121FFF7B8FB013600282E
:101B10009DF8073008F8013B08BF0027162EEFD1CB
:101B20002A46234606AD144603CCAC4218605960E1
:101B3000224603F10803F6D120681860A2889A8033
:101B4000384608B0BDE8F081032970B504460D465B
:101B50000CD10C200121FFF789FA0120FFF73AFA96
:101B600013200121FFF782FA28460CE061BB012116
:101B70000C20FFF77BFA0120FFF72CFA132001213C
:101B8000FFF774FA0220FFF725FA344E344D3388FC
:101B9000A34208D001210D20FFF768FA3148FFF772
:101BA0001FFA00232B80012C2B883AD1052B21D141
:101BB00012202146FFF75AFA2B48FFF711FA2B881B
:101BC000348001332B8070BD01290BD10C20FFF72D
:101BD0004DFA0020FFF7FEF913202946FFF746FAD9
:101BE0000320D0E70229D0D10C200121FFF73EFAD3
:101BF0000020B3E7062B0ED121460D20FFF736FA61
:101C00001848FFF7EDF900232B8021460D20FFF740
:101C10002DFA1648D1E7042BD1D80D330121D8B2C3
:101C2000F5E7002CCBD1052B05D10D200121FFF7C5
:101C30001DFA0F48C1E7062B0AD101210D20FFF73D
:101C400015FA0848FFF7CCF92C8001211220DEE7B5
:101C5000042BB4D8C3F11203E0E700BF54080020FE
:101C60004E050020C3640008436400084564000872
:101C7000476400082DE9F04FDFF828A185B016462B
:101C8000994680460C46FEF7ABFA2023ADF80C309F
:101C9000BAF80030C6F113050746ADB2EBB9B9F199
:101CA000010F17D11F46E4B20CE0F0192146C0B273
:101CB000FFF7DCF918F807308DF80C3003A8FFF7B0
:101CC0008FF90137BBB29D42EFD8344A0123AAF8FD
:101CD0000030138005B0BDE8F08F012BFAD1B9F1C7
:101CE000010F40D183B24FF0000B00935B1BDFF874
:101CF000ACA00193D94623E006EB0B00E1B2C0B2E1
:101D0000FFF7B4F9BAF80030019A934227DB009A42
:101D10005B449A4207DD18F803308DF80C3003A8B5
:101D2000FFF75EF90AE018F809308DF80C3003A8C7
:101D3000FFF756F909F101091FFA89F90BF1010BB7
:101D40001FFA8BF39D42D7D8BAF8003001339BB20B
:101D5000BFB2BB4208BF0023AAF80030BAE7434431
:101D600013F80B30D9E7B9F1000FB3D10B4B0C4F7F
:101D7000AAF80090A3F80090E4B21FFA89F39D42FC
:101D8000A8D906EB09002146C0B2FFF76FF9384623
:101D9000FFF726F909F10109EFE700BF2A08002043
:101DA000C86400086C080020F8B50E4B0E4D1A6888
:101DB0006E6A0E4FB61A6A6A1A603B88044643B9C7
:101DC000012804D10A486B6202F096FF3C8030463D
:101DD000F8BD012BFBD10028F9D1054802F0BAFF6C
:101DE0006C62F3E750080020000C004076080020E9
:101DF00098070020000000002DE9F04FBB4DBC4EBD
:101E00000023C5F8063040232DED028B33710623E5
:101E100073716FF00B0300240127B37233734FF01B
:101E200080486FF017032C706C70AC70EC702C71E4
:101E30006C71AC72EC722C736C73AC73EC732C74AD
:101E40006C74AC74EC742C756C7534707470B47004
:101E5000F470C6F80680F7727773B373032397B0F4
:101E6000F37332233374B3747474F4743475747507
:101E700001F082FDFFF7A8FA214614220DA803F015
:101E800063FE9C4B03941A6B9B4842F004021A6356
:101E90001A6B02F004020392039A04941A6B42F044
:101EA00080021A631A6B02F080020492049A05946D
:101EB0001A6B3A431A631A6B3A400592059A0694D4
:101EC0001A6B42F002021A631B6B03F002032246F4
:101ED00006934FF40051069B02F0B8F9224687485A
:101EE0000C2102F0B3F94FF4005383480DA9CDE95A
:101EF0000D37CDE90F4402F0DBF80C237F480DA924
:101F0000CDE90D37CDE90F4402F0D2F870237B48BC
:101F10000F940DA9CDE90D3402F0CAF84FF47043C7
:101F200077480F940DA9CDE90D3402F0C1F875483A
:101F3000DFF8F4C1744B0462C0E900C34FF480437E
:101F4000C0E90244C0E90434C0E9064402F056FA8C
:101F5000044608B172B6FEE7DFF8D091DFF8D0B1E1
:101F600001461C220EA803F0EFFD4FF0020A4FF6C7
:101F7000FF730DA94846CDE90944C9E900B4C9E990
:101F80000334C9E90544C9F808400D970F97CDF807
:101F900044A01397CDF854A003F022F908B172B60B
:101FA000FEE7CDE9090009A9484603F05DFD814639
:101FB00008B172B6FEE747F6FF73CBF824306FF036
:101FC0000103524CCBF810300146102209A803F04F
:101FD000BBFD1C2249460DA8CDE9079903F0B4FDCD
:101FE000C4E9008920464FF08008C4E9029AC4F889
:101FF0001090C4F8188003F06FF808B172B6FEE7CD
:102000004FF4805309A92046099303F096FA08B1CA
:1020100072B6FEE7204603F08BF808B172B6FEE711
:10202000CDE9070007A9204603F01EFD024608B1CE
:1020300072B6FEE76023CDE90D370F9004230DA99A
:102040002046119303F04EF9074608B172B6FEE739
:10205000204601F0B7FB2E482E4B876040F28224C9
:10206000C0E9003440F6C143C0E90337C0F8188026
:1020700003F032F8034608B172B6FEE72648274A55
:102080008360C0E9002441F68312C0E90323C0F84D
:10209000188003F021F808B172B6FEE71022002183
:1020A0000DA803F051FD1E4C1E4840F28223C4E9E6
:1020B000000341F6831200234FF080092046C4E953
:1020C00002322361C4F8189003F006F808B172B622
:1020D000FEE74FF480580DA92046CDF8348003F078
:1020E0002CFA074630B372B6FEE700BF3008002076
:1020F0006405002000380240000802400000024051
:1021000000040240DC050020A08601000807002032
:10211000C00600200048014078060020004401402D
:10212000E00700200040014000540040300600203D
:1021300000000140014610220DA803F005FDAD4C42
:10214000AD4BA7604FF0010AC4E900372046AB4B06
:102150002761277684F82070E762A362E760C4F8FD
:102160001CA084F83070C4F814A001F045FC08B13C
:1021700072B6FEE709230F900DA92046CDE90D3A6E
:1021800001F0E0FC074608B172B6FEE701461022F6
:1021900009A803F0D9FC394610220DA8984CCDE9C6
:1021A000077703F0D1FC9749A76041F26703C4E9C0
:1021B0000013204644F62063C4E90337C4F818909E
:1021C00002F08AFF08B172B6FEE709A92046CDF8F1
:1021D000248003F0B2F908B172B6FEE7204602F09F
:1021E000D3FF08B172B6FEE7CDE9070007A9204684
:1021F00003F03AFC08B172B6FEE7CDE90D0ACDE96D
:102200000F00042220460DA903F0FAF8044608B195
:1022100072B6FEE7014614220DA803F095FC7A4839
:102220007A4B8460C0E900344FF0FF33CDE90944B4
:10223000C0E90334846102F04FFF08B172B6FEE7D3
:1022400060230722CDE90D236F4800230DA90F93CA
:10225000119303F06EFA08B172B6FEE7CDE90900FA
:1022600009A9694803F000FC074608B172B6FEE709
:10227000FFF726F8042214214E20FEF751FEFEF748
:102280000BFF01210220FEF7F1FE614C6148DFF8EF
:10229000CC81DFF8CC91DFF8CCA1DFF8A8B1FEF754
:1022A0009FFE5D4927803846FEF7CEFE5B49012040
:1022B000FEF7CAFE5A490220FEF7C6FE594903201E
:1022C000FEF7C2FE3C21584802F0A4FD574802F038
:1022D00055FD574802F052FD564802F04FFDC8F830
:1022E0000060554EC9F800503368CAF80030DAF87B
:1022F000003032681E33934208D3FFF761FB032896
:1023000062D10423ABF8003001232380FEF77EFE68
:10231000D9F80000FFF7EBFB08BB01210846FEF7E8
:10232000A5FE4648FEF75CFE02210120FEF79EFE58
:102330004348FEF755FED8F80030D9F8002003F1E5
:10234000140153F8040B42F8040B8B42F9D11B889B
:1023500013804FF4FA6001F03BFBFEF757FEAB8AA7
:1023600093B1D8F80030D9F8002003F1140153F8E4
:10237000040B42F8040B8B42F9D11B881380314BBC
:1023800004221A80012323802B8ADFED2F6A2F4A33
:102390002C4F07EE103AB8EE477AC7EE267A9FED3B
:1023A0002C7A67EE877AFCEEE77A17EE903A9BB2CA
:1023B000D3623B88052BFDD8DFE813F009006601E6
:1023C0008E02820035049003ABF800708FE7FFF7B0
:1023D000B1FA022848D001210820FEF747FE1D4827
:1023E000FEF7FEFD02210320FEF740FE1A48FEF72D
:1023F000F7FDDEE794050020002001400100000FFA
:10240000500700200008004098070020000C004002
:10241000280800204964000800000020080000206F
:10242000100000201800002030060020C006002008
:1024300078060020E007002080050020596400088D
:102440006C6400087208002000007A4400480140D3
:1024500000267F477C640008836400087C05002018
:10246000780800202C080020FEF7D0FD0021084647
:10247000FEF7FCFD7148FEF7B3FD01210020FEF7D9
:10248000F5FD6F48FEF7ACFD03210020FEF7EEFDE1
:102490006C48FEF7A5FD6C4B688A18806B4B0022D8
:1024A00018800B2100B2FFF737FA2888FFF78CF964
:1024B000674B03201988FFF747FB03233B8078E72E
:1024C0002388634EE3B101210020FEF7CFFD4FF0DA
:1024D00000085B48FEF784FD02214046A4F8008016
:1024E000FEF7C4FD5B48FEF77BFD31880320FFF754
:1024F0002BFB40460321FEF7B9FD5248FEF770FD65
:10250000DFF844814046FFF737FA504BB8F9000036
:10251000188000220B21FFF7FFF9FFF751FA4E4B0D
:10252000DFF8608180B20128188013D14B4B1A88E4
:102530005AB91880B8F80030032B28D003230020A4
:10254000A8F80030FFF730FC21E0012AF2D1002288
:102550001A80EFE70328EDD13388012B08D1404BD7
:1025600002211A683F4B31801A60FFF7EDFAE1E76C
:102570002BB93B4B02211A6831803B4BF4E7032B0C
:1025800030D1A8F8003005233B8001232380B6F822
:1025900000A0BAF1010F2AD1344E33883BB1534623
:1025A000334800220221FFF765FB00233380FFF749
:1025B000C1F901282F4E31D1B6F9003073BB032386
:1025C000A8F80030388020802B4B93F90030002B86
:1025D0003FF4EFAE294B032218680D210023FFF7CB
:1025E0003BF8E6E6022BA5D130800146BDE7BAF103
:1025F000000F0CD11D4E3388002BD8D0204801236A
:1026000052460221FFF736FBA6F800A0CFE70023D1
:1026100017481A460221FFF72DFBC8E7FFF78AF992
:102620003388184300B20028CED10323A8F8003025
:1026300002233B8001232380C6E700BF9264000889
:102640009D640008A9640008A00000202400002068
:1026500094000020B7640008900500207408002052
:10266000680800208C050020880500206E080020E6
:10267000730000205C050020440500204805002070
:10268000540000204C080020FFF79AF97F4EDFF835
:1026900038A23080FFF7CEF9318880B20129AAF83C
:1026A000000004D17A4B1A88002A64D119800328CB
:1026B00066D1784A137B527B43EA0223764A138021
:1026C000FFF738F9754B764EDFF8F88180B20128B4
:1026D00018805CD1DFF8C0B1BBF900301BB9714B79
:1026E0001B88ABF80030BAF80030032B0ED06A48D4
:1026F000FFF742F96B4BBBF90000B3F900208242AF
:1027000004D000220B211880FFF706F90B20FFF7F9
:102710004BFB3368C8F8000018443060624E3188C3
:10272000022968D1614B1B68002B62DA984262DC97
:10273000DFF864A10023AAF800305D4BB3F90080F4
:10274000B8F1000F57D1534B01911888FFF73CF8AF
:10275000544B01991B88AAF80030564B0122404681
:102760001A70FEF783FC5448FEF73AFC31880320C8
:10277000FFF7EAF93FE0012A04BF00221A8096E73A
:1027800000289DD1474B1A88434B1A8098E708BB15
:10279000474BDFF804B1B3F900A0ABF80000BAF181
:1027A000000FB3D102233B8001232380394B1888CB
:1027B000FFF70AF83B4B50461B88ABF80030FFF799
:1027C000F3FA3368C8F8000018443060394B83F8D6
:1027D00000A0EEE5022899D1DFF8BCB00023ABF8E9
:1027E0000030334BB3F900A0BAF1000F8ED10323B0
:1027F000D9E798429CDA238843B101210020FEF7F3
:1028000035FC2E48FEF7ECFB00232380DFF8BC806C
:10281000B8F80030012B13D0DFF878A02848BAF8B8
:10282000022082F00102D2B2042101F00FFDBAF8B9
:102830000000FEF7BFFF0120A8F80000FFF7B4FA80
:10284000DFF88C80B8F8003053B1DFF864A012498B
:102850005046FFF707F80023AAF80000A8F8003058
:10286000DFF87080B8F80030002B3FF4A2AD114BB8
:1028700093F800A0BAF1000F7FF49BAD31880120DE
:10288000FFF762F9A8F800A093E500BF90050020CB
:102890007408002030080020A00000207C080020E0
:1028A0006808002024000020940000208C050020EF
:1028B0005C05002092050020CA640008D964000865
:1028C0000000024058080020560500204C08002057
:1028D0008008002050050020FFF772F8AE4EDFF8A8
:1028E000FCA23080FFF7A6F8318880B20129AAF84F
:1028F000000005D1A94B1A88002A40F0AC8019804D
:10290000032840F0AD80A64A137B527B43EA0223A2
:10291000A44A1380FFF70EF8A34BDFF8BC82A34E46
:1029200080B21880002840F0A380DFF878B2BBF9AD
:1029300000301BB99E4B1B88ABF80030BAF8003052
:10294000032B0ED09748FFF717F8994BBBF90000FF
:10295000B3F90020824204D000220B211880FEF738
:10296000DBFF0B20FFF720FA3060924ED8F80030E2
:102970003188181A0229C8F8000025D18E4B1B682F
:10298000984221DCDFF81CA20023AAF800308B4B10
:10299000B3F90080B8F1000F16D1814B019118886E
:1029A000FEF712FF824B01991B88AAF80030844B76
:1029B000012240461A70FEF759FB8248FEF710FBD1
:1029C00031880320FFF7C0F8238843B1012100209C
:1029D000FEF74CFB7C48FEF703FB00232380DFF867
:1029E0000082B8F80030022B10D0DFF8B4A100202C
:1029F000BAF80210FEF7F8FEBAF80000FEF7DAFEA9
:102A000002230120A8F80030FFF7CEF9DFF8D481C7
:102A1000B8F8003053B1DFF8A4A162495046FEF780
:102A200021FF0023AAF80000A8F80030DFF8B8A1C1
:102A3000BAF80030002B3FF4BCAC614B93F8008037
:102A4000B8F1000F7FF4B5AC31884046FFF77CF851
:102A5000AAF80080ADE4012A04BF00221A804FE7E3
:102A600000287FF457AF524B1A884E4B1A8051E71B
:102A700001281FD1DFF82CB10023ABF800304F4BF9
:102A8000B3F900A0BAF1000F7FF46BAF388020805B
:102A9000434B1888FEF798FE454B50461B88ABF811
:102AA0000030FFF781F9D8F800303060181AC8F804
:102AB00000008BE602287FF454AFDFF8E8B0002373
:102AC000ABF800303D4BB3F900A0BAF1000F7FF432
:102AD00048AF03233B8001232380D9E723886BB1D0
:102AE00001210020FEF7C2FA3848FEF779FA0023E8
:102AF0002380304B03201988FFF726F8344E3388A3
:102B00003BB10123334800220221FFF7B3F8002331
:102B10003380FEF755FF204BDFF8C48086B2032ECA
:102B20001E8011D10523A8F8003001232380002343
:102B300028483E801A460221FFF79CF81D4B31467B
:102B400030461E80FFF700F8B8F800301B4E052B0A
:102B50001CBF0523A8F80030FEF7ECFE0128014653
:102B600044D1B6F900A0BAF1000F3FD10523A8F86F
:102B70000030104B38801880174B20801A680E4B9D
:102B800003201A60FEF7E0FF534612481A4602215E
:102B9000FFF770F80DE400BF9005002074080020D6
:102BA00030080020A00000207C08002058080020E9
:102BB0002400002094000020880500205C050020EF
:102BC00092050020CA640008E5640008F16400086A
:102BD0006E0800202600002068080020560500200E
:102BE0004C0800208008002050050020FEF7A2FEBF
:102BF0003688304306B2002E7FF4DBAB0523A8F8FD
:102C000000309D4B1E80012323809C4B1A689C4BF7
:102C10004FF00208314603201A60A7F80080FEF743
:102C200093FF3346B1E7974E33880A2B3FF6C1AB8B
:102C3000DFE813F00B006C00C3004001B501100287
:102C40006B02E0023D039503E4032388DFF8608212
:102C50000BB3FEF7DFFCD8F800301844C8F80000CA
:102C6000FEF7D4F900210320FEF700FA8648FEF7AC
:102C7000B7F901210020FEF7F9F98448FEF7B0F911
:102C8000834B1888022180BBFEF7F0F98148FEF7DC
:102C9000A7F900232380FEF7BDFC7F4B1A68104480
:102CA0001860D8F80030984214D0DFF8E4A1C8F8D2
:102CB0000000BAF800800221B8F1000F1AD1404696
:102CC000FEF7D4F97548FEF78BF901238AF8003036
:102CD0008AF80180FEF774FE01287FF46AAB33881E
:102CE000208001333380FFF764BB0020FEF7BEF97C
:102CF0006A48CCE70020FEF7B9F96948FEF770F999
:102D000000238AF800308AF80130E3E72388DFF8EF
:102D1000A0810BB3FEF77EFCD8F800301844C8F849
:102D20000000FEF773F900210320FEF79FF95648D3
:102D3000FEF756F901210020FEF798F95948FEF7F1
:102D40004FF9534B5888022130BBFEF78FF9514899
:102D5000FEF746F900232380FEF75CFC4E4B1A6811
:102D600010441860D8F800309842B3D0DFF820A1A2
:102D7000C8F80000BAF802800221B8F1000F10D1A3
:102D80004046FEF773F94548FEF72AF901238AF811
:102D900002308AF803809DE70020FEF767F93F487C
:102DA000D6E70020FEF762F93D48FEF719F9002347
:102DB0008AF802308AF803308CE72388DFF8F08045
:102DC00033B3FEF727FCD8F800301844C8F80000E9
:102DD000FEF71CF900210320FEF748F92A48FEF708
:102DE000FFF801210020FEF741F92F48FEF7F8F81F
:102DF00027480023194602228088FEF72DFC022175
:102E00000820FEF733F92948FEF7EAF8002323806B
:102E1000FEF700FC204B196842181A60D8F8003001
:102E20009A423FF457AF1A48D31A8188C8F8002055
:102E300003EB830303EB830301EB830399B28380EA
:102E4000A1F164039BB248F6530293420AD964236A
:102E50000371002343710023808802221946FEF784
:102E6000FBFB37E743F698239942F4D96FF06703E9
:102E700003713A23EEE700BF9400002068080020A9
:102E80008C0500205A050020FD6400080B65000831
:102E90003008002020650008200000202D65000873
:102EA0003A65000847650008596500086E65000826
:102EB000980000202388DFF838B343B3FEF7AAFB5D
:102EC000DBF800301844CBF80000FEF79FF8002133
:102ED0000320FEF7CBF8BC48FEF782F80121002062
:102EE000FEF7C4F8B948FEF77BF8B94BD3F80630C3
:102EF000022100EE103A0020FEF72CFC02210A20ED
:102F0000FEF7B4F8B348FEF76BF800232380FEF712
:102F100081FBB14B1A6800EB0208DBF80000C3F834
:102F2000008080453FF4D6AEA8EB0000FDF702FB21
:102F3000A3A3D3E90023FDF767FBDFF894A2FDF715
:102F40001DFEDAF80630CBF8008007EE900A08EE96
:102F5000103A37EE888A18EE103A18EE100ACAF8BE
:102F60000630FDF7F9FA96A3D3E90023FDF7BEFD7D
:102F700058B19A4BCAF80630DAF80630022100EE52
:102F8000103A0020FEF7E6FBA4E6F2EE047AB4EE77
:102F9000E78AF1EE10FAEFDD17EE903AEAE72388C0
:102FA000DFF84C8233B3FEF735FBD8F80030184415
:102FB000C8F80000FEF72AF800210320FEF756F8B3
:102FC0008148FEF70DF801210020FEF74FF88448F4
:102FD000FEF706F87E480023194602224089FEF7D4
:102FE0003BFB02210A20FEF741F87E48FDF7F8FF7F
:102FF00000232380FEF70EFB774B196842181A60F6
:10300000D8F800309A423FF465AE7148D31A41892E
:10301000C8F8002003EB830303EB830301EB4303B6
:1030200099B24381A1F164039BB245F277029342C6
:1030300008D9642383720023C372002340890222CB
:1030400019460CE7B1F52F7FF7D96FF04303837270
:103050000223F1E72388DFF8988133B3FEF7DAFA29
:10306000D8F800301844C8F80000FDF7CFFF002161
:103070000320FDF7FBFF5448FDF7B2FF01210020BC
:10308000FDF7F4FF5848FDF7ABFF51480023194600
:1030900002228089FEF7E0FA02210A20FDF7E6FF0E
:1030A0005048FDF79DFF00232380FEF7B3FA4A4BFB
:1030B000196842181A60D8F800309A423FF40AAEF4
:1030C0004348D31A8189C8F8002003EB830303EB3C
:1030D000830301EB430399B28381A1F132039BB2D5
:1030E00045F2A902934208D93223037300234373A4
:1030F0000023808902221946B1E6B1F52F7FF7D966
:103100006FF0430303730223F1E72388DFF8E080C5
:1031100033B3FEF77FFAD8F800301844C8F800003F
:10312000FDF774FF00210320FDF7A0FF2648FDF7FF
:1031300057FF01210020FDF799FF2C48FDF750FFB4
:103140002348002319460222408AFEF785FA02210D
:103150000A20FDF78BFF2348FDF742FF0023238061
:10316000FEF758FA1C4B196842181A60D8F800305C
:103170009A423FF4AFAD1648D31A418AC8F80020EE
:1031800003EB830301EB430399B20929438208D976
:10319000438944F61F6212FA83F28A421FFA83FCC3
:1031A00008DA0A2383740023C3740023408A0222AE
:1031B000194654E6614588BF4382F6E7AFF30080C5
:1031C0007B14AE47E17A843FFD6400087A6500080D
:1031D000300800208B650008200000200AD7233C1F
:1031E00094650008A6650008AF650008C265000880
:1031F000980000202388DFF8B48233B3FEF70AFA80
:10320000D8F800301844C8F80000FDF7FFFE002190
:103210000320FDF72BFF9748FDF7E2FE0121002078
:10322000FDF724FF9448FDF7DBFE94480023194680
:103230000222C089FEF710FA02210A20FDF716FFCC
:103240008F48FDF7CDFE00232380FEF7E3F98D4B79
:10325000196842181A60D8F800309A423FF43AAD23
:103260008648D31AC189C8F8002003EB830303EB17
:10327000830301EB830399B2C381A1F57A739BB2F7
:1032800045F6BF52934209D96FF0170383730323A6
:10329000C3730023C08902221946E0E541F2883356
:1032A0009942F6D96FF0770383731323F0E72388ED
:1032B000DFF8F88133B3FEF7ADF9D8F800301844E1
:1032C000C8F80000FDF7A2FE00210320FDF7CEFEA6
:1032D0006848FDF785FE01210020FDF7C7FE6A481A
:1032E000FDF77EFE6548002319460222008AFEF79C
:1032F000B3F902210A20FDF7B9FE6148FDF770FE1F
:1033000000232380FEF786F95E4B196842181A6085
:10331000D8F800309A423FF4DDAC5848D31A018AFD
:10332000C8F8002003EB830301EB430399B2038247
:10333000A1F114039BB244F63772934208D91423C7
:103340000374002343740023008A0222194686E591
:10335000B1F5967FF7D92C2303740123F2E7238874
:10336000DFF848810BB3FEF755F9D8F80030184460
:10337000C8F80000FDF74AFE00210320FDF776FEA5
:103380003C48FDF72DFE01210020FDF76FFE3F4870
:10339000FDF726FE3E4B1888022118BBFDF766FE9E
:1033A0003C48FDF71DFE00232380FEF733F9354B23
:1033B0001A6810441860D8F8003098423FF48AAC7C
:1033C000C8F80000DFF8C880B8F80000022170B12A
:1033D0000020FDF74BFE2F48FDF702FE0023A8F862
:1033E000003077E40020FDF741FE2B48D9E7FDF7D8
:1033F0003DFE2948FDF7F4FD0123F0E7244B198831
:1034000001292BD11D4BD9F80000019100221A751A
:103410005A75FEF74BFB0199064678B1FDF7F6FDAC
:1034200005200199FDF722FE1C48FDF7D9FD40F269
:10343000DC5000F0CDFA0023FFF740B80191FDF712
:10344000E5FD01993046FDF711FE1548FDF7C8FD71
:1034500007200221FDF70AFE1248E6E7FDF7D6FD38
:1034600001210320FDF702FE0F48FDF7B9FD4FF4DF
:10347000FA60DEE7FD640008D4650008300800202B
:10348000DE65000820000020E3650008F5650008FF
:1034900062080020086600081A6600082C6600080A
:1034A000376600084C660008536600089800002044
:1034B00082B00C4B002100915A6C42F480425A6455
:1034C0005A6C02F480420092009A01911A6C42F008
:1034D00080521A641B6C03F080530193019B02B06D
:1034E000704700BF0038024010B5044688B014226F
:1034F000002103A802F028FB2268124B9A421ED139
:1035000003F58C33002101915A6C0F4842F480720C
:103510005A645A6C02F480720192019A02911A6BF9
:1035200042F002021A631B6B03F002030293029B38
:103530000222032303A9CDE9032300F0B9FD08B05B
:1035400010BD00BF002001400004024030B5044619
:1035500089B01422002103A802F0F6FA2268144B65
:103560009A4222D1134C144800250195236B43F055
:1035700002032363236B03F002030193019B4FF4C7
:1035800040721223CDE9032303210423CDE906135E
:1035900003A900F08DFD0295236C43F4001323640E
:1035A000236C03F400130293029B09B030BD00BFEB
:1035B00000540040003802400004024010B50446A8
:1035C00088B01422002103A802F0BEFA22681F4B23
:1035D0009A4239D103F59C3300220192596C1C4860
:1035E00041F001015964596C01F001010191019907
:1035F0000292196B41F0010119631B6B03F0010387
:1036000002934FF44072029B0223CDE9032303A9E6
:103610000123079300F04CFD00221146182000F012
:1036200035FB182000F064FB00221146192000F041
:103630002DFB192000F05CFB00221A20114600F03F
:1036400025FB1A2000F054FB08B010BD000001401B
:103650000000024010B504468EB01422002109A8D3
:1036600002F072FA2368B3F1804F0DD10023019369
:103670004C4B1A6C42F001021A641B6C03F00103FC
:103680000193019B0EB010BD474A934227D1454B91
:103690004648002402941A6C42F004021A641A6C20
:1036A00002F004020292029A03941A6B42F00202A0
:1036B0001A631B6B03F0020303938022039B09A987
:1036C0000223CDE909230D9300F0F2FC1E202246CF
:1036D000214600F0DBFA1E2000F00AFBD2E7344A54
:1036E00093421FD12F4B3348002104911A6C42F0B2
:1036F00008021A641A6C02F008020492049A0591F6
:103700001A6B42F001021A631B6B03F0010305936D
:10371000059B09A90223CDE90933CDE90C3300F05B
:10372000C7FCAFE7244A934211D11E4B00220692F8
:10373000596C41F4803159645B6C03F48033069317
:1037400018201146069B00F0A1FA1820C4E71B4A76
:10375000934211D1134B00220792596C41F400316E
:1037600059645B6C03F40033079319201146079BDF
:1037700000F08CFA1920AFE7114A934282D1094B2D
:1037800000220892596C41F4802159645B6C03F467
:10379000802308931A201146089B00F077FA1A201C
:1037A0009AE700BF003802400008004000040240D1
:1037B000000C004000000240004001400044014075
:1037C0000048014010B5044686B01422002101A82B
:1037D00002F0BAF92368B3F1804F15D100230093AA
:1037E0000A4B0B481A6B42F001021A631B6B03F081
:1037F000010300930222009B01A90123CDE90132BC
:10380000CDE9042300F054FC06B010BD003802409E
:1038100000000240FEE7FEE7FEE7FEE7FEE7704736
:103820007047704700F0C2B808B5044801F064FB67
:10383000BDE80840024801F05FBB00BF3006002031
:10384000E007002008B5044801F056FBBDE8084039
:10385000024801F051BB00BF30060020780600206E
:1038600008B5044801F048FBBDE80840024801F0F3
:1038700043BB00BF30060020C0060020014801F015
:103880003BBB00BF500700200B4A116810B5034630
:1038900009B90A491160106809490A4C0344091B17
:1038A0008B4206D902F018F90C2303604FF0FF3069
:1038B00010BD1360FCE700BF84080020C008002092
:1038C0000000012000040000034AD2F8883043F4CD
:1038D0007003C2F88830704700ED00E0DFF834D0A4
:1038E0000D480E490E4A002302E0D458C450043358
:1038F000C4188C42F9D30B4A0B4C002301E013602F
:103900000432A242FBD3FFF7DFFF02F0EBF8FEF731
:1039100073FA70470000012000000020140100200D
:10392000C066000814010020BC080020FEE700006B
:1039300038B50E4A0E4B054618784FF47A73B3FB30
:10394000F0F31068B0FBF3F000F0E0F9044658B96A
:103950000F2D09D8024629464FF0FF3000F096F9A6
:10396000044B20461D6038BD0120FCE7A400002068
:10397000A8000020AC00002008B50B4B1A6842F4E8
:1039800000721A601A6842F480621A601A6842F47F
:1039900080721A60032000F067F90F20FFF7C8FF5C
:1039A000FFF786FD002008BD003C0240034A044B9F
:1039B00011681B780B441360704700BF8808002013
:1039C000A8000020014B1868704700BF880800203D
:1039D00038B50446FFF7F6FF631C1CBF054B1B7888
:1039E000054618BFE418FFF7EDFF431BA342FAD3C7
:1039F00038BD00BFA800002038B50446002800F0FC
:103A00009B80056C25B9FFF76FFD656484F83C5019
:103A1000236CDB0600F18E80236C23F4885323F0A3
:103A2000020343F002032364444B5A6822F44032F9
:103A30005A605A6861680A435A60236821695A6863
:103A400022F480725A605A6842EA01225A605A6827
:103A5000A16822F040725A605A680A435A609A6814
:103A6000E16822F400629A609A680A439A603449D5
:103A7000A26A8A4252D0996821F07061996099686F
:103A80000A439A609A68E16A22F040529A609A6802
:103A90000A439A609A6822F002029A609A68217E2C
:103AA00042EA41029A6094F82020002A3ED05A68E7
:103AB000616A42F400625A605A6822F460425A60B5
:103AC0005A68013942EA41325A60DA6AE16922F4FD
:103AD0007002DA62DA6A013942EA0152DA629A68FD
:103AE00022F400729A609A6894F8301042EA4122F7
:103AF0009A609A68616922F480629A609A680020EC
:103B000042EA81229A606064236C23F0030343F04D
:103B100001032364002384F83C3038BD9A6822F006
:103B200070629A609A6822F04052B2E75A6822F4B2
:103B30000062C9E70120EDE70120EEE70023014024
:103B40000100000FF7B50023019390F83C30012BE2
:103B500066D0012380F83C300D6803688E68092D1B
:103B6000ACB231D904EB4402DF681E3A4FF0070CC7
:103B70000CFA02FC27EA0C07DF60DF6806FA02F2A3
:103B80003A43DA604968062901EB81022CD8596B67
:103B9000053A1F26964021EA06015963596B04FA3B
:103BA00002F20A435A632C4A934207D1122D39D1AB
:103BB000D2F8043343F48003C2F80433002380F8BE
:103BC0003C30184603B0F0BD1F6905EB45024FF0CD
:103BD000070C0CFA02FC27EA0C071F611F6906FAA2
:103BE00002F23A431A61CDE70C294FF01F010BD8BE
:103BF0001E6B233A914026EA01011963196B04FAFE
:103C000002F20A431A63CEE7DE6A413A914026EA9D
:103C10000101D962D96A04FA02F20A43DA62C2E700
:103C20000220CFE7A5F11003012BC7D80B4A536838
:103C3000102D43F400035360C0D1094B094A1B689F
:103C4000B3FBF2F30A2253430193019B002BB5D03F
:103C5000019B013BF8E700BF002001400023014029
:103C6000A400002040420F000749CA6822F4E06225
:103C70000302120403F4E063120C134343F0BF6326
:103C800043F40033CB60704700ED00E0164B30B5D5
:103C9000DC68C4F30224C4F10705231D042D28BFEA
:103CA0000425062B4FF0FF338CBF033C002403FA9E
:103CB00005F521EA0501A34022EA0302A1400028FC
:103CC00041EA0203ACBF00F16040084A4FEA031327
:103CD000B8BF00F00F00DBB2AABF00F5614013547B
:103CE00080F8003330BD00BF00ED00E014ED00E0CF
:103CF000002808DB4209012300F01F0003FA00F04E
:103D0000014B43F82200704700E100E00138B0F1B8
:103D1000807F0BD24FF0E023054A5861F02182F8F2
:103D200023100020072298611A6170470120704714
:103D300000ED00E0094910B50C6924F440740C61F1
:103D40000C6944F440740C610C6944F001040C618A
:103D50000260BFF36F8F436010BD00BF003C0240A4
:103D6000074B1A6922F440721A611A6942F4007210
:103D70001A611A6942F001021A610160704700BFBE
:103D8000003C0240074B1A6922F440721A611A691A
:103D900042F480721A611A6942F001021A610180CC
:103DA000704700BF003C0240204BDA68D00606D5C1
:103DB0001F49CA6942F01002CA611022DA60DA684B
:103DC000910606D51A49CA6942F00802CA61202242
:103DD000DA60164BDA68520606D51549CA6942F010
:103DE0000402CA614022DA60DA68100606D510497A
:103DF000CA6942F00202CA618022DA600B4BDA68BB
:103E0000D10507D50A49CA6942F00102CA614FF4D7
:103E10008072DA60DA68920706D50549CA6942F00D
:103E20002002CA610222DA60704700BF003C0240F3
:103E30008C080020064B1A69002ABFBF054A5A6049
:103E400002F188325A60BABF1869C00F002070476B
:103E5000003C024023016745034A136943F00043D5
:103E600013610020704700BF003C0240114B70B549
:103E700000220446DA61FFF7A5FD0F4D0646EB6808
:103E8000DA030CD4EB68DB0744BF0123EB60E8687E
:103E900010F4F97007D0FFF787FF012003E0611CE1
:103EA000EDD00CB9032070BDFFF78CFD801BA04244
:103EB000E5D9F7E78C080020003C0240F7B5204E1A
:103EC00001931446327E012A07460D4635D0012261
:103ED0004CF250303276FFF7C9FFB8B9019BCFB929
:103EE000184B1A6922F440721A611A691A611A6928
:103EF000E4B242F001021A612C704CF25030FFF72C
:103F0000B5FF104A136923F00103136100233376D0
:103F100003B0F0BD012F04D1A1B22846FFF732FF54
:103F2000EBE7022F04D121462846FFF719FFE4E70B
:103F300022462846FFF7FEFEDFE70220E8E700BF43
:103F40008C080020003C0240074B196921F44071A5
:103F50001961196941F0040119611A6942EA0020E6
:103F600040F4803018617047003C024039B10129AB
:103F70001CD002290CBF4FF400714FF440710D4B5F
:103F80001A6922F440721A611A69114319611A6997
:103F900022F0F8021A611A6942EAC00040F00200F9
:103FA00018611A6942F480321A6170474FF48071C7
:103FB000E5E700BF003C0240144B1A6891050FD59D
:103FC0001A6822F400721A601A6842F400621A60D9
:103FD0001A6822F400621A601A6842F400721A60C9
:103FE0000A4B1A6852050FD51A6822F480621A60CB
:103FF0001A6842F480521A601A6822F480521A60D9
:104000001A6842F480621A60704700BF003C0240A8
:104010002DE9F843DFF8948098F81830012B054615
:104020000F463FD001234CF2503088F81830FFF78C
:104030001DFF0446A0B94FF0FF333B602B68012BF6
:1040400014D1287CFFF780FF4CF25030FFF70EFFB1
:10405000154A136923F0040304461361FFF7ACFF0C
:10406000002388F818302046BDE8F883AE68DFF8F2
:104070003890D5E902231344B342EFD9297C304666
:10408000FFF774FF4CF25030FFF7F0FED9F8103014
:1040900023F0FA03C9F8103010B13E600446DDE7A2
:1040A0000136E6E70224DEE7003C02408C080020EF
:1040B0002DE9F74FDFF884915E4A00230D68012453
:1040C0009C4004EA050CAC4340F0A5804D6805F027
:1040D00003044FEA43080326671E06FA08F6012F79
:1040E0006FEA060634D8876807EA060ECF6807FA33
:1040F00008F747EA0E078760476827EA0C0EC5F302
:1041000000179F4047EA0E074760C76807EA060E98
:104110008F6807FA08F747EA0E07022CC76019D123
:104120004FEAD30A00EB8A0A03F0070BDAF8207093
:104130004FEA8B0B4FF00F0E0EFA0BFE27EA0E0E16
:104140000F6907FA0BF747EA0E07CAF8207001E07B
:10415000032CDAD1076804FA08F43E40264315F42C
:10416000403F066057D04FF0000ACDF804A0D9F8C0
:104170004460314C46F48046C9F84460D9F8446044
:1041800006F480460196019E23F0030606F1804660
:1041900006F59C3603F0030ED6F808804FEA8E0E23
:1041A0000F2707FA0EF7A04228EA07073AD004F5CE
:1041B0008064A04238D004F58064A04236D004F573
:1041C0008064A04234D004F58064A0420CBF042473
:1041D000072404FA0EF43C43B46094686FEA0C06BA
:1041E000EF0254BF34404CEA04049460D468AF0238
:1041F00054BF34404CEA0404D4605468AF0354BF45
:1042000034404CEA040454601468ED0354BF344055
:104210004CEA040414600133102B7FF44FAF03B059
:10422000BDE8F08F5446D4E70124D2E70224D0E75A
:104230000324CEE7003C0140000002400038024069
:104240000369194214BF0120002070470AB181613F
:1042500070470904FBE701684B6913F480634FF072
:10426000000210D06FF480634B612023026380F85A
:104270003D3080F83E20036C80F83C2043F004037E
:10428000036401207047184670472DE9F84606463A
:104290000F4691461D464FEA114A3368BAF1010FA5
:1042A0000CBF5C699C6927EA0404A4B2B4FA84F4E4
:1042B0006409A14501D0002017E06A1CEED0FFF789
:1042C00081FB089BC01AA84201D8002DE5D100232C
:1042D0002022336386F83D2086F83E30326C86F823
:1042E0003C3042F0200232640120BDE8F8862DE91E
:1042F000F04104460F46164698462568686927EA45
:10430000000080B2B8B16B695A0516D52B6843F42A
:1043100000732B606FF480636B61202200232363A2
:1043200084F83D2084F83E30226C42F0040222647E
:1043300084F83C300120BDE8F081731CDED0FFF72B
:1043400041FBA0EB0800B04201D8002ED5D10023DC
:104350002022236384F83D2084F83E30226C42F012
:104360002002E4E770B504460D46164623685B69F3
:104370005B0701D5002070BD2046FFF76CFFA8B990
:104380006A1CF3D0FFF71EFB801BA84201D8002D4A
:10439000ECD100232022236384F83D2084F83E30B2
:1043A000226C84F83C3042F0200222640120E2E7D3
:1043B00070B504460D46164623685B691B0601D599
:1043C000002070BD2046FFF746FFA8B96A1CF3D055
:1043D000FFF7F8FA801BA84201D8002DECD100238A
:1043E0002022236384F83D2084F83E30226C84F838
:1043F0003C3042F0200222640120E2E770B504461E
:1044000008B9012070BD90F83D3003F0FF021BB9E0
:1044100080F83C20FFF79AF8242384F83D30236885
:104420001A6822F001021A601A6842F400421A6007
:104430001A6822F400421A6000F0DAFB3F4B65680C
:104440009D4294BF3E4B3F4B98428CBF00230123BB
:10445000002BD6D12268394E53683B49B0FBF1F1AD
:1044600023F03F030B43B542536088BF4FF4967669
:10447000136A88BF714323F03F0384BF4FF47A76F9
:10448000B1FBF6F1013119431162D169431E2B488A
:1044900021F44F41854221F0FF0132D86D0040F6F2
:1044A000FC70B3FBF5F30133034242D0C3F30B03BB
:1044B0000B43D361D4E907301168034321F0C001F5
:1044C0000B4313609168D4E9030321F403410343D0
:1044D00021F0FF010B439360D4E90530D168034319
:1044E00021F0FF010B43D360136843F00103136015
:1044F00000202023206484F83D30206384F83E00AF
:1045000080E7A06850B905EB4505B3FBF5F301332F
:10451000C3F30B037BB143F40043C9E719204543C0
:10452000B3FBF5F30133C3F30B0323B143F440436F
:10453000BEE70423BCE70123BAE700BFA086010061
:104540007F841E00FF083D0040420F002DE9F0432C
:10455000044685B098460C9F0D469146FFF732FA07
:1045600094F83D30202B064604D00225284605B09D
:10457000BDE8F08300905D49192301222046FFF732
:1045800084FE0028F1D194F83C30012BEDD0216855
:10459000012384F83C300B68DA075EBF0B6843F0F8
:1045A00001030B600B6823F400630B60212384F884
:1045B0003D30102384F83E3000232364A4F82A8081
:1045C000638D23854A4BE362E36AC4F82490082B89
:1045D00004D0012B02D013F5803F04D10B6843F4C3
:1045E00080730B6002E0236B122BF7D00022009641
:1045F0003B464FF001112046FFF747FE226838B1D5
:104600001368DB0544BF4FF4007323640125ADE755
:104610002369B3F5804F21D105F0FE0515613549B9
:1046200033463A462046FFF762FE05460028EDD1A4
:10463000236803905A6903929B690393039B238D1C
:10464000F3B921680A6842F400720A60202284F8F3
:104650003D2084F83C3084F83E3087E7EB1103F0CE
:10466000060343F0F0031361234933463A462046DC
:10467000FFF73DFE0028C9D12368EDB21D61CEE7EA
:10468000324639462046FFF793FE40B1236C042B97
:10469000BCD12268136843F400731360B6E7636A01
:1046A00020681A4612F8011B01616262628D013AAC
:1046B00092B26285228DD0F814C0511E89B21CF0CE
:1046C000040F21850AD049B1597801610233636230
:1046D000638D013B9BB2023A63852285324639469F
:1046E0002046FFF73FFE0028A9D0CFE702001000C8
:1046F0000000FFFF02000100080001002DE9F34166
:10470000044640B30368DD0710D4236898075ED4DD
:1047100023681A0700F1A08023685B0700F1C080BE
:10472000A069002840F0288100202BE08F4B9A6878
:1047300002F00C02042A07D09A6802F00C02082A40
:104740000BD15A68510208D5884B1B689A03DCD5F7
:104750006368002BD9D1012014E06268B2F5803F74
:1047600013D11A6842F480321A60FFF72BF97F4E9A
:10477000054633689B03C8D4FFF724F9401B64281F
:10478000F7D9032002B0BDE8F081784DB2F5A02F33
:104790002B6807D143F480232B602B6843F48033CC
:1047A0002B60E2E723F480332B602B6823F4802313
:1047B0002B60002AD9D1FFF705F906462B689F0325
:1047C000A3D5FFF7FFF8801B6428F7D9D9E7674B1B
:1047D0009A6812F00C0F07D09A6802F00C02082AAF
:1047E00011D15B685E020ED4604A13689D0702D542
:1047F000E368012BAFD11368216923F0F80343EA82
:10480000C103136084E7E268594BB2B101221A6018
:10481000FFF7D8F8554D06462B68980707D52B6843
:10482000226923F0F80343EAC2032B6070E7FFF725
:10483000C9F8801B0228EFD9A3E71A60FFF7C2F876
:104840004A4E0546336899077FF562AFFFF7BAF81D
:10485000401B0228F6D994E76269454B82B10122D8
:10486000C3F8802EFFF7AEF8404E0546736F9F07E2
:104870003FF552AFFFF7A6F8401B0228F6D980E7B4
:10488000C3F8802EFFF79EF8384E0546736F9807E1
:104890007FF542AFFFF796F8401B0228F6D970E784
:1048A000324B1A6C12F0805228D101921A6C42F0ED
:1048B00080521A641B6C03F080530193019B012703
:1048C0002C4D2B68D9051BD5A368284D012B27D16A
:1048D0002B6F43F001032B67FFF774F8234E054657
:1048E00041F28838336F9B0739D5002F3FF418AF5A
:1048F0001E4A136C23F08053136411E70027DFE78F
:104900002B6843F480732B60FFF75CF806462B6836
:10491000DA05D9D4FFF756F8801B0228F7D930E71B
:10492000052B04D12B6F43F004032B67D0E72A6FCC
:1049300022F001022A672A6F22F004022A67002B64
:10494000CAD1FFF73FF841F2883806462B6F980727
:10495000CBD5FFF737F8801B4045F7D911E7FFF7B4
:1049600031F8401B4045BDD90BE700BF003802407D
:104970000000474200700040364DAB6803F00C0366
:10498000082B3DD0344B002202281A662BD1FFF7AA
:1049900019F806462B6899011FD4D4E9073213434E
:1049A000626A43EA8213E26A43EA0263A26A520835
:1049B000013A43EA02436B60274B264D01221A66F7
:1049C000FFF700F804462B689A013FF5ADAEFEF7FD
:1049D000F9FF001B0228F6D9D3E6FEF7F3FF801B90
:1049E0000228D7D9CDE6FEF7EDFF04462B689B01E0
:1049F0007FF59AAEFEF7E6FF001B0228F6D9C0E667
:104A000001283FF4BFAE6B68E26903F48001914274
:104A10007FF4A1AE216A03F03F028A427FF49BAE8D
:104A2000616A47F6C0721A40B2EB811F7FF493AE01
:104A3000A26A520803F44031013AB1EB024F7FF40D
:104A40008AAEE26A03F07063B3EB026F3FF46CAEC0
:104A500081E600BF0038024000004742134908B514
:104A60008B6803F00C03042B1CD0082B1CD14A6864
:104A70004B68496813F4800314BF0D480D48C1F317
:104A8000881118BF002302F03F02A1FB0001FCF7D0
:104A9000C5F8064B5B68C3F3014301335B00B0FB11
:104AA000F3F008BD0248FCE70248FAE7003802408C
:104AB00040787D010024F4002DE9F0410D460446C4
:104AC00010B90120BDE8F081444B1A6802F00702DA
:104AD0008A4228D3226897072DD4D00741D43F4B70
:104AE0001A6802F00702AA4266D8226851076CD4FD
:104AF000130707D53A4A2169936823F4604343EAD0
:104B0000C1039360FFF7AAFF354B364A9B68C3F396
:104B10000313D35CD840344B1860344B1868FEF74D
:104B200007FF0020CEE7CAB21A701B6803F0070324
:104B30008B42C6D1CEE72A4B12F0040F1EBF9968F4
:104B400041F4E0519960160742BF996841F4604111
:104B500099602349A0688B6823F0F00303438B60BE
:104B6000BBE762681E4B012A1CD11B6813F4003F8F
:104B7000A7D01B4EB36823F003031343B360FEF7C3
:104B800021FF41F288380746B368626803F00C03DE
:104B9000B3EB820FA3D0FEF715FFC01B4045F3D93E
:104BA00003208FE7911E01291B6802D813F0007FB4
:104BB000DEE713F0020FDBE7EAB21A701B6803F0BE
:104BC0000703AB427FF47DAF8FE70549E0688B6850
:104BD00023F4E05303438B608AE700BF003C0240AC
:104BE0000038024062660008A4000020AC000020EB
:104BF000044B054A9B68C3F38223D35C034A1068C5
:104C0000D84070470038024072660008A4000020B7
:104C1000036A23F001030362036A70B54468826982
:104C20000D6822F073022A438D6823F002032B43A0
:104C30000A4DA8420BD1CD6823F008032B43D1E9DC
:104C4000055624F44074354323F004032C43446098
:104C500082614A684263036270BD00BF0000014088
:104C6000036A23F480730362036A70B54468C269FF
:104C70000D6822F073022A438D6823F4007343EA1F
:104C800005230B4DA8420DD1CD6823F4006343EA00
:104C90000523D1E9055624F44054354323F48063B9
:104CA00044EA05144460C2614A68C263036270BD8D
:104CB00000000140036A23F480530362036A30B5A5
:104CC0004468C2690D6822F4E64242EA05228D6812
:104CD00023F4005343EA0533064DA84202BF4D6951
:104CE00024F4804444EA85144460C2614A68026442
:104CF000036230BD0000014090F83D30012B24D10B
:104D00000223134A80F83D300368934212D0B3F176
:104D1000804F0FD0A2F57C4293420BD002F5806207
:104D2000934207D002F58062934203D002F59A3293
:104D3000934204D19A6802F00702062A03D01A6847
:104D400042F001021A60002070470120704700BF46
:104D5000000001400368196A41F21112114208D1A2
:104D6000196A40F24442114202BF1A6822F001025D
:104D70001A60012380F83D300020704790F83D30E4
:104D8000012B28D1022380F83D300368DA6842F015
:104D90000102DA60114A934212D0B3F1804F0FD072
:104DA000A2F57C4293420BD002F58062934207D079
:104DB00002F58062934203D002F59A32934204D105
:104DC0009A6802F00702062A03D01A6842F001022C
:104DD0001A60002070470120704700BF00000140AA
:104DE0000368DA6822F00102DA60196A41F21112EE
:104DF000114208D1196A40F24442114202BF1A68B6
:104E000022F001021A60012380F83D300020704733
:104E10007047704730B590F83E2090F83F3090F8DA
:104E2000425090F84340D2B2DBB2EDB2E4B2E9B9FD
:104E3000012A5AD1012D5AD1022380F83E3080F840
:104E4000423003681A6A22F001021A621A6A42F0BA
:104E500001021A62DA6842F00202DA60026813683C
:104E600043F0010313600023184630BD042915D117
:104E7000012B3AD1012CF7D1022380F83F3080F882
:104E8000433003681A6A22F010021A621A6A42F06A
:104E900010021A62DA6842F00402DEE7012A24D125
:104EA000012B24D1012DDFD1012CDDD1022380F88B
:104EB0003E3080F83F3080F8423080F8433003685D
:104EC0001A6A22F001021A621A6A42F001021A6298
:104ED0001A6A22F010021A621A6A42F010021A626A
:104EE000DA6842F00202DA60D4E70123BCE7134635
:104EF000BAE770477047704703681A69910710B5A1
:104F000004460ED5DA6892070BD56FF002021A61DB
:104F1000012202779B699B0777D0FCF72DFB0023CA
:104F2000237723681A69500710D5DA6851070DD521
:104F30006FF004021A61022222779B6913F4407F0A
:104F4000204668D0FCF718FB0023237723681A69F2
:104F500012070FD5DA6810070CD56FF008021A6136
:104F600004222277DB69990720465AD0FCF704FB1C
:104F70000023237723681A69D20610D5DA68D00691
:104F80000DD56FF010021A6108222277DB6913F445
:104F9000407F20464BD0FCF7EFFA002323772368AD
:104FA0001A69D10708D5DA68D20705D56FF0010272
:104FB0001A612046FCF758FA23681A69100608D5CA
:104FC000DA68110605D56FF080021A61204600F0FC
:104FD00082FD23681A69520608D5DA68500605D59D
:104FE0006FF040021A612046FFF785FF23681A69B7
:104FF000910622D5DA6892061FD56FF0200220466E
:105000001A61BDE8104000F065BDFFF772FF204651
:10501000FFF770FF83E7FFF76CFF2046FFF76AFF9B
:1050200092E7FFF766FF2046FFF764FFA0E7FFF770
:1050300060FF2046FFF75EFFAFE710BD244A03681C
:1050400090420ED0B0F1804F0BD0A2F57C4290423E
:1050500007D002F58062904203D002F58062904250
:1050600015D14A6823F070031343194A904219D0AE
:10507000B0F1804F16D0A2F57C42904212D002F5DA
:10508000806290420ED002F5806290420AD0114AAE
:10509000904207D002F58062904203D002F5806210
:1050A000904203D1CA6823F4407313434A6923F042
:1050B0008003134303608B68C3620B688362044BF5
:1050C000984204BF0B69036301234361704700BF2B
:1050D000000001400040014010B5044630B390F894
:1050E0003D3003F0FF021BB980F83C20FEF7B2FA16
:1050F0000223206884F83D30211DFFF79FFF012324
:1051000084F84630002084F83E3084F83F3084F83C
:10511000403084F8413084F8423084F8433084F8D9
:10512000443084F8453084F83D3010BD0120FCE760
:1051300010B5044630B390F83D3003F0FF021BB9C0
:1051400080F83C20FFF764FE0223206884F83D309D
:10515000211DFFF773FF012384F84630002084F8F7
:105160003E3084F83F3084F8403084F8413084F891
:10517000423084F8433084F8443084F8453084F871
:105180003D3010BD0120FCE710B5044630B390F867
:105190003D3003F0FF021BB980F83C20FFF739FED9
:1051A0000223206884F83D30211DFFF747FF0123CB
:1051B00084F84630002084F83E3084F83F3084F88C
:1051C000403084F8413084F8423084F8433084F829
:1051D000443084F8453084F83D3010BD0120FCE7B0
:1051E000F8B50D46044600284DD090F83D3003F048
:1051F000FF021BB980F83C20FEF7E0F921460223AC
:1052000084F83D3051F8040B836823F4804323F085
:1052100007038360FFF712FF20682A6886688369A6
:10522000A968076A1643AA6923F4407341EA022178
:1052300023F003030B4323F47C422B69E9691B0130
:1052400043EA0123E9680B43296A22F0FC0243EA9E
:1052500001331343696927F0AA026F68866047EA41
:105260000117836117430123076284F84630002049
:1052700084F83E3084F83F3084F8423084F843307C
:1052800084F83D30F8BD0120FCE70000036A23F0FC
:1052900010030362036A70B5446882690D6822F4E2
:1052A000E64242EA05228D6823F0200343EA051313
:1052B0000B4DA8420DD1CD6823F0800343EA0513BE
:1052C000D1E9055624F44064354323F0400344EA11
:1052D0008504446082614A688263036270BD00BFD6
:1052E0000000014070B590F83C30012B054653D0CA
:1052F0000120082A85F83C003DD006D8C2B1042A16
:1053000028D0002385F83C3070BD0C2AF9D12868DC
:10531000FFF7D0FC2B680969DA6942F40062DA61B0
:10532000DA6922F48062DA61DA6942EA012231E064
:105330002868FFF76DFC2B6809699A6942F008023A
:105340009A619A6922F004029A619A690A439A6101
:105350000020D6E72868FFF799FF2B6809699A694A
:1053600042F400629A619A6922F480629A619A69B1
:1053700042EA0122EBE72868FFF772FC2B68096913
:10538000DA6942F00802DA61DA6922F00402DA61CD
:10539000DA690A43DA61DBE70220B5E770B5046A2F
:1053A000164E24F001040462B0428469056A21D0DB
:1053B000B0F1804F1ED0A6F57C46B0421AD006F55B
:1053C0008066B04216D006F58066B04212D006F56F
:1053D0009A36B0420ED044F001021B01DBB222F03B
:1053E000F0021A4301F00A0125F00A031943826111
:1053F000016270BD24F003042243EEE70000014087
:10540000F8B590F83C30012B05460C4600F0898039
:10541000012085F83C009AB9CB682868D1E90012D0
:10542000FFF7BCFF2B68A1689A6922F00C029A6111
:105430009A690A439A610020002385F83C30F8BD40
:10544000042A23D12B681E6A26F01006D1E9002712
:10545000C9681E6298691E6A20F4407040EA0720FD
:10546000090320F4704089B21201014302F0A00246
:1054700026F0A000024399611A629A69A16822F499
:1054800040629A619A6942EA0122D3E7082A22D14E
:105490002B681E6A26F48076D1E90020C9681E6256
:1054A000DF691E6A27F003073843090120F0F00086
:1054B000C9B21202014302F4206226F420600243C2
:1054C000D9611A62DA69A16822F00C02DA61DA693C
:1054D0000A43DA61AFE70C2AAED12B681E6A26F4C4
:1054E0008056D1E90027C9681E62D8691E6A20F477
:1054F000407040EA0720090320F4704089B212038B
:10550000014302F4204226F420400243D9611A628A
:10551000DA69A16822F44062DA61DA6942EA0122BA
:10552000D7E702208BE710B58468114324F47F4449
:1055300041EA03232343836010BD70B590F83C30EB
:10554000012B04464FF0020300F09180012280F805
:105550003D3080F83C200068836823F47F4323F0CB
:10556000770383600B68602B52D033D8402B67D011
:1055700016D8202B0DD00AD833F0100109D0012302
:1055800084F83D30002384F83C30104670BD302B49
:10559000F5D1826822F07002134343F0070317E04D
:1055A000502BECD14A68CE68016A056A25F00105E6
:1055B0000562836921F00A0123F0F00343EA061330
:1055C0000A4383610262836823F0700343F0570348
:1055D000836011E0B3F5805F0ED0B3F5005F0DD0AE
:1055E000702BCCD1CB68D1E90121FFF79CFF226859
:1055F000936843F0770393600022C0E7CB68D1E95A
:105600000121FFF790FF2268936843F48043F2E79B
:105610004D68CE68016A21F0100101628269036A57
:1056200022F4704223F0A00343EA051342EA063253
:1056300082610362836823F0700343F06703C7E766
:105640004A68CE68016A056A25F00105056283692A
:1056500021F00A0123F0F00343EA06130A438361B1
:105660000262836823F0700343F04703B0E71A46F1
:105670008BE70068826838B54B680C6822F07002CE
:105680001A4322F007022243502B82602CD010D8FC
:10569000402B19D04BD8202B14D005D833F0100351
:1056A00014BF0120002038BDB3F1300018BF012025
:1056B000F9E7602B28D0702B39D10B69D1E9022191
:1056C000FFF731FF0020EEE7052C30D0026A036AB5
:1056D000096923F001030362836923F0F00343EABD
:1056E000011383610262EDE78A680D69016A046A49
:1056F00024F001040462836921F00A0123F0F0031D
:1057000043EA05130A43ECE78C680D69016A21F04E
:10571000100101628269036A22F4704223F0A0033F
:1057200042EA053243EA041382610362CAE70120B8
:10573000B9E738B590F83C30012B04464FF002032E
:105740001CD0012580F83C5080F83D30FFF791FFD8
:1057500030B1002384F83D5084F83C30284638BDF1
:105760002368DA6822F04002DA60DA6822F48042C4
:10577000DA6084F83D5084F83C00F0E71846EEE724
:10578000036A01F01F0110B501248C4023EA0403D1
:105790000362036A8A401A43026210BD10B50446D0
:1057A00029B990F83E30012B21D0012010BD0429E9
:1057B00007D190F83F30012BF7D1022384F83F3016
:1057C00018E0082907D190F84030012BEDD10223D1
:1057D00084F840300EE090F84130012BE5D10429E7
:1057E000EBD00829F3D0022380F8413002E00223F5
:1057F00080F83E3001222068FFF7C2FF2368124A7A
:1058000093420AD15A6C42F400425A649A6802F0F8
:105810000702062A13D10020C8E7B3F1804FF5D064
:105820000A4A9342F2D002F580629342EED002F52A
:1058300080629342EAD002F59A329342E6D01A6827
:1058400042F001021A60E6E7000001400004004057
:10585000FFF7A4BF38B50446002200680D46FFF7E5
:105860008FFF2368184A93420DD1196A41F2111231
:10587000114208D1196A40F24442114202BF5A6CE7
:1058800022F400425A64196A41F21112114208D1FD
:10589000196A40F24442114202BF1A6822F0010222
:1058A0001A6001231DB984F83E30002038BD042D54
:1058B00002D184F83F30F8E7082D0CBF84F840305F
:1058C00084F84130F1E700BF00000140FFF7C2BF9C
:1058D00010B5044600293BD190F83E3090F84200C4
:1058E000DBB2012BC0B26AD1012868D102230029A2
:1058F00044D1226884F83E3084F84230D36843F0C3
:105900000203D36020680122FFF73AFF23682D4A83
:10591000934212D0B3F1804F0FD0A2F57C42934254
:105920000BD002F58062934207D002F58062934269
:1059300003D002F59A32934204D19A6802F007022A
:10594000062A03D01A6842F001021A60002037E0EC
:10595000042905D190F83F3090F84300DBB2C0E74E
:1059600008290BBF90F8403094F8413090F844007B
:1059700094F845000CBFDBB2DBB2B2E7042908D1D2
:10598000226884F83F3084F84330D36843F004033E
:10599000B7E7082908D1226884F8403084F84430F9
:1059A000D36843F00803ACE70C2984F8413084F84D
:1059B000453005D12268D36843F01003A1E70120E8
:1059C00010BD00BF00000140082938B505460C464F
:1059D00032D004D851B1042929D0012038BD0C2976
:1059E000FBD10268D36823F0100303E00268D36898
:1059F00023F00203D360214600222868FFF7C0FE8F
:105A00002B68196A41F21112114208D1196A40F249
:105A10004442114202BF1A6822F001021A600123B7
:105A20007CB985F83E3085F842300020D6E7026820
:105A3000D36823F00403DDE70268D36823F008038A
:105A4000D8E7042C04D185F83F3085F84330ECE7E3
:105A5000082C0BBF85F8403085F8413085F844307C
:105A600085F84530E1E7000030B590F83C30012B77
:105A70004FF002032AD080F83D3003680D685C685F
:105A80009A6824F070042C435C60114CA34212D03D
:105A9000B3F1804F0FD0A4F57C44A3420BD004F5A2
:105AA0008064A34207D004F58064A34203D004F5C8
:105AB0009A34A34204D1496822F080020A439A60D2
:105AC000012380F83D30002380F83C30184630BD7B
:105AD0000000014070477047014B1868704700BFD5
