:020000040800F2
:1000000000000120A92A0008ED290008EF290008B6
:10001000F1290008F3290008F52900080000000074
:10002000000000000000000000000000F7290008A8
:10003000F929000800000000FB290008FD2900083C
:10004000F92A0008F92A0008F92A0008F92A000804
:10005000F92A0008F92A0008F92A0008F92A0008F4
:10006000F92A0008F92A0008F92A0008F92A0008E4
:10007000F92A0008F92A0008F92A0008F92A0008D4
:10008000F92A0008F92A0008F92A000800000000EF
:10009000000000000000000000000000F92A000835
:1000A000012A00081D2A0008392A0008F92A000838
:1000B000F92A0008F92A0008F92A0008F92A000894
:1000C000F92A0008F92A0008F92A0008F92A000884
:1000D000F92A0008F92A0008F92A0008000000009F
:1000E000F92A0008F92A0008F92A0008000000008F
:1000F000000000000000000000000000F92A0008D5
:1001000000000000F92A0008F92A0008F92A00086E
:1001100000000000000000000000000000000000DF
:10012000F92A0008F92A0008F92A0008F92A000823
:10013000F92A000800000000000000000000000094
:10014000000000000000000000000000F92A000884
:10015000F92A0008F92A0008F92A0008F92A0008F3
:10016000F92A0008F92A0008000000000000000039
:10017000000000000000000000000000000000007F
:1001800000000000F92A0008000000000000000044
:04019000F92A000840
:1001A00010B5054C237833B9044B13B10448AFF3B1
:1001B00000800123237010BD840000200000000097
:1001C000384E000808B5034B1BB103490348AFF391
:1001D000008008BD0000000088000020384E0008A4
:1001E000034613F8012B002AFBD1181A0138704777
:1001F00001F0FF01102A2BDB10F0070F08D010F8D8
:10020000013B013A8B422DD010F0070F42B3F6D1DB
:10021000F0B441EA012141EA014122F007047FF0F4
:1002200000070023F0E80256083C85EA010586EA4B
:10023000010685FA47F5A3FA87F586FA47F6A5FA87
:1002400087F68EB9EED1F0BC01F0FF0102F0070293
:1002500032B110F8013B013A83EA010313B1F8D13E
:100260000020704701387047002D06BF354603381F
:10027000073815F0010F07D1013015F4807F02BF58
:10028000013015F4C03F0130F0BC0138704700BFA9
:1002900070B54FF0FF0C4CF4E06C1CEA11541DBF1C
:1002A0001CEA135594EA0C0F95EA0C0F00F0DEF8E7
:1002B0002C4481EA030621EA4C5123EA4C5350EACC
:1002C000013518BF52EA033541F4801143F480131D
:1002D00038D0A0FB02CE4FF00005E1FB02E506F0AE
:1002E0000042E0FB03E54FF00006E1FB03569CF003
:1002F000000F18BF4EF0010EA4F1FF04B6F5007F09
:1003000064F5407404D25FEA4E0E6D4146EB06067A
:1003100042EAC62141EA55514FEAC52040EA5E5003
:100320004FEACE2EB4F1FD0C88BFBCF5E06F1ED8AD
:10033000BEF1004F08BF5FEA500E50F1000041EBE4
:10034000045170BD06F0004646EA010140EA020091
:1003500081EA0301B4EB5C04C2BFD4EB0C0541EAB3
:10036000045170BD41F480114FF0000E013C00F3C8
:10037000AB8014F1360FDEBF002001F0004170BDEC
:10038000C4F10004203C35DA0C341BDC04F1140405
:10039000C4F1200500FA05F320FA04F001FA05F291
:1003A00040EA020001F0004221F0004110EBD3705E
:1003B00021FA04F642EB06015EEA430E08BF20EA8A
:1003C000D37070BDC4F10C04C4F1200500FA04F32D
:1003D00020FA05F001FA04F240EA020001F00041BF
:1003E00010EBD37041F100015EEA430E08BF20EA32
:1003F000D37070BDC4F1200500FA05F24EEA020E7A
:1004000020FA04F301FA05F243EA020321FA04F0A8
:1004100001F0004121FA04F220EA020000EBD3705F
:100420005EEA430E08BF20EAD37070BD94F0000F5F
:100430000FD101F00046400041EB010111F4801F93
:1004400008BF013CF7D041EA060195F0000F18BF44
:10045000704703F00046520043EB030313F4801F80
:1004600008BF013DF7D043EA0603704794EA0C0F3A
:100470000CEA135518BF95EA0C0F0CD050EA410650
:1004800018BF52EA4306D1D181EA030101F00041CD
:100490004FF0000070BD50EA410606BF10461946F5
:1004A00052EA430619D094EA0C0F02D150EA013601
:1004B00013D195EA0C0F05D152EA03361CBF104642
:1004C00019460AD181EA030101F0004141F0FE41E1
:1004D00041F470014FF0000070BD41F0FE4141F465
:1004E000780170BD81F0004102E000BF83F000435D
:1004F00030B54FEA41044FEA430594EA050F08BFBF
:1005000090EA020F1FBF54EA000C55EA020C7FEA82
:10051000645C7FEA655C00F0E2804FEA5454D4EBFF
:100520005555B8BF6D420CDD2C4480EA020281EAC9
:10053000030382EA000083EA010180EA020281EA01
:100540000303362D88BF30BD11F0004F4FEA013153
:100550004FF4801C4CEA113102D0404261EB410162
:1005600013F0004F4FEA03334CEA133302D05242E8
:1005700063EB430394EA050F00F0A780A4F10104A4
:10058000D5F1200E0DDB02FA0EFC22FA05F28018DE
:1005900041F1000103FA0EF2801843FA05F35941C4
:1005A0000EE0A5F120050EF1200E012A03FA0EFC43
:1005B00028BF4CF0020C43FA05F3C01851EBE3716D
:1005C00001F0004507D54FF0000EDCF1000C7EEB8A
:1005D00000006EEB0101B1F5801F1BD3B1F5001FC8
:1005E0000CD349085FEA30004FEA3C0C04F10104E7
:1005F0004FEA445212F5800F80F09A80BCF1004F10
:1006000008BF5FEA500C50F1000041EB045141EA91
:10061000050130BD5FEA4C0C404141EB0101013C5A
:1006200028BFB1F5801FE9D291F0000F04BF014649
:100630000020B1FA81F308BF2033A3F10B03B3F11B
:1006400020020CDA0C3208DD02F1140CC2F10C02AB
:1006500001FA0CF021FA02F10CE002F11402D8BF09
:10066000C2F1200C01FA02F120FA0CFCDCBF41EAD5
:100670000C019040E41AA2BF01EB0451294330BDA4
:100680006FEA04041F3C1CDA0C340EDC04F1140481
:10069000C4F1200220FA04F001FA02F340EA030058
:1006A00021FA04F345EA030130BDC4F10C04C4F19E
:1006B000200220FA02F001FA04F340EA030029467E
:1006C00030BD21FA04F0294630BD94F0000F83F4C8
:1006D000801306BF81F480110134013D4EE77FEAAB
:1006E000645C18BF7FEA655C29D094EA050F08BFF7
:1006F00090EA020F05D054EA000C04BF19461046D8
:1007000030BD91EA030F1EBF0021002030BD5FEA1B
:10071000545C05D14000494128BF41F0004130BD43
:1007200014F580043CBF01F5801130BD01F0004597
:1007300045F0FE4141F470014FF0000030BD7FEA0A
:10074000645C1ABF194610467FEA655C1CBF0B4605
:10075000024650EA013406BF52EA033591EA030F1C
:1007600041F4002130BD00BF90F0000F04BF002114
:10077000704730B54FF4806404F132044FF0000547
:100780004FF0000150E700BF90F0000F04BF0021C0
:10079000704730B54FF4806404F1320410F0004526
:1007A00048BF40424FF000013EE700BF42004FEA21
:1007B000E2014FEA31014FEA02701FBF12F07F439E
:1007C00093F07F4F81F06051704732F07F4208BF55
:1007D000704793F07F4F04BF41F40021704730B55C
:1007E0004FF4607401F0004521F000411CE700BFA8
:1007F00050EA010208BF704730B54FF000050AE02B
:1008000050EA010208BF704730B511F0004502D52B
:10081000404261EB41014FF4806404F132045FEA2D
:10082000915C3FF4D8AE4FF003025FEADC0C18BFD6
:1008300003325FEADC0C18BF033202EBDC02C2F1C8
:10084000200300FA03FC20FA02F001FA03FE40EA5A
:100850000E0021FA02F11444BDE600BF4FF0FF3C48
:1008600006E000BF4FF0010C02E000BF4FF0010CAA
:100870004DF804CD4FEA410C7FEA6C5C4FEA430C23
:1008800018BF7FEA6C5C1BD001B050EA410C0CBF72
:1008900052EA430C91EA030F02BF90EA020F0020D4
:1008A000704710F1000F91EA030F58BF994208BF3B
:1008B00090422CBFD8176FEAE37040F001007047F8
:1008C0004FEA410C7FEA6C5C02D150EA013C07D14F
:1008D0004FEA430C7FEA6C5CD6D152EA033CD3D09A
:1008E0005DF8040B704700BF8446104662468C4694
:1008F0001946634600E000BF01B5FFF7B7FF0028C7
:1009000048BF10F1000F01BD4DF808EDFFF7F4FFEF
:100910000CBF012000205DF808FB00BF4DF808ED7A
:10092000FFF7EAFF34BF012000205DF808FB00BF9D
:100930004DF808EDFFF7E0FF94BF012000205DF8BF
:1009400008FB00BF4DF808EDFFF7CEFF94BF012074
:1009500000205DF808FB00BF4DF808EDFFF7C4FF6D
:1009600034BF012000205DF808FB00BF4FEA4102C0
:10097000B2F1E04324BFB3F5001CDCF1FE5C0DD9FD
:1009800001F0004C4FEAC0024CEA5070B2F1004F47
:1009900040EB830008BF20F00100704711F0804F4A
:1009A00021D113F13872BCBF01F00040704741F40F
:1009B00080114FEA5252C2F11802C2F1200C10FA13
:1009C0000CF320FA02F018BF40F001004FEAC123F7
:1009D0004FEAD32303FA0CFC40EA0C0023FA02F39B
:1009E0004FEA4303CCE77FEA625307D150EA013371
:1009F0001EBF4FF0FE4040F44000704701F0004041
:100A000040F0FE4040F40000704700BF53B94AB9BF
:100A1000002908BF00281CBF4FF0FF314FF0FF3006
:100A200000F074B9ADF1080C6DE904CE00F006F8E1
:100A3000DDF804E0DDE9022304B070472DE9F0475A
:100A4000089D04468E46002B4DD18A42944669D9B2
:100A5000B2FA82F252B101FA02F3C2F1200120FA95
:100A600001F10CFA02FC41EA030E94404FEA1C48E3
:100A7000210CBEFBF8F61FFA8CF708FB16E341EADF
:100A8000034306FB07F199420AD91CEB030306F165
:100A9000FF3080F01F81994240F21C81023E634486
:100AA0005B1AA4B2B3FBF8F008FB103344EA03442A
:100AB00000FB07F7A7420AD91CEB040400F1FF333F
:100AC00080F00A81A74240F207816444023840EA7C
:100AD0000640E41B00261DB1D4400023C5E90043B5
:100AE0003146BDE8F0878B4209D9002D00F0EF8038
:100AF0000026C5E9000130463146BDE8F087B3FA6B
:100B000083F6002E4AD18B4202D3824200F2F98052
:100B1000841A61EB030301209E46002DE0D0C5E955
:100B2000004EDDE702B9FFDEB2FA82F2002A40F0A1
:100B30009280A1EB0C014FEA1C471FFA8CFE0126A4
:100B4000200CB1FBF7F307FB131140EA01410EFB48
:100B500003F0884208D91CEB010103F1FF3802D2EF
:100B6000884200F2CB804346091AA4B2B1FBF7F0E9
:100B700007FB101144EA01440EFB00FEA64508D90C
:100B80001CEB040400F1FF3102D2A64500F2BB8049
:100B90000846A4EB0E0440EA03409CE7C6F1200798
:100BA000B34022FA07FC4CEA030C20FA07F401FADE
:100BB00006F31C43F9404FEA1C4900FA06F3B1FB67
:100BC000F9F8200C1FFA8CFE09FB181140EA0141CC
:100BD00008FB0EF0884202FA06F20BD91CEB010169
:100BE00008F1FF3A80F08880884240F28580A8F1C1
:100BF00002086144091AA4B2B1FBF9F009FB101113
:100C000044EA014100FB0EFE8E4508D91CEB0101B0
:100C100000F1FF346CD28E456AD90238614440EA53
:100C20000840A0FB0294A1EB0E01A142C846A646D3
:100C300056D353D05DB1B3EB080261EB0E0101FA5C
:100C400007F722FA06F3F1401F43C5E900710026B9
:100C50003146BDE8F087C2F12003D8400CFA02FC0F
:100C600021FA03F3914001434FEA1C471FFA8CFE1F
:100C7000B3FBF7F007FB10360B0C43EA064300FB0F
:100C80000EF69E4204FA02F408D91CEB030300F1AD
:100C9000FF382FD29E422DD9023863449B1B89B264
:100CA000B3FBF7F607FB163341EA034106FB0EF3ED
:100CB0008B4208D91CEB010106F1FF3816D28B429A
:100CC00014D9023E6144C91A46EA004638E72E4666
:100CD000284605E70646E3E61846F8E64B45A9D25E
:100CE000B9EB020864EB0C0E0138A3E74646EAE7CD
:100CF000204694E74046D1E7D0467BE7023B61447B
:100D000032E7304609E76444023842E7704700BFE3
:100D1000064B1870064B1970064B1A70064B0022D2
:100D20001A70064B08221A70704700BFA0000020FE
:100D3000A3000020AB000020A2000020A1000020A2
:100D40001FB5084B08491B781843642300938DF89E
:100D50000C0009780548012303AA02F0A5FB05B0A1
:100D60005DF804FBA1000020A0000020E0040020AA
:100D700010B5044640F00400FFF7E2FF012001F047
:100D80000DFF04F0FB00FFF7DBFFBDE81040012082
:100D900001F004BF10B50446FFF7D2FF2046BDE8BE
:100DA0001040FFF7E5BF38B5054620F00F000C46B0
:100DB0000843FFF7EFFF44EA0510C0B2BDE8384032
:100DC000FFF7E8BF70B5044668B1FFF709FA0546BA
:100DD0002618B44201D1284670BD14F8010B012138
:100DE000FFF7E1FFF5E70546F5E70021FFF7DBBF79
:100DF00008B50120FFF7F9FFBDE80840022001F027
:100E0000CDBE08B50220FFF7F0FFBDE80840022084
:100E100001F0C4BE044B187840F0040240F00C000E
:100E20001A70FFF7E2BF00BFA4000020084B03299F
:100E30001B7828BF03218B429CBF03F1FF31C9B24D
:100E4000044B5B5C184460F07F00C0B2FFF7CDBF7D
:100E5000AB000020A700002010B5284C0023237011
:100E6000274B1978012984BF08232370254B1A7852
:100E7000254B0020187040209A7002445870DA7098
:100E8000224B1B782BB1012902BF237843F00403C6
:100E90002370322001F082FE1D4B1878FFF750FFBF
:100EA000012001F07BFE3020FFF774FF052001F0E8
:100EB00075FE3020FFF76EFF052001F06FFE302039
:100EC000FFF768FF052001F069FE2020FFF762FFB1
:100ED000207840F02000FFF788FF0E4B04221A70A4
:100EE000FFF798FFFFF784FF0B4B022206201A70D2
:100EF000FFF77BFFBDE81040FFF783BFA500002090
:100F0000AB000020A3000020A7000020A2000020CA
:100F1000A1000020A4000020A60000202DE9F04739
:100F2000054617460E4605F1006501F031FF05F54F
:100F300000353C4606EB070AA946B846D0452FD1F6
:100F40004FF0000807F10109464539D80027BE4295
:100F500031D96278A37820781B041202D218E37882
:100F60002CBF0121002112184FEA036041F100015A
:100F700043F3C013821843EB010123790B446179D9
:100F800003EB0123A17903EB0143E179032003EB98
:100F90000163791901F040FF083460B90837D6E7DA
:100FA0000023494618F8012B184601F035FF09F1D6
:100FB00001090028C2D001F0FDFE0120BDE8F08744
:100FC00017F8083019F8082008EB050143EA022257
:100FD0000120002301F020FF0028ECD108F10208D5
:100FE000B2E70000F0B587B00126044601F0D0FE5C
:100FF0000523CDE9033600270223694601A8CDE980
:101000000176059301F0B2FF054678B901F0D2FEF2
:10101000009B01330ED134B907484FF48062FF21A1
:1010200003F0A2FA3446204607B0F0BD01F0C2FE3C
:101030003C46F8E72C46F6E7AC0000200144B1F549
:10104000003F10B517D80D4C814201D8012010BDCA
:1010500032B100F1006303F500331B7802F8013B65
:10106000B0F5806F3FBF00F1006303F500331B78DC
:1010700023540130E8E70020E9E700BFAC0000207E
:1010800000224FF480611046FFF7D8BF08B50B4629
:101090001146C218B2F5806F07D841B11A46054B08
:1010A000184403F053FA012008BD0020FCE708466D
:1010B000FAE700BFAC00002008B50120FFF792FF5F
:1010C00038B1BDE80840034A4FF480610020FFF7C3
:1010D00025BF08BDAC000020B5EEC00AF1EE10FA45
:1010E00030B54FF06402044630D5DFED257A60EE6E
:1010F000277AFDEEE77A17EE903AF1EE407A93FB0D
:10110000F2F1FDEEE77A02FB11339BB20A25B3FB45
:10111000F5F105FB11333033E3708BB2B3FBF5F11E
:1011200005FB11333033A37017EE902A2E23601C79
:101130006370002A1ADCB5EEC00AF1EE10FA42BF65
:101140002D2300F8013C00F1FF3030BDDFED0D7ABA
:1011500060EE277AFDEEE77A17EE903A93FBF2F114
:1011600002FB1133FDEEC07A9BB2CFE792FBF5F3A1
:1011700005FB1322303200F8012D1A46D9E700BFD3
:101180000000C8C20000C84230B595B0102200214E
:101190000AA803F0E9F91422002103A803F0E4F9F6
:1011A0001F4B002101911A6C42F080521A641B6C93
:1011B0001C4A03F080530193019B0291136823F4AE
:1011C000404343F400431360136803F44043029325
:1011D000029B01244FF48033CDE9084302254FF4EC
:1011E0008003CDE90E531922A823CDE9102308A8C6
:1011F0000423CDE9123302F02FFA08B172B6FEE7EC
:10120000CDE905000F230790214603A8CDE903355A
:1012100002F000FC08B172B6FEE715B030BD00BFA9
:101220000038024000700040104B984203D1104B30
:1012300001221A8070470F4B98420FD10E4B0F4A74
:101240001B8813B1138801339BB213800C4B1A888F
:101250000C4B002AEDD01A880132EAE70A4B98427B
:1012600001BF0A4A1368013313607047C4050020A8
:10127000D40600207C050020BC040020B804002017
:10128000BA040020AE04002054060020D804002038
:101290000E4B0F49186910F0010010B508D06FF01F
:1012A00001021A6147F6FF725A6200200A6010BDFF
:1012B0005A6A0B6892B2D41A0134022C81BF981A70
:1012C00000EBD07040100A60F1E700BF0000014061
:1012D0000C00002070B586B006460C461546314914
:1012E000024603A803F048F9002E30DD092E12DC77
:1012F000E4B2E9B2601CC0B20191FFF797FD2A4841
:10130000FFF760FD20460199FFF790FD03A8FFF766
:1013100059FD06B070BD632E03DCE4B2E9B2A01C37
:10132000E9E7B6F57A7F03DAE4B2E9B2E01CE2E776
:1013300042F20F739E4203DCE4B2E9B2201DDAE709
:101340001A4B9E42E5DCE4B2E9B2601DD3E71AD045
:1013500016F1090FE1DA16F1630F08DBE4B2A01C05
:10136000E9B2C0B20191FFF761FD1148C8E716F577
:101370007A7FCEDDE4B2A01CE9B2C0B20191FFF7E2
:1013800055FD0C48BCE7E4B2E9B220460191FFF7F5
:101390004DFD0748FFF716FD20460199FFF746FD72
:1013A0000548B4E7504E00080F4F00089F86010023
:1013B0000E4F00080D4F00086A4E000830B52DEDA5
:1013C000028BF7EE007A85B0B4EEE70A0023F1EE67
:1013D00010FAB0EE408A8DF80C30C4B2C9B210D504
:1013E0002046FFF723FD0C48FFF7ECFC02A8B0EE07
:1013F000480AFFF771FEFFF7E5FC05B0BDEC028B74
:1014000030BD02A80191FFF767FE0199054620460D
:10141000FFF70CFD2846EEE76A4E000880F0010059
:10142000C2B20221014801F0BFBE00BF000002406D
:1014300008B5C2B20221044801F0B6FEBDE808407A
:101440000248002103F01EB8000002400C060020F4
:10145000012806D181F00102D2B20448042101F032
:10146000A3BE08B9CAB2F8E7704700BF0000024047
:101470004FF0804310B5196811F00101044602D104
:101480000F4802F0C1FFACB10E4BDFED0F6A988838
:10149000604307EE900AB8EEE77A4FF08042C6EE5E
:1014A000877AFCEEE77A17EE903A0133D3625B0855
:1014B000536310BD21460248BDE8104002F0E2BF70
:1014C0000C060020A40600202634164F2DE9F0411A
:1014D0000446B1F800C02388B1F9005024482549DA
:1014E000C689B0F810E0B4F90070ACEB03020A80D2
:1014F000214AB2F80080A8450DD0B6FBFEF6A2F84E
:1015000000C0EA1B002AB8BF524292B20A80B2FB66
:10151000F6F21A4E3280BD421FDD184A0988128841
:10152000914200D9BAB901332380B4F9003007EEF3
:10153000103AD0F80630B8EEC77A07EE903AC7EE08
:10154000277AFCEEE77A17EE903A98B2FFF790FF11
:101550002088BDE8F0811344E6E7E6DA074A098807
:101560001288914200D90AB9013BDDE79B1ADBE7FB
:10157000A4060020DC040020BA060020AC040020F1
:1015800038B5064D2B688342044605D0FFF7A2FE0E
:101590000348FFF717FC2C6038BD00BFC4060020CD
:1015A000544E000810B54FF40051104801F0F6FDFC
:1015B0004FF4805104460D4801F0F0FD44EA000369
:1015C000DBB26BB104EA0003DBB263B9002C14BFD9
:1015D000002300F00103002B14BF0120002010BDE8
:1015E0004FF0FF30FBE70220F9E700BF00040240A4
:1015F0000F4B1B8810B504465BB9FFF749FE2388E3
:1016000018442080B4F90020002A0BDC0123238039
:101610000DE0012BF6D1FFF73BFE23880A2202FBE7
:101620000030EEE7034B5B8999B28A42EFDC10BDD4
:10163000CA060020A406002010B518484FF4004147
:1016400001F0ACFDD0B91649164B08881A88164B24
:1016500020B901240C801A8000B210BD1B88591CCF
:10166000914201DB0020F7E709339A420F4B02DC7D
:1016700001221A80F6E703201880EDE70B4A108854
:1016800003284FF0000306D0054901280B8002D142
:1016900000231380E0E71846FAE700BF0004024089
:1016A000BC040020B8040020D2060020BE060020A2
:1016B00010B517484FF4804101F070FDC8B9154CC2
:1016C000154A23881188154A23B9012020801180EA
:1016D00018B210BD1288541C8C42F9DA09329142BA
:1016E0000F4AD5BF0123032313801380D8BF0346BD
:1016F000EEE70B490B88032B4FF0000206D005489C
:10170000012B028002D100220A80E1E71346FAE7AA
:1017100000040240BA040020AE040020B2040020FD
:10172000BC06002070B586B06A46034600F110067C
:10173000154618685968144603C40833B342224654
:10174000F7D1186820609B88A38000242A192046BE
:1017500001210134FFF79AFC162CF7D1FFF7ACFCFE
:1017600080B206B070BD2DE9F04188B00DF10808D7
:10177000044600260127454630460DF107020121A7
:10178000FFF75CFC013600289DF8073008F8013BA4
:1017900008BF0027162EEFD12A46234606AD144671
:1017A00003CCAC4218605960224603F10803F6D11D
:1017B00020681860A2889A80384608B0BDE8F08199
:1017C0002DE9F04FA84CA94E0023C4F80630402361
:1017D0002DED028B33716FF00B03002501274FF0C5
:1017E0000609B37233734FF080486FF0170325700A
:1017F0006570A570E57025716571A572E572257338
:101800006573A573E57325746574A574E574257512
:10181000657535707570B570F57086F80590C6F809
:101820000680F7727773B373032395B0F373322393
:101830003374B3747574F5743575757501F082F988
:10184000FFF7A2FC294614220BA802F08DFE884B5C
:1018500002951A6B874842F080021A631A6B02F0F5
:1018600080020292029A03951A6B3A431A631A6B2A
:101870003A400392039A04951A6B42F002021A63EB
:101880001B6B03F002032A4604934946049B01F0B4
:101890008BFC78480BA9CDE90D55CDE90B9701F0EC
:1018A000B5FB4FF4704374480D950BA9CDE90B358A
:1018B00001F0ACFB71487249724B0562C0E900133C
:1018C0004FF48043C0E90255C0E90435C0E906552C
:1018D00001F042FD054608B172B6FEE7DFF8C4919B
:1018E000DFF8C4B101461C220CA802F03DFE4FF007
:1018F000020A4FF6FF730BA94846CDE90755C9E91F
:1019000000B5C9E90335C9E90555C9F808500B9771
:101910000D97CDF83CA01197CDF84CA002F088FBB4
:1019200008B172B6FEE7CDE9070007A9484602F004
:10193000ABFD814608B172B6FEE747F6FF73CBF800
:1019400024306FF00103504DCBF8103001461022C7
:1019500007A802F009FE1C2249460BA8CDE905990B
:1019600002F002FEC5E9008928464FF08008C5E96B
:10197000029AC5F81090C5F8188002F001FB08B172
:1019800072B6FEE74FF4805307A92846079302F08A
:1019900037FC08B172B6FEE7284602F01DFB08B11D
:1019A00072B6FEE7CDE9050005A9284602F06CFDF8
:1019B000024608B172B6FEE76023CDE90B370D9001
:1019C00004230BA928460F9302F0B4FB074608B185
:1019D00072B6FEE7284600F0E1FF2C482C4B8760EA
:1019E00040F28225C0E9003540F6C143C0E9033723
:1019F000C0F8188002F0C4FA034608B172B6FEE7D8
:101A00002448254A8360C0E9002541F68312C0E9D5
:101A10000323C0F8188002F0B3FA08B172B6FEE7EB
:101A2000102200210BA802F09FFD1C4F1C4A40F21F
:101A30008223C7E90023002341F68312C7E902325B
:101A40003B6138468023BB6102F09AFA08B172B656
:101A5000FEE74FF480530BA938460B9302F0D0FBFE
:101A6000804618B372B6FEE7A4060020BE0400202C
:101A7000003802400000024000040240E004002060
:101A800000540040A08601000C060020C405002080
:101A9000004801407C05002000440140540600201D
:101AA000004001403405002000000140FFF7E8FA43
:101AB000042214214E20FFF72BF9FFF7CDF9012165
:101AC0000220FFF7B3F9834D8348DFF85C92DFF81B
:101AD0005CA2DFF824B2FFF775F93C217F48A5F836
:101AE000008002F0EAF87E4802F0B4F87D4802F087
:101AF000B1F838467C4F02F0ADF83E607B4EC9F835
:101B000000403368CAF80030DAF8003032681E331B
:101B100093425AD2FFF76CF9D9F80000FFF723FE81
:101B200000BB01210846FFF781F97148FFF74AF928
:101B300002210120FFF77AF96E48FFF743F93B686D
:101B4000D9F8002003F1140153F8040B42F8040BF8
:101B50008B42F9D11B8813804FF4FA6001F01EF814
:101B6000FFF746F9A38A8BB13B68D9F8002003F14F
:101B7000140153F8040B42F8040B8B42F9D11B8873
:101B800013805D4B04221A8001232B80238ADFED12
:101B90005B6A5B4A584F07EE103AB8EE477AC7EED9
:101BA000267A9FED587A67EE877AFCEEE77A17EE91
:101BB000903A9BB2D3623B88042BFDD8DFE813F048
:101BC0001200BA004C014200C501FFF735FD0328A1
:101BD0004FF0040103BF0123ABF800102B80ABF8DA
:101BE000008091E7FFF7DEFC02280ED001210820DB
:101BF000FFF71CF94448FFF7E5F802210320FFF73F
:101C000015F94248FFF7DEF8D5E7FFF7F1F80021B4
:101C10000846FFF70BF93E48FFF7D4F801210020F2
:101C2000FFF704F93B48FFF7CDF83B4B608A18807B
:101C30003A4B002218800B2100B2FFF7A1FC0323CE
:101C40003B80B8E7344E3046FFF7D2FC334BB6F951
:101C50000000188000220B21FFF792FCFFF7ECFC3C
:101C600020B12F4B1A8802BB01221A802B8843B166
:101C700001210020FFF7DAF82648FFF7A3F8002338
:101C80002B80284EDFF8A8803388032B1CBF03234A
:101C90003380FFF787FC01280BD1B8F9003043B936
:101CA000032333803880288085E7012ADED1002293
:101CB000DBE7FFF777FCB8F80030184300B20028E4
:101CC0007FF479AF0323338002233B8001232B80F1
:101CD00071E700BF9C0600205C4E00083405002020
:101CE000C40500207C050020D4040020D804002076
:101CF0006C4E00087F4E0008C806002000007A44A1
:101D00000048014000267F478F4E0008964E00088D
:101D1000A54E0008B04E000810000020040000206E
:101D2000CA060020C0060020CC060020A006002025
:101D3000B6040020FFF780FC8D4EDFF8648230800F
:101D4000FFF7B6FC318880B20129A8F8000004D161
:101D5000884B1A88002A54D11980032856D1627BF7
:101D6000237B43EA0223844A1380FFF71BFC834B47
:101D700080B20128188050D17F4EB6F9003013B9D7
:101D80007F4B1B883380B8F80030032B0ED07A4885
:101D9000FFF72EFC7A4BB6F90000B3F9002082421F
:101DA00004D000220B211880FFF7EAFB2B8843B1F7
:101DB00001210020FFF73AF87248FFF703F80023EB
:101DC0002B80714E3388012B0CD062886F4882F0D3
:101DD0000102D2B2042101F0E7F92088FFF71EFBCF
:101DE000012333806A4E3388002B3FF4E4AEDFF8E2
:101DF000A48161494046FFF769FB0023A8F8000071
:101E00001CE0012A04BF00221A80A6E70028ACD1FA
:101E10005B4B1A88584B1A80A7E788B95D4B564E22
:101E2000B3F900303080002BC0D102233B80012366
:101E30002B802088FFF7FCFA514B1B883380BAE6D1
:101E40000228B3D14C4E00233380524BB3F90030FB
:101E5000002BABD10323E9E7FFF7EEFB444EDFF89D
:101E600040813080FFF724FC318880B20129A8F836
:101E7000000004D13F4B1A88002A42D11980032860
:101E800044D1627B237B43EA02233B4A1380FFF762
:101E900089FB3A4B80B2188000283ED1364EB6F905
:101EA000003013B9364B1B883380B8F80030032B51
:101EB0000ED03148FFF79CFB314BB6F90000B3F967
:101EC0000020824204D000220B211880FFF758FB2B
:101ED0002B8843B101210020FEF7A8FF2E48FEF712
:101EE00071FF00232B80284E3388022B3FF47AAFFA
:101EF00061880020FFF7ACFA2088FFF78FFA0223F1
:101F00006FE7012A04BF00221A80B8E70028BED17B
:101F10001B4B1A88184B1A80B9E701280AD1164EB4
:101F2000002333801B4BB3F90030002BD0D1388015
:101F300028807EE70228CBD10F4E00233380154B3B
:101F4000B3F90030002BC3D184E7144E33880A2B39
:101F50003FF631AEDFE813F026007F00D0002A0103
:101F6000C00117026E02C2021B038303D20300BF2B
:101F7000DE040020CA06002010000020D006002049
:101F800004000020BC4E0008C006002000000240F3
:101F9000D4060020B6040020C84E0008B404002077
:101FA000B00400202B88DFF8288303B3FFF770F913
:101FB000D8F800301844C8F80000FEF719FF0021D7
:101FC0000320FEF733FFB648FEF7FCFE0121002098
:101FD000FEF72CFFB348FEF7F5FE2088022158BB20
:101FE000FEF724FFB048FEF7EDFE00232B80FFF73D
:101FF0004FF9AE4B1A6810441860D8F80030984278
:1020000011D0C8F80000B4F800800221B8F1000F28
:1020100017D14046FEF70AFFA548FEF7D3FE01237D
:10202000237084F80180FFF707FB01287FF4C3AD1C
:1020300033880133338036E60020FEF7F7FE9C48F4
:10204000D1E70020FEF7F2FE9A48FEF7BBFE002320
:1020500023706370E7E72B88DFF8748203B3FFF720
:1020600017F9D8F800301844C8F80000FEF7C0FE91
:1020700000210320FEF7DAFE8948FEF7A3FE0121C6
:102080000020FEF7D3FE8C48FEF79CFE60880221FC
:1020900018BBFEF7CBFE8448FEF794FE00232B808E
:1020A000FFF7F6F8814B1A6810441860D8F8003032
:1020B0009842B8D0C8F80000B4F802800221B8F104
:1020C000000F0FD14046FEF7B1FE7948FEF77AFEC9
:1020D0000123A37084F80380A5E70020FEF7A6FE85
:1020E0007348D9E70020FEF7A1FE7248FEF76AFEAA
:1020F0000023A370E37096E72B88DFF8D48123B325
:10210000FFF7C6F8D8F800301844C8F80000FEF70A
:102110006FFE00210320FEF789FE6148FEF752FEA4
:1021200001210020FEF782FE6448FEF74BFE0222EA
:10213000A0880021FFF7CEF802210820FEF776FEE6
:102140005F48FEF73FFE00232B80FFF7A1F8574BB7
:102150001A6810441860D8F8003098423FF463AF12
:10216000C31AA288C8F8000003EB830303EB8303C0
:1021700002EB83039AB2A380A2F164039BB248F6F8
:1021800053018B4209D96423237100236371A08812
:1021900002220021FFF79EF845E743F698239A4272
:1021A000F5D96FF0670323713A23EFE72B88DFF847
:1021B00020A13BB3FFF76CF8DAF800301844CAF8F6
:1021C0000000FEF715FE00210320FEF72FFE344825
:1021D000FEF7F8FD01210020FEF728FE3948FEF742
:1021E000F1FDD4F80630022100EE103A0020FFF78E
:1021F000E5F802210A20FEF719FE3348FEF7E2FD5A
:1022000000232B80FFF744F8284B1A6800EB0208E4
:10221000DAF80000C3F8008080453FF404AFA8EB73
:102220000000FEF7B1FA1CA3D3E90023FEF730F853
:10223000FEF79CFBD4F80630DFF898B0CAF80080AF
:1022400007EE900A08EE103A37EE888A18EE103A38
:1022500018EE100ACBF80030FEF7A8FA0EA3D3E967
:102260000023FEF75BFB58B1184BCBF80030D4F8D5
:102270000630022100EE103A0020FFF79FF8D2E668
:10228000F2EE047AB4EEE78AF1EE10FAEFDD17EE23
:10229000903AEAE7AFF300807B14AE47E17A843FDF
:1022A000D44E0008E24E0008F74E0008000000205F
:1022B000044F0008114F00081E4F0008304F00085F
:1022C000454F0008514F0008624F00080AD7233CD1
:1022D00008000020AA0600202B88DFF8708323B3B3
:1022E000FEF7D6FFD8F800301844C8F80000FEF713
:1022F0007FFD00210320FEF799FDCB48FEF762FD2C
:1023000001210020FEF792FDC848FEF75BFD022286
:1023100060890021FEF7DEFF02210A20FEF786FD1C
:10232000C348FEF74FFD00232B80FEF7B1FFC14BE2
:102330001A6810441860D8F8003098423FF473AE21
:10234000C31A6289C8F8000003EB830303EB83031D
:1023500002EB43039AB26381A2F164039BB245F29C
:1023600077018B4207D96423A3720023E37260894B
:10237000022200210EE7B2F52F7FF8D96FF0430358
:10238000A3720223F2E72B88DFF8C08223B3FEF7A3
:102390007FFFD8F800301844C8F80000FEF728FD89
:1023A00000210320FEF742FD9F48FEF70BFD0121AF
:1023B0000020FEF73BFDA048FEF704FD0222A089A5
:1023C0000021FEF787FF02210A20FEF72FFD984823
:1023D000FEF7F8FC00232B80FEF75AFF954B1A6896
:1023E00010441860D8F8003098423FF41CAEC31A6D
:1023F000A289C8F8000003EB830303EB830302EB1D
:1024000043039AB2A381A2F132039BB245F2A90120
:102410008B4207D93223237300236373A0890222DE
:102420000021B7E6B2F52F7FF8D96FF0430323738D
:102430000223F2E72B88DFF8148223B3FEF728FF8C
:10244000D8F800301844C8F80000FEF7D1FC00218D
:102450000320FEF7EBFC7448FEF7B4FC01210020DA
:10246000FEF7E4FC7548FEF7ADFC0222608A00210D
:10247000FEF730FF02210A20FEF7D8FC6C48FEF779
:10248000A1FC00232B80FEF703FF6A4B1A6810445F
:102490001860D8F8003098423FF4C5AD628AC8F899
:1024A0000000C31A03EB830302EB43039AB2092A29
:1024B000638207D9638944F61F6111FA83F191425F
:1024C00098B207DA0A23A3740023E374608A022215
:1024D00000215FE6824288BF6382F7E72B88DFF83E
:1024E0006C8123B3FEF7D4FED8F800301844C8F846
:1024F0000000FEF77DFC00210320FEF797FC4A4810
:10250000FEF760FC01210020FEF790FC4C48FEF72E
:1025100059FC0222E0890021FEF7DCFE02210A209C
:10252000FEF784FC4748FEF74DFC00232B80FEF7A6
:10253000AFFE404B1A6810441860D8F8003098423B
:102540003FF471ADC31AE289C8F8000003EB8303BE
:1025500003EB830302EB83039AB2E381A2F57A7360
:102560009BB245F6BF518B4208D96FF01703A37396
:102570000323E373E089022200210BE641F2883352
:102580009A42F7D96FF07703A3731323F1E72B88EF
:10259000DFF8B88023B3FEF77BFED8F8003018448C
:1025A000C8F80000FEF724FC00210320FEF73EFCE3
:1025B0001D48FEF707FC01210020FEF737FC2248EA
:1025C000FEF700FC0222208A0021FEF783FE022192
:1025D0000A20FEF72BFC1B48FEF7F4FB00232B80A0
:1025E000FEF756FE134B1A6810441860D8F80030F6
:1025F00098423FF418AD228AC8F80000C31A03EBD2
:10260000830302EB43039AB22382A2F114039BB229
:1026100044F637718B421BD914232374002363744F
:10262000208A02220021B5E5D44E00086B4F000835
:102630007D4F000800000020864F0008994F0008D9
:10264000AB4F0008B54F0008BA4F00080800002043
:10265000B2F5967FE4D92C2323740123DFE72B887E
:10266000DFF838810BB3FEF713FED8F800301844BA
:10267000C8F80000FEF7BCFB00210320FEF7D6FBE4
:102680003C48FEF79FFB01210020FEF7CFFB3A48B4
:10269000FEF798FB394B1888022118BBFEF7C6FBE2
:1026A0003748FEF78FFB00232B80FEF7F1FD354BFB
:1026B0001A6810441860D8F8003098423FF4B3AC60
:1026C000C8F80000DFF8B480B8F80000022170B14B
:1026D0000020FEF7ABFB2A48FEF774FB0023A8F8A6
:1026E0000030A0E40020FEF7A1FB2748D9E7FEF761
:1026F0009DFB2548FEF766FB0123F0E71F4B198879
:1027000001292AD10023D9F80000019123756375AE
:10271000FFF708F80199064678B1FEF769FB052036
:102720000199FEF783FB1948FEF74CFB40F2DC50A1
:1027300000F034FA0023FFF783BA0191FEF758FB4B
:1027400001993046FEF772FB1148FEF73BFB07206C
:102750000221FEF76BFB0F48E6E7FEF749FB01217C
:102760000320FEF763FB0C48FEF72CFB4FF4FA60E6
:10277000DEE700BFD44E0008CC4F0008C2060020A0
:10278000DF4F000800000020F14F00080350000850
:102790000E500008235000082A50000808000020AE
:1027A00082B00C4B002100915A6C42F480425A6472
:1027B0005A6C02F480420092009A01911A6C42F025
:1027C00080521A641B6C03F080530193019B02B08A
:1027D000704700BF0038024030B5044689B014226B
:1027E000002103A801F0C0FE2268134B9A4221D1B8
:1027F000124C134800250195236B43F00203236319
:10280000236B03F002030193019BC0221223CDE945
:10281000032303210423CDE9061303A900F0F6FBEB
:102820000295236C43F400132364236C03F4001318
:102830000293029B09B030BD0054004000380240B2
:102840000004024010B5044688B01422002103A8F9
:1028500001F08AFE22681F4B9A4239D103F59C335E
:1028600000220192596C1C4841F001015964596CD5
:1028700001F00101019101990292196B41F00101EE
:1028800019631B6B03F0010302934FF44072029B28
:102890000223CDE9032303A90123079300F0B6FB2C
:1028A00000221146182000F09FF9182000F0CEF900
:1028B00000221146192000F097F9192000F0C6F9FE
:1028C00000221A20114600F08FF91A2000F0BEF9FC
:1028D00008B010BD00000140000002401FB50368B1
:1028E000B3F1804F0ED100230093284B1A6C42F0B5
:1028F00001021A641B6C03F001030093009B05B0F6
:102900005DF804FB224A934215D1204B002201922C
:10291000596C41F4803159645B6C03F4803301934A
:1029200018201146019B00F05FF9182005B05DF8F2
:1029300004EB00F08BB9174A934211D1134B0022DC
:102940000292596C41F4003159645B6C03F400331A
:10295000029319201146029B00F046F91920E5E781
:102960000D4A9342CBD1094B00220392596C41F49A
:10297000802159645B6C03F4802303931A20114671
:10298000039B00F031F91A20D0E700BF0038024065
:1029900000400140004401400048014010B5044699
:1029A00086B01422002101A801F0DEFD2368B3F1F6
:1029B000804F15D1002300930A4B0B481A6B42F04D
:1029C00001021A631B6B03F0010300930222009BB8
:1029D00001A90123CDE90132CDE9042300F016FB62
:1029E00006B010BD0038024000000240FEE7FEE7DE
:1029F000FEE7FEE7FEE770477047704700F0BCB89F
:102A000008B5044801F0CCF9BDE80840024801F0DF
:102A1000C7B900BF340500205406002008B504489B
:102A200001F0BEF9BDE80840024801F0B9B900BFA5
:102A3000340500207C05002008B5044801F0B0F9F9
:102A4000BDE80840024801F0ABB900BF34050020E2
:102A5000C40500200B4A116810B5034609B90A499C
:102A60001160106809490A4C0344091B8B4206D9BE
:102A700001F042FD0C2303604FF0FF3010BD1360E6
:102A8000FCE700BFD806002010070020000001204E
:102A900000040000034AD2F8883043F47003C2F8FF
:102AA0008830704700ED00E0DFF834D00D480E4963
:102AB0000E4A002302E0D458C4500433C4188C4298
:102AC000F9D30B4A0B4C002301E013600432A242FD
:102AD000FBD3FFF7DFFF01F015FDFEF771FE704736
:102AE0000000012000000020840000209450000815
:102AF0008400002010070020FEE7000038B50E4AD1
:102B00000E4B054618784FF47A73B3FBF0F3106858
:102B1000B0FBF3F000F0A8F8044658B90F2D09D81F
:102B2000024629464FF0FF3000F05EF8044B204685
:102B30001D6038BD0120FCE71400002018000020B3
:102B40001C00002008B50B4B1A6842F400721A6092
:102B50001A6842F480621A601A6842F480721A603D
:102B6000032000F02FF80F20FFF7C8FFFFF718FE33
:102B7000002008BD003C0240034A044B11681B784A
:102B80000B441360704700BFDC06002018000020D3
:102B9000014B1868704700BFDC06002038B50446BA
:102BA000FFF7F6FF631C1CBF054B1B78054618BFDB
:102BB000E418FFF7EDFF431BA342FAD338BD00BF73
:102BC000180000200749CA6822F4E06203021204D8
:102BD00003F4E063120C134343F0BF6343F4003388
:102BE000CB60704700ED00E0164B30B5DC68C4F3F5
:102BF0000224C4F10705231D042D28BF0425062B3C
:102C00004FF0FF338CBF033C002403FA05F521EAA3
:102C10000501A34022EA0302A140002841EA020381
:102C2000ACBF00F16040084A4FEA0313B8BF00F0A0
:102C30000F00DBB2AABF00F56140135480F80033E7
:102C400030BD00BF00ED00E014ED00E0002808DB1F
:102C50004209012300F01F0003FA00F0014B43F882
:102C60002200704700E100E00138B0F1807F0BD214
:102C70004FF0E023054A5861F02182F8231000202C
:102C8000072298611A6170470120704700ED00E04B
:102C9000094910B50C6924F440740C610C6944F4C2
:102CA00040740C610C6944F001040C610260BFF3D4
:102CB0006F8F436010BD00BF003C0240074B1A6994
:102CC00022F440721A611A6942F400721A611A6998
:102CD00042F001021A610160704700BF003C0240EF
:102CE000074B1A6922F440721A611A6942F4807221
:102CF0001A611A6942F001021A610180704700BF2F
:102D0000003C0240204BDA68D00606D51F49CA694C
:102D100042F01002CA611022DA60DA68910606D524
:102D20001A49CA6942F00802CA612022DA60164BC9
:102D3000DA68520606D51549CA6942F00402CA612A
:102D40004022DA60DA68100606D51049CA6942F0F6
:102D50000202CA618022DA600B4BDA68D10507D51E
:102D60000A49CA6942F00102CA614FF48072DA600E
:102D7000DA68920706D50549CA6942F02002CA619D
:102D80000222DA60704700BF003C0240E0060020EB
:102D9000064B1A69002ABFBF054A5A6002F1883201
:102DA0005A60BABF1869C00F00207047003C02404B
:102DB00023016745034A136943F000431361002070
:102DC000704700BF003C0240114B70B50022044622
:102DD000DA61FFF7DDFE0F4D0646EB68DA030CD42F
:102DE000EB68DB0744BF0123EB60E86810F4F9707F
:102DF00007D0FFF787FF012003E0611CEDD00CB97D
:102E0000032070BDFFF7C4FE801BA042E5D9F7E7A1
:102E1000E0060020003C0240F7B5204E0193144626
:102E2000327E012A07460D4635D001224CF2503041
:102E30003276FFF7C9FFB8B9019BCFB9184B1A69B1
:102E400022F440721A611A691A611A69E4B242F0F6
:102E500001021A612C704CF25030FFF7B5FF104A96
:102E6000136923F0010313610023337603B0F0BD2F
:102E7000012F04D1A1B22846FFF732FFEBE7022F62
:102E800004D121462846FFF719FFE4E722462846E9
:102E9000FFF7FEFEDFE70220E8E700BFE0060020C4
:102EA000003C0240074B196921F44071196119690E
:102EB00041F0040119611A6942EA002040F48030AF
:102EC00018617047003C024039B101291CD0022929
:102ED0000CBF4FF400714FF440710D4B1A6922F48E
:102EE00040721A611A69114319611A6922F0F802D5
:102EF0001A611A6942EAC00040F0020018611A69BA
:102F000042F480321A6170474FF48071E5E700BFE8
:102F1000003C0240144B1A6891050FD51A6822F440
:102F200000721A601A6842F400621A601A6822F489
:102F300000621A601A6842F400721A600A4B1A683A
:102F400052050FD51A6822F480621A601A6842F49A
:102F500080521A601A6822F480521A601A6842F489
:102F600080621A60704700BF003C02402DE9F843C0
:102F7000DFF8948098F81830012B05460F463FD0B3
:102F800001234CF2503088F81830FFF71DFF04463B
:102F9000A0B94FF0FF333B602B68012B14D1287C84
:102FA000FFF780FF4CF25030FFF70EFF154A136910
:102FB00023F0040304461361FFF7ACFF002388F8F5
:102FC00018302046BDE8F883AE68DFF83890D5E9C0
:102FD00002231344B342EFD9297C3046FFF774FF34
:102FE0004CF25030FFF7F0FED9F8103023F0FA031E
:102FF000C9F8103010B13E600446DDE70136E6E75F
:103000000224DEE7003C0240E00600202DE9F74FF5
:10301000DFF884915E4A00230D6801249C4004EA95
:10302000050CAC4340F0A5804D6805F003044FEA61
:1030300043080326671E06FA08F6012F6FEA060604
:1030400034D8876807EA060ECF6807FA08F747EA18
:103050000E078760476827EA0C0EC5F300179F40EC
:1030600047EA0E074760C76807EA060E8F6807FA47
:1030700008F747EA0E07022CC76019D14FEAD30AB6
:1030800000EB8A0A03F0070BDAF820704FEA8B0B8B
:103090004FF00F0E0EFA0BFE27EA0E0E0F6907FA1D
:1030A0000BF747EA0E07CAF8207001E0032CDAD1CB
:1030B000076804FA08F43E40264315F4403F0660D2
:1030C00057D04FF0000ACDF804A0D9F84460314C35
:1030D00046F48046C9F84460D9F8446006F4804656
:1030E0000196019E23F0030606F1804606F59C3604
:1030F00003F0030ED6F808804FEA8E0E0F2707FA6A
:103100000EF7A04228EA07073AD004F58064A042EF
:1031100038D004F58064A04236D004F58064A04223
:1031200034D004F58064A0420CBF0424072404FAC0
:103130000EF43C43B46094686FEA0C06EF0254BF8F
:1031400034404CEA04049460D468AF0254BF344065
:103150004CEA0404D4605468AF0354BF34404CEAD2
:10316000040454601468ED0354BF34404CEA040472
:1031700014600133102B7FF44FAF03B0BDE8F08F24
:103180005446D4E70124D2E70224D0E70324CEE753
:10319000003C01400000024000380240036919422F
:1031A00014BF0120002070470AB1816170470904F3
:1031B000FBE701684B6913F480634FF0000210D005
:1031C0006FF480634B612023026380F83D3080F808
:1031D0003E20036C80F83C2043F00403036401208C
:1031E0007047184670472DE9F84606460F46914647
:1031F0001D464FEA114A3368BAF1010F0CBF5C69F2
:103200009C6927EA0404A4B2B4FA84F46409A145D1
:1032100001D0002017E06A1CEED0FFF7B9FC089B34
:10322000C01AA84201D8002DE5D100232022336323
:1032300086F83D2086F83E30326C86F83C3042F00D
:10324000200232640120BDE8F8862DE9F0410446F1
:103250000F46164698462568686927EA000080B23E
:10326000B8B16B695A0516D52B6843F400732B600F
:103270006FF480636B6120220023236384F83D2078
:1032800084F83E30226C42F00402226484F83C3020
:103290000120BDE8F081731CDED0FFF779FCA0EBC4
:1032A0000800B04201D8002ED5D10023202223638C
:1032B00084F83D2084F83E30226C42F02002E4E79E
:1032C00070B504460D46164623685B695B0701D559
:1032D000002070BD2046FFF76CFFA8B96A1CF3D030
:1032E000FFF756FC801BA84201D8002DECD100232B
:1032F0002022236384F83D2084F83E30226C84F839
:103300003C3042F0200222640120E2E770B504461E
:103310000D46164623685B691B0601D5002070BD6B
:103320002046FFF746FFA8B96A1CF3D0FFF730FC30
:10333000801BA84201D8002DECD10023202223635A
:1033400084F83D2084F83E30226C84F83C3042F012
:10335000200222640120E2E770B5044608B901208A
:1033600070BD90F83D3003F0FF021BB980F83C209F
:10337000FFF732FA242384F83D3023681A6822F0DC
:1033800001021A601A6842F400421A601A6822F4B4
:1033900000421A6000F0DAFB3F4B65689D4294BF23
:1033A0003E4B3F4B98428CBF00230123002BD6D1CC
:1033B0002268394E53683B49B0FBF1F123F03F03DB
:1033C0000B43B542536088BF4FF49676136A88BFAB
:1033D000714323F03F0384BF4FF47A76B1FBF6F1DB
:1033E000013119431162D169431E2B4821F44F4129
:1033F000854221F0FF0132D86D0040F6FC70B3FB2E
:10340000F5F30133034242D0C3F30B030B43D36103
:10341000D4E907301168034321F0C0010B43136066
:103420009168D4E9030321F40341034321F0FF0130
:103430000B439360D4E90530D168034321F0FF01C9
:103440000B43D360136843F0010313600020202373
:10345000206484F83D30206384F83E0080E7A06853
:1034600050B905EB4505B3FBF5F30133C3F30B038B
:103470007BB143F40043C9E719204543B3FBF5F39F
:103480000133C3F30B0323B143F44043BEE70423EA
:10349000BCE70123BAE700BFA08601007F841E00BD
:1034A000FF083D0040420F002DE9F043044685B07F
:1034B00098460C9F0D469146FFF76AFB94F83D3005
:1034C000202B064604D00225284605B0BDE8F0832F
:1034D00000905D49192301222046FFF784FE002851
:1034E000F1D194F83C30012BEDD02168012384F810
:1034F0003C300B68DA075EBF0B6843F001030B60DA
:103500000B6823F400630B60212384F83D30102303
:1035100084F83E3000232364A4F82A80638D238539
:103520004A4BE362E36AC4F82490082B04D0012BD1
:1035300002D013F5803F04D10B6843F480730B6015
:1035400002E0236B122BF7D0002200963B464FF08F
:1035500001112046FFF747FE226838B11368DB05EA
:1035600044BF4FF4007323640125ADE72369B3F52D
:10357000804F21D105F0FE051561354933463A46A5
:103580002046FFF762FE05460028EDD12368039030
:103590005A6903929B690393039B238DF3B92168B6
:1035A0000A6842F400720A60202284F83D2084F800
:1035B0003C3084F83E3087E7EB1103F0060343F01C
:1035C000F0031361234933463A462046FFF73DFE98
:1035D0000028C9D12368EDB21D61CEE732463946D5
:1035E0002046FFF793FE40B1236C042BBCD1226828
:1035F000136843F400731360B6E7636A20681A46E1
:1036000012F8011B01616262628D013A92B2628519
:10361000228DD0F814C0511E89B21CF0040F2185F0
:103620000AD049B15978016102336362638D013B6D
:103630009BB2023A63852285324639462046FFF71F
:103640003FFE0028A9D0CFE7020010000000FFFFD6
:1036500002000100080001002DE9F341044640B3D7
:103660000368DD0710D4236898075ED423681A071F
:1036700000F1A08023685B0700F1C080A0690028EA
:1036800040F0288100202BE08F4B9A6802F00C025A
:10369000042A07D09A6802F00C02082A0BD15A6853
:1036A000510208D5884B1B689A03DCD56368002B50
:1036B000D9D1012014E06268B2F5803F13D11A68B5
:1036C00042F480321A60FFF763FA7F4E0546336892
:1036D0009B03C8D4FFF75CFA401B6428F7D903208A
:1036E00002B0BDE8F081784DB2F5A02F2B6807D16C
:1036F00043F480232B602B6843F480332B60E2E794
:1037000023F480332B602B6823F480232B60002A62
:10371000D9D1FFF73DFA06462B689F03A3D5FFF7E3
:1037200037FA801B6428F7D9D9E7674B9A6812F0FB
:103730000C0F07D09A6802F00C02082A11D15B68BE
:103740005E020ED4604A13689D0702D5E368012B20
:10375000AFD11368216923F0F80343EAC103136072
:1037600084E7E268594BB2B101221A60FFF710FA00
:10377000554D06462B68980707D52B68226923F01C
:10378000F80343EAC2032B6070E7FFF701FA801BDE
:103790000228EFD9A3E71A60FFF7FAF94A4E054667
:1037A000336899077FF562AFFFF7F2F9401B0228F3
:1037B000F6D994E76269454B82B10122C3F8802EA5
:1037C000FFF7E6F9404E0546736F9F073FF552AF8E
:1037D000FFF7DEF9401B0228F6D980E7C3F8802EF8
:1037E000FFF7D6F9384E0546736F98077FF542AF5D
:1037F000FFF7CEF9401B0228F6D970E7324B1A6C5E
:1038000012F0805228D101921A6C42F080521A6450
:103810001B6C03F080530193019B01272C4D2B68F7
:10382000D9051BD5A368284D012B27D12B6F43F059
:1038300001032B67FFF7ACF9234E054641F28838A8
:10384000336F9B0739D5002F3FF418AF1E4A136C16
:1038500023F08053136411E70027DFE72B6843F45C
:1038600080732B60FFF794F906462B68DA05D9D4EC
:10387000FFF78EF9801B0228F7D930E7052B04D11A
:103880002B6F43F004032B67D0E72A6F22F001026D
:103890002A672A6F22F004022A67002BCAD1FFF799
:1038A00077F941F2883806462B6F9807CBD5FFF79A
:1038B0006FF9801B4045F7D911E7FFF769F9401B05
:1038C0004045BDD90BE700BF003802400000474229
:1038D00000700040364DAB6803F00C03082B3DD060
:1038E000344B002202281A662BD1FFF751F9064605
:1038F0002B6899011FD4D4E907321343626A43EA63
:103900008213E26A43EA0263A26A5208013A43EA76
:1039100002436B60274B264D01221A66FFF738F9E8
:1039200004462B689A013FF5ADAEFFF731F9001B55
:103930000228F6D9D3E6FFF72BF9801B0228D7D946
:10394000CDE6FFF725F904462B689B017FF59AAE7B
:10395000FFF71EF9001B0228F6D9C0E601283FF444
:10396000BFAE6B68E26903F4800191427FF4A1AEBF
:10397000216A03F03F028A427FF49BAE616A47F6F8
:10398000C0721A40B2EB811F7FF493AEA26A520854
:1039900003F44031013AB1EB024F7FF48AAEE26AA0
:1039A00003F07063B3EB026F3FF46CAE81E600BFCF
:1039B0000038024000004742134908B58B6803F005
:1039C0000C03042B1CD0082B1CD14A684B68496897
:1039D00013F4800314BF0D480D48C1F3881118BFBC
:1039E000002302F03F02A1FB0001FDF70FF8064B98
:1039F0005B68C3F3014301335B00B0FBF3F008BD28
:103A00000248FCE70248FAE70038024040787D01AE
:103A10000024F4002DE9F0410D46044610B90120C0
:103A2000BDE8F081444B1A6802F007028A4228D3AD
:103A3000226897072DD4D00741D43F4B1A6802F073
:103A40000702AA4266D8226851076CD4130707D52B
:103A50003A4A2169936823F4604343EAC1039360BF
:103A6000FFF7AAFF354B364A9B68C3F30313D35CB9
:103A7000D840344B1860344B1868FFF73FF80020EB
:103A8000CEE7CAB21A701B6803F007038B42C6D197
:103A9000CEE72A4B12F0040F1EBF996841F4E051A3
:103AA0009960160742BF996841F4604199602349C3
:103AB000A0688B6823F0F00303438B60BBE7626868
:103AC0001E4B012A1CD11B6813F4003FA7D01B4ECC
:103AD000B36823F003031343B360FFF759F841F2CF
:103AE00088380746B368626803F00C03B3EB820FB3
:103AF000A3D0FFF74DF8C01B4045F3D903208FE753
:103B0000911E01291B6802D813F0007FDEE713F035
:103B1000020FDBE7EAB21A701B6803F00703AB423F
:103B20007FF47DAF8FE70549E0688B6823F4E053AD
:103B300003438B608AE700BF003C0240003802402C
:103B400039500008140000201C000020044B054AD6
:103B50009B68C3F38223D35C034A1068D840704744
:103B6000003802404950000814000020036A23F086
:103B700001030362036A70B5446882690D6822F02C
:103B800073022A438D6823F002032B430A4DA84297
:103B90000BD1CD6823F008032B43D1E9055624F45B
:103BA0004074354323F004032C43446082614A6827
:103BB0004263036270BD00BF00000140036A23F44A
:103BC00080730362036A70B54468C2690D6822F0AD
:103BD00073022A438D6823F4007343EA05230B4DD7
:103BE000A8420DD1CD6823F4006343EA0523D1E94F
:103BF000055624F44054354323F4806344EA051405
:103C00004460C2614A68C263036270BD0000014043
:103C1000036A23F480530362036A30B54468C269BF
:103C20000D6822F4E64242EA05228D6823F400532F
:103C300043EA0533064DA84202BF4D6924F480448F
:103C400044EA85144460C2614A680264036230BD7C
:103C50000000014090F83D30012B28D1022380F86C
:103C60003D300368DA6842F00102DA60114A93429B
:103C700012D0B3F1804F0FD0A2F57C4293420BD00B
:103C800002F58062934207D002F58062934203D02E
:103C900002F59A32934204D19A6802F00702062A8A
:103CA00003D01A6842F001021A6000207047012018
:103CB000704700BF00000140704730B590F83E20CB
:103CC00090F83F3090F8425090F84340D2B2DBB2C7
:103CD000EDB2E4B2E9B9012A5AD1012D5AD1022339
:103CE00080F83E3080F8423003681A6A22F0010200
:103CF0001A621A6A42F001021A62DA6842F002029B
:103D0000DA600268136843F0010313600023184669
:103D100030BD042915D1012B3AD1012CF7D1022352
:103D200080F83F3080F8433003681A6A22F01002AE
:103D30001A621A6A42F010021A62DA6842F0040249
:103D4000DEE7012A24D1012B24D1012DDFD1012C62
:103D5000DDD1022380F83E3080F83F3080F84230D9
:103D600080F8433003681A6A22F001021A621A6A64
:103D700042F001021A621A6A22F010021A621A6AEA
:103D800042F010021A62DA6842F00202DA60D4E706
:103D90000123BCE71346BAE7704770477047704786
:103DA00003681A69910710B504460ED5DA689207C0
:103DB0000BD56FF002021A61012202779B699B0703
:103DC00077D0FFF7EAFF0023237723681A695007AB
:103DD00010D5DA6851070DD56FF004021A6102227E
:103DE00022779B6913F4407F204668D0FFF7D5FF08
:103DF0000023237723681A6912070FD5DA681007A2
:103E00000CD56FF008021A6104222277DB6999074A
:103E100020465AD0FFF7C1FF0023237723681A6991
:103E2000D20610D5DA68D0060DD56FF010021A61EF
:103E300008222277DB6913F4407F20464BD0FFF73E
:103E4000ACFF0023237723681A69D10708D5DA6805
:103E5000D20705D56FF001021A612046FDF7E4F99B
:103E600023681A69100608D5DA68110605D56FF0BF
:103E700080021A61204600F03EFB23681A69520650
:103E800008D5DA68500605D56FF040021A61204661
:103E9000FFF785FF23681A69910622D5DA68920632
:103EA0001FD56FF0200220461A61BDE8104000F0D7
:103EB00021BBFFF771FF2046FFF770FF83E7FFF795
:103EC0006BFF2046FFF76AFF92E7FFF765FF20468A
:103ED000FFF764FFA0E7FFF75FFF2046FFF75EFFF5
:103EE000AFE710BD244A036890420ED0B0F1804F76
:103EF0000BD0A2F57C42904207D002F5806290423E
:103F000003D002F58062904215D14A6823F0700315
:103F10001343194A904219D0B0F1804F16D0A2F540
:103F20007C42904212D002F5806290420ED002F59F
:103F3000806290420AD0114A904207D002F5806216
:103F4000904203D002F58062904203D1CA6823F404
:103F5000407313434A6923F08003134303608B6863
:103F6000C3620B688362044B984204BF0B6903630E
:103F700001234361704700BF000001400040014041
:103F800010B5044630B390F83D3003F0FF021BB982
:103F900080F83C20FEF7A2FC0223206884F83D3024
:103FA000211DFFF79FFF012384F84630002084F88D
:103FB0003E3084F83F3084F8403084F8413084F853
:103FC000423084F8433084F8443084F8453084F833
:103FD0003D3010BD0120FCE710B5044630B390F829
:103FE0003D3003F0FF021BB980F83C20FFF764FE70
:103FF0000223206884F83D30211DFFF773FF012361
:1040000084F84630002084F83E3084F83F3084F84D
:10401000403084F8413084F8423084F8433084F8EA
:10402000443084F8453084F83D3010BD0120FCE771
:10403000F8B50D46044600284DD090F83D3003F009
:10404000FF021BB980F83C20FEF7FCFB214602234F
:1040500084F83D3051F8040B836823F4804323F047
:1040600007038360FFF73EFF20682A68866883693C
:10407000A968076A1643AA6923F4407341EA02213A
:1040800023F003030B4323F47C422B69E9691B01F2
:1040900043EA0123E9680B43296A22F0FC0243EA60
:1040A00001331343696927F0AA026F68866047EA03
:1040B0000117836117430123076284F8463000200B
:1040C00084F83E3084F83F3084F8423084F843303E
:1040D00084F83D30F8BD0120FCE70000036A23F0BE
:1040E00010030362036A70B5446882690D6822F4A4
:1040F000E64242EA05228D6823F0200343EA0513D5
:104100000B4DA8420DD1CD6823F0800343EA05137F
:10411000D1E9055624F44064354323F0400344EAD2
:104120008504446082614A688263036270BD00BF97
:104130000000014070B590F83C30012B054653D08B
:104140000120082A85F83C003DD006D8C2B1042AD7
:1041500028D0002385F83C3070BD0C2AF9D128689E
:10416000FFF756FD2B680969DA6942F40062DA61EB
:10417000DA6922F48062DA61DA6942EA012231E026
:104180002868FFF7F3FC2B6809699A6942F0080276
:104190009A619A6922F004029A619A690A439A61C3
:1041A0000020D6E72868FFF799FF2B6809699A690C
:1041B00042F400629A619A6922F480629A619A6973
:1041C00042EA0122EBE72868FFF7F8FC2B6809694F
:1041D000DA6942F00802DA61DA6922F00402DA618F
:1041E000DA690A43DA61DBE70220B5E710B58468D3
:1041F000114324F47F4441EA03232343836010BD29
:1042000070B590F83C30012B04464FF0020300F0EB
:104210009180012280F83D3080F83C20006883685E
:1042200023F47F4323F0770383600B68602B52D025
:1042300033D8402B67D016D8202B0DD00AD833F0B6
:10424000100109D0012384F83D30002384F83C306C
:10425000104670BD302BF5D1826822F070021343F6
:1042600043F0070317E0502BECD14A68CE68016A8F
:10427000056A25F001050562836921F00A0123F032
:10428000F00343EA06130A4383610262836823F062
:10429000700343F05703836011E0B3F5805F0ED0E5
:1042A000B3F5005F0DD0702BCCD1CB68D1E90121E3
:1042B000FFF79CFF2268936843F077039360002226
:1042C000C0E7CB68D1E90121FFF790FF226893682E
:1042D00043F48043F2E74D68CE68016A21F0100193
:1042E00001628269036A22F4704223F0A00343EA68
:1042F000051342EA063282610362836823F0700389
:1043000043F06703C7E74A68CE68016A056A25F08B
:1043100001050562836921F00A0123F0F00343EAF5
:1043200006130A4383610262836823F0700343F03B
:104330004703B0E71A468BE7036A01F01F0110B587
:1043400001248C4023EA04030362036A8A401A436F
:10435000026210BD10B5044629B990F83E30012B19
:1043600021D0012010BD042907D190F83F30012B46
:10437000F7D1022384F83F3018E0082907D190F8DC
:104380004030012BEDD1022384F840300EE090F84C
:104390004130012BE5D10429EBD00829F3D00223C9
:1043A00080F8413002E0022380F83E30012220688C
:1043B000FFF7C2FF2368124A93420AD15A6C42F4B3
:1043C00000425A649A6802F00702062A13D10020BC
:1043D000C8E7B3F1804FF5D00A4A9342F2D002F514
:1043E00080629342EED002F580629342EAD002F5F9
:1043F0009A329342E6D01A6842F001021A60E6E768
:104400000000014000040040FFF7A4BF38B5044697
:10441000002200680D46FFF78FFF2368184A934279
:104420000DD1196A41F21112114208D1196A40F2F4
:104430004442114202BF5A6C22F400425A64196A83
:1044400041F21112114208D1196A40F2444211425C
:1044500002BF1A6822F001021A6001231DB984F814
:104460003E30002038BD042D02D184F83F30F8E7FB
:10447000082D0CBF84F8403084F84130F1E700BFCC
:1044800000000140FFF7C2BF30B590F83C30012B6F
:104490004FF002032AD080F83D3003680D685C6855
:1044A0009A6824F070042C435C60114CA34212D033
:1044B000B3F1804F0FD0A4F57C44A3420BD004F598
:1044C0008064A34207D004F58064A34203D004F5BE
:1044D0009A34A34204D1496822F080020A439A60C8
:1044E000012380F83D30002380F83C30184630BD71
:1044F0000000014070477047014B1868704700BFCB
:104500002000002070B50D4D0D4C641BA41000263A
:10451000A64209D10B4D0C4C00F08EFC641BA4107C
:104520000026A64205D170BD55F8043B98470136D8
:10453000EEE755F8043B98470136F2E78C50000847
:104540008C5000088C500008905000080A4491429A
:1045500000F1FF3300D1704710B511F8014B03F89B
:10456000014F9142F9D110BD02440346934200D15C
:10457000704703F8011BF9E70EB400B59CB01DAB02
:10458000029006906FF00041094807910491094993
:1045900053F8042B05910068019302A900F068F814
:1045A000029B00221A701CB05DF804EB03B0704748
:1045B000200000200802FFFF2DE9F0478E689E4290
:1045C00082460C4690461F4638D88A8912F4906F6E
:1045D00032D025680969A5EB0109656905EB450538
:1045E00005EBD57501334B446D109D4238BF1D4618
:1045F000530531D5294600F055FB064650B90C232A
:10460000CAF80030A38943F04003A3814FF0FF3084
:10461000BDE8F08721694A46FFF798FFA38923F494
:10462000906343F08003A381266165614E44A5EB4E
:1046300009052660A5603E46BE4200D93E46206878
:104640003246414600F0A8FAA3689B1BA36023688A
:10465000334423600020DBE72A4600F097FB064640
:104660000028E1D12169504600F0B0FAC7E7000008
:104670002DE9F04F98468B891B069DB007460D46E5
:1046800014460ED50B6963B9402100F00BFB28607E
:10469000286120B90C233B604FF0FF30D1E040236C
:1046A0006B610023099320238DF82930CDF80C800D
:1046B0003023DFF8A8818DF82A304FF00109234616
:1046C0009A4613F8012B0AB1252AF9D1BAEB040B4B
:1046D0000BD05B46224629463846FFF76DFF013076
:1046E00000F0AA80099A5A4409929AF80030002BE7
:1046F00000F0A28000234FF0FF32CDE905230AF13C
:10470000010A049307938DF853301A9354460522F7
:1047100014F8011B5148FBF76BFD049AD8B9D00679
:1047200044BF20238DF85330110744BF2B238DF84D
:1047300053309AF800302A2B15D0079A544600209F
:104740004FF00A0C214611F8013B303B092B4ED9A2
:10475000B0B1079214E0A0EB080309FA03F3134386
:104760000493A246D2E7039B191D1B680391002BFB
:10477000BBBF5B4242F0020207930793B8BF0492AB
:1047800023782E2B0CD163782A2B35D1039B1A1D4D
:104790001B680392002BB8BF4FF0FF330234059320
:1047A000DFF8C8A0217803225046FBF721FD40B175
:1047B0004023A0EB0A0003FA00F0049B03430134FA
:1047C000049314F8011B26488DF828100622FBF7E5
:1047D0000FFD002838D0234B1BBB039B073323F06E
:1047E000070308330393099B3344099367E70CFBE2
:1047F00002320C460120A5E7002301340593194637
:104800004FF00A0C204610F8012B303A092A03D940
:10481000002BC5D00591C3E70CFB01210446012301
:10482000F0E703AB00932A460F4B04A93846AFF3D9
:104830000080421C0646D6D1AB895B063FF52CAF03
:1048400009981DB0BDE8F08F03AB00932A46064BD4
:1048500004A9384600F07AF8EBE700BF5150000891
:104860005B50000800000000B945000857500008E0
:104870002DE9F047164699468A680B69DDF82080D5
:104880009342B8BF1346336091F8432007460C4665
:104890000AB1013333602368990642BF336802339B
:1048A0003360256815F0060506D104F1190AE3689E
:1048B00032689B1AAB4226DC94F84320131E226810
:1048C00018BF012392062BD404F14302494638460F
:1048D000C04701301ED02368E568326803F0060344
:1048E000042B08BFAD1AA36822690CBF25EAE57541
:1048F00000259342C4BF9B1AED1800261A34B54216
:104900001AD1002008E00123524649463846C047E4
:10491000013003D14FF0FF30BDE8F0870135C6E725
:10492000E1185A1C302081F84300224494F84510C5
:1049300082F843100233C7E701232246494638462E
:10494000C0470130E6D00136D9E700002DE9FF4726
:104950000F7E0C9D782F914680460C469A4601F1B9
:10496000430207D8622F0AD8002F00F0D880582FB2
:1049700000F0A38004F1420584F842703AE0A7F108
:104980006303152BF6D801A151F823F0E54900087F
:10499000F94900087549000875490008754900087B
:1049A00075490008F949000875490008754900086B
:1049B0007549000875490008054B0008294A000898
:1049C000E74A00087549000875490008274B0008A8
:1049D00075490008294A000875490008754900080A
:1049E000EF4A00082B681A1D1B682A6004F1420573
:1049F00084F842300123A3E020682968060601F10B
:104A000004030AD50E682B60002E03DA2D237642AC
:104A100084F843305E480A2319E00E682B6010F0DA
:104A2000400F18BF36B2EFE72B682068191D2960C8
:104A3000010601D51E6802E04606FBD51E885448D3
:104A40006F2F0CBF08230A23002184F843106568E8
:104A5000A560002DA2BF216821F0040121600EB9DC
:104A6000002D4DD01546B6FBF3F103FB1167C75D72
:104A700005F8017D3746BB420E46F4D9082B0BD111
:104A80002368DE0708D5236961689942DEBF3023B9
:104A900005F8013C05F1FF35521B2261CDF800A05D
:104AA0004B4603AA21464046FFF7E2FE01304CD1B7
:104AB0004FF0FF3004B0BDE8F087354881F845700D
:104AC0002968236851F8046B29601D0614D5DF0797
:104AD00044BF43F0200323601EB9236823F0200362
:104AE00023601023B0E7236843F02003236078237A
:104AF000284884F84530E3E7590648BFB6B2E6E7F0
:104B00001546BBE72B6826686169181D28603506C5
:104B10001B6801D5196002E07006FBD519800023DF
:104B200023611546BAE72B681A1D2A601D68626862
:104B300000212846FBF75CFB08B1401B60606368FE
:104B40002361002384F84330A8E723692A464946B5
:104B50004046D0470130ABD023689B0713D4E068B0
:104B6000039B9842B8BF1846A4E701233246494642
:104B70004046D04701309BD00135E36803995B1A6A
:104B8000AB42F2DCEBE7002504F11906F5E700BFC4
:104B90006250000873500008884210B501EB02040F
:104BA00002D98442234607D8431EA14208D011F8F7
:104BB000012B03F8012FF8E7024401468A4200D195
:104BC00010BD13F8014D02F8014DF7E737B5002984
:104BD00044D051F8043C0190002BA1F10404B8BF6B
:104BE000E41800F013F91E4A0198136833B96360A2
:104BF000146003B0BDE8304000F00EB9A34208D9FC
:104C0000256861198B4201BF19685B6849192160E9
:104C1000EDE71A465B680BB1A342FAD91168551843
:104C2000A5420BD1246821445418A3421160E0D15D
:104C30001C685B68536021441160DAE702D90C23D9
:104C40000360D6E7256861198B4204BF19685B6869
:104C5000636004BF491921605460CAE703B030BDE6
:104C60000007002070B50E4E0C463168054611B99C
:104C700000F0BCF830602146284600F0B7F8431C2D
:104C80000AD0C41C24F00304A04207D0211A2846ED
:104C900000F0ACF8013001D14FF0FF34204670BD78
:104CA000040700202DE9F041CD1C25F0030508354F
:104CB0000C2D38BF0C25002D074601DBA94205D974
:104CC0000C233B6000263046BDE8F0812E4E00F0FC
:104CD0009DF833681C4634BB29463846FFF7C2FFAF
:104CE000431C04464DD134682646002E40D123682B
:104CF0003146384604EB030800F078F880453AD195
:104D0000216803356D1A25F0030508350C2D38BFD1
:104D10000C2529463846FFF7A5FF01302BD0236824
:104D20002B4423600EE02268521B1ED40B2A16D996
:104D30006119A342256018BF5960636808BF3160DC
:104D400062514B60384604F10B0600F065F826F01E
:104D50000706231DF21AB6D09B1BA350B3E7626867
:104D6000A3420CBF32605A60ECE723466468B2E7A6
:104D700034467668B9E70C233B60384600F04CF8BF
:104D8000A1E72560DEE700BF000700202DE9F04124
:104D9000804614460E4621B9BDE8F0411146FFF7A2
:104DA00081BF2AB9FFF712FF25462846BDE8F081EA
:104DB00000F038F88442074602D8B4EB500F12D8FE
:104DC00021464046FFF76EFF05460028EDD0BC4265
:104DD0002246314628BF3A46FFF7B8FB31464046E7
:104DE000FFF7F4FEE1E73546DFE7000038B5064D92
:104DF0000023044608462B60FDF72CFE431C02D11D
:104E00002B6803B1236038BD08070020014800F07B
:104E100011B800BF0C070020014800F00CB800BF1B
:104E20000C07002051F8043C181F002BBCBF0B5886
:104E3000C018704770477047F8B500BFF8BC08BC91
:104E40009E467047F8B500BFF8BC08BC9E46704748
:104E5000256C64006D6D2F6D696E2000506F776555
:104E60007220466565642056322E30004552524FFE
:104E700052204C4F4144494E472044415441004C3C
:104E80004F4144494E472044454641554C54004506
:104E900052524F52210052656C6561736520537701
:104EA00069746368004665656420526174653A0000
:104EB0004D6F64653A2053544F5020004D6F646528
:104EC0003A205249474854004D6F64653A204C459A
:104ED00046542000434F4E46494755524154494F8E
:104EE0004E00456E61626C652050696E20496E7699
:104EF00065727465643A004E4F4E5F494E56455296
:104F000054454400494E56455254454420202020E3
:104F1000004E4F545F494E56455254454400446933
:104F2000722050696E20496E7665727465643A002D
:104F30004D6F746F722053746570732070657220AA
:104F40005265763A002870756C73652F7265762904
:104F5000004C65616473637265772050697463689F
:104F60003A00286D6D2F72657629004D6178696D64
:104F7000756D2046656564726174653A00286D6DD3
:104F80002F6D696E290046617374204D6F7620463F
:104F9000656564726174653A00496E697469616C33
:104FA0002046656564726174653A0041636320540C
:104FB000696D653A00286D7329004163632055705F
:104FC0006461746520526174696F3A00536176655B
:104FD00020436F6E66696775726174696F6E004514
:104FE00058495420574954484F5554205341564529
:104FF000005341564520504152414D45544552536E
:10500000202000444154412053415645440045521C
:10501000524F522044454641554C542056414C5520
:105020004553004C4F414445440044415441204EB7
:105030004F5420534156454400000000000000003A
:105040000001020304060708090000000001020332
:1050500004232D302B2000686C4C006566674546A4
:1050600047003031323334353637383941424344E2
:105070004546003031323334353637383961626372
:0450800064656600FD
:08508400B8B9FF7F0100000034
:04508C00C501000852
:04509000A101000872
:10509400FF7F0000C8000000FF7F0000FF7F0000CA
:1050A400C80000000024F40001000000100000000B
:1050B40024000020000000000000000000000000A8
:1050C40000000000000000000000000000000000DC
:1050D40000000000000000000000000000000000CC
:1050E40000000000000000000000000000000000BC
:1050F40000000000000000000000000000000000AC
:10510400000000000000000000000000000000009B
:045114000000000097
:0400000508002AA91C
:00000001FF
